{"contracts/UserProfile.sol":{"UserProfile":{"abi":[{"inputs":[],"stateMutability":"nonpayable","type":"constructor"},{"inputs":[{"internalType":"address","name":"owner","type":"address"}],"name":"OwnableInvalidOwner","type":"error"},{"inputs":[{"internalType":"address","name":"account","type":"address"}],"name":"OwnableUnauthorizedAccount","type":"error"},{"inputs":[],"name":"ReentrancyGuardReentrantCall","type":"error"},{"anonymous":false,"inputs":[{"indexed":true,"internalType":"address","name":"previousOwner","type":"address"},{"indexed":true,"internalType":"address","name":"newOwner","type":"address"}],"name":"OwnershipTransferred","type":"event"},{"anonymous":false,"inputs":[{"indexed":true,"internalType":"address","name":"user","type":"address"},{"indexed":false,"internalType":"string","name":"email","type":"string"},{"indexed":false,"internalType":"string","name":"ipfsHash","type":"string"}],"name":"ProfileCreated","type":"event"},{"anonymous":false,"inputs":[{"indexed":true,"internalType":"address","name":"user","type":"address"},{"indexed":false,"internalType":"string","name":"ipfsHash","type":"string"}],"name":"ProfileUpdated","type":"event"},{"anonymous":false,"inputs":[{"indexed":true,"internalType":"address","name":"user","type":"address"},{"indexed":false,"internalType":"bool","name":"verified","type":"bool"}],"name":"ProfileVerified","type":"event"},{"anonymous":false,"inputs":[{"indexed":true,"internalType":"address","name":"user","type":"address"},{"indexed":false,"internalType":"uint256","name":"newReputation","type":"uint256"}],"name":"ReputationUpdated","type":"event"},{"inputs":[{"internalType":"uint256","name":"","type":"uint256"}],"name":"allUsers","outputs":[{"internalType":"address","name":"","type":"address"}],"stateMutability":"view","type":"function"},{"inputs":[{"internalType":"string","name":"_fullName","type":"string"},{"internalType":"uint256","name":"_age","type":"uint256"},{"internalType":"string","name":"_email","type":"string"},{"internalType":"string","name":"_ipfsHash","type":"string"}],"name":"createProfile","outputs":[],"stateMutability":"nonpayable","type":"function"},{"inputs":[{"internalType":"string","name":"","type":"string"}],"name":"emailToAddress","outputs":[{"internalType":"address","name":"","type":"address"}],"stateMutability":"view","type":"function"},{"inputs":[{"internalType":"address","name":"_user","type":"address"}],"name":"getProfile","outputs":[{"components":[{"internalType":"string","name":"fullName","type":"string"},{"internalType":"uint256","name":"age","type":"uint256"},{"internalType":"string","name":"email","type":"string"},{"internalType":"string","name":"ipfsHash","type":"string"},{"internalType":"bool","name":"isVerified","type":"bool"},{"internalType":"uint256","name":"createdAt","type":"uint256"},{"internalType":"uint256","name":"updatedAt","type":"uint256"},{"internalType":"uint256","name":"reputation","type":"uint256"}],"internalType":"struct UserProfile.Profile","name":"","type":"tuple"}],"stateMutability":"view","type":"function"},{"inputs":[],"name":"getTotalUsers","outputs":[{"internalType":"uint256","name":"","type":"uint256"}],"stateMutability":"view","type":"function"},{"inputs":[{"internalType":"string","name":"_email","type":"string"}],"name":"getUserByEmail","outputs":[{"internalType":"address","name":"","type":"address"}],"stateMutability":"view","type":"function"},{"inputs":[{"internalType":"address","name":"_user","type":"address"}],"name":"getUserReputation","outputs":[{"internalType":"uint256","name":"","type":"uint256"}],"stateMutability":"view","type":"function"},{"inputs":[{"internalType":"address","name":"","type":"address"}],"name":"hasProfile","outputs":[{"internalType":"bool","name":"","type":"bool"}],"stateMutability":"view","type":"function"},{"inputs":[{"internalType":"address","name":"_user","type":"address"}],"name":"isUserVerified","outputs":[{"internalType":"bool","name":"","type":"bool"}],"stateMutability":"view","type":"function"},{"inputs":[],"name":"owner","outputs":[{"internalType":"address","name":"","type":"address"}],"stateMutability":"view","type":"function"},{"inputs":[{"internalType":"address","name":"","type":"address"}],"name":"profiles","outputs":[{"internalType":"string","name":"fullName","type":"string"},{"internalType":"uint256","name":"age","type":"uint256"},{"internalType":"string","name":"email","type":"string"},{"internalType":"string","name":"ipfsHash","type":"string"},{"internalType":"bool","name":"isVerified","type":"bool"},{"internalType":"uint256","name":"createdAt","type":"uint256"},{"internalType":"uint256","name":"updatedAt","type":"uint256"},{"internalType":"uint256","name":"reputation","type":"uint256"}],"stateMutability":"view","type":"function"},{"inputs":[],"name":"renounceOwnership","outputs":[],"stateMutability":"nonpayable","type":"function"},{"inputs":[{"internalType":"address","name":"newOwner","type":"address"}],"name":"transferOwnership","outputs":[],"stateMutability":"nonpayable","type":"function"},{"inputs":[{"internalType":"string","name":"_fullName","type":"string"},{"internalType":"uint256","name":"_age","type":"uint256"},{"internalType":"string","name":"_ipfsHash","type":"string"}],"name":"updateProfile","outputs":[],"stateMutability":"nonpayable","type":"function"},{"inputs":[{"internalType":"address","name":"_user","type":"address"},{"internalType":"uint256","name":"_reputation","type":"uint256"}],"name":"updateReputation","outputs":[],"stateMutability":"nonpayable","type":"function"},{"inputs":[{"internalType":"address","name":"_user","type":"address"},{"internalType":"bool","name":"_verified","type":"bool"}],"name":"verifyProfile","outputs":[],"stateMutability":"nonpayable","type":"function"}],"evm":{"bytecode":{"linkReferences":{},"object":"6080806040523461007e5733156100685760008054336001600160a01b03198216811783556040519290916001600160a01b0316907f8be0079c531659141344cd1fd0a4f28419497f9722a3daafe3b4186f6b6457e09080a36001805561145b90816100848239f35b631e4fbdf760e01b815260006004820152602490fd5b600080fdfe6080604052600436101561001257600080fd5b60003560e01c80630d1b21fa146109ea5780630f53a4701461087457806318046ae1146101e457806356412d3a146107d0578063715018a6146107775780638da5cb5b1461074e5780639be572f614610730578063a2bdedf4146106ee578063a5fb1fb8146103b0578063a787c80b14610371578063ace417e014610344578063baccbfdb14610319578063bbe156271461024d578063ea78dcbf146101e4578063f2fde38b146101565763f5c91a08146100cc57600080fd5b34610151576040366003190112610151576100e5611116565b7ffc577563f1b9a0461e24abef1e1fcc0d33d3d881f20b5df6dda59de4aae2c8216020602435926101146112a1565b60018060a01b031692836000526004825261013660ff60406000205416611376565b836000526002825280600760406000200155604051908152a2005b600080fd5b346101515760203660031901126101515761016f611116565b6101776112a1565b6001600160a01b039081169081156101cb57600054826bffffffffffffffffffffffff60a01b821617600055167f8be0079c531659141344cd1fd0a4f28419497f9722a3daafe3b4186f6b6457e0600080a3005b604051631e4fbdf760e01b815260006004820152602490fd5b346101515760203660031901126101515760043567ffffffffffffffff81116101515761021760209136906004016110bf565b8161022b604051928381519384920161112c565b600390820190815281900382019020546040516001600160a01b039091168152f35b34610151576020366003190112610151576001600160a01b0361026e611116565b1660005260026020526102dd6040600020610288816111fb565b9060018101549061029b600282016111fb565b906102a8600382016111fb565b926102fe60ff600484015416946102f060058501549360076006870154960154966040519a8b9a610100808d528c019061114f565b9160208b015289820360408b015261114f565b90878203606089015261114f565b931515608086015260a085015260c084015260e08301520390f35b3461015157602036600319011261015157602061033c610337611116565b6113f4565b604051908152f35b34610151576020366003190112610151576020610367610362611116565b6113bb565b6040519015158152f35b34610151576020366003190112610151576001600160a01b03610392611116565b166000526004602052602060ff604060002054166040519015158152f35b346101515760603660031901126101515767ffffffffffffffff600435818111610151576103e29036906004016110bf565b60243591604435818111610151576103fe9036906004016110bf565b90336000526020926004845261041b60ff60406000205416611376565b610423611353565b61042f815115156112cd565b841515806106e4575b61044190611319565b3360005260028452604060002091815181811161060f578061046385546111c1565b93601f94858111610695575b50879085831160011461063057600092610625575b50508160011b916000199060031b1c19161783555b600195868401556003830191845191821161060f576104b883546111c1565b8181116105c9575b508590821160011461053c57918161052a94927fdd635a4cd84864e37e4479dbfc2ec667acfa473c83c8422a8ac9d9d07599b01c9694600091610531575b50600019600383901b1c191690881b1790555b600642910155604051918291858352339583019061114f565b0390a28055005b9050840151896104fe565b908691601f1982169084600052876000209160005b898282106105b35750509183917fdd635a4cd84864e37e4479dbfc2ec667acfa473c83c8422a8ac9d9d07599b01c98969461052a9896941061059a575b5050811b019055610511565b86015160001960f88460031b161c19169055898061058e565b838a015185558b96909401939283019201610551565b83600052866000208280850160051c820192898610610606575b0160051c019088905b8281106105fa5750506104c0565b600081550188906105ec565b925081926105e3565b634e487b7160e01b600052604160045260246000fd5b015190508880610484565b60008781528981209350601f198516905b8a82821061067f575050908460019594939210610666575b505050811b018355610499565b015160001960f88460031b161c19169055888080610659565b6001859682939686015181550195019301610641565b90915085600052876000208580850160051c8201928a86106106db575b9085949392910160051c01905b8181106106cc575061046f565b600081558493506001016106bf565b925081926106b2565b5060968510610438565b346101515760203660031901126101515760043560055481101561015157610717602091611174565b905460405160039290921b1c6001600160a01b03168152f35b34610151576000366003190112610151576020600554604051908152f35b34610151576000366003190112610151576000546040516001600160a01b039091168152602090f35b34610151576000366003190112610151576107906112a1565b600080546001600160a01b0319811682556001600160a01b03167f8be0079c531659141344cd1fd0a4f28419497f9722a3daafe3b4186f6b6457e08280a3005b34610151576040366003190112610151576107e9611116565b6024359081151590818303610151577f1a54de57409cde881501535c2cd15fafdcc1cfee166b0f7de867255b850c76d59161086b6020926108286112a1565b60018060a01b031694856000526004845261084a60ff60406000205416611376565b856000526002845260046040600020019060ff801983541691151516179055565b604051908152a2005b34610151576020806003193601126101515761012090610892611116565b6040519061089f82611080565b600060e0606093848152828682015284604082015284808201528260808201528260a08201528260c0820152015260018060a01b031680600052600483526108ee60ff60406000205416611376565b600052600282526040600020916040519261090884611080565b610911816111fb565b845260018101549082850191825261092b600282016111fb565b91604086019283526109cc610942600384016111fb565b86880190815260ff600485015416966080890197151588526109bb60058601549460a08b01958652600760068801549760c08d0198895201549760e08c019889526109a1604051809e819e8d83525191610100809e820152019061114f565b915160408d015251601f1993848d840301908d015261114f565b9151908983030160808a015261114f565b9451151560a08701525160c08601525160e085015251908301520390f35b346101515760803660031901126101515760043567ffffffffffffffff811161015157610a1b9036906004016110bf565b60443567ffffffffffffffff811161015157610a3b9036906004016110bf565b60643567ffffffffffffffff811161015157610a5b9036906004016110bf565b916040518251610a6f81836020870161112c565b60039082019081528190036020019020546001600160a01b031661103b57610a95611353565b33600052600460205260ff60406000205416610ffd57610ab7815115156112cd565b60243580151580610ff3575b610acc90611319565b825115610fb65760405191610ae083611080565b82526020820152816040820152826060820152600060808201524260a08201524260c0820152600060e0820152336000526002602052604060002090805180519067ffffffffffffffff821161060f578190610b3c85546111c1565b601f8111610f66575b50602090601f8311600114610efa57600092610eef575b50508160011b916000199060031b1c19161782555b60208101516001830155604081015180519067ffffffffffffffff821161060f578190610ba160028601546111c1565b601f8111610e9c575b50602090601f8311600114610e2a57600092610e1f575b50508160011b916000199060031b1c19161760028301555b606081015180519067ffffffffffffffff821161060f57610bfd60038501546111c1565b601f8111610dd8575b50602090601f8311600114610d635791806007949260e094600092610d58575b50508160011b916000199060031b1c19161760038501555b610c5d60808201511515600486019060ff801983541691151516179055565b60a0810151600585015560c0810151600685015501519101556040516020818351610c8b818385880161112c565b81016003815203019020336bffffffffffffffffffffffff60a01b8254161790553360005260046020526040600020600160ff198254161790556005546801000000000000000081101561060f577f6b4494367229a908b0585b361e2871a21f8eb4cd852c02f55c9e06989f4bb2aa91610d0e826001610d409401600555611174565b81546001600160a01b0360039290921b91821b19163390911b17905560408051818152928392610d4f9284019061114f565b8281036020840152339561114f565b0390a260018055005b015190508880610c26565b906003850160005260206000209160005b601f1985168110610dc05750926007949260019260e09583601f19811610610da7575b505050811b016003850155610c3e565b015160001960f88460031b161c19169055888080610d97565b91926020600181928685015181550194019201610d74565b600385016000526020600020601f840160051c810160208510610e18575b601f830160051c82018110610e0c575050610c06565b60008155600101610df6565b5080610df6565b015190508680610bc1565b9250600285016000526020600020906000935b601f1984168510610e81576001945083601f19811610610e68575b505050811b016002830155610bd9565b015160001960f88460031b161c19169055868080610e58565b81810151835560209485019460019093019290910190610e3d565b909150600285016000526020600020601f840160051c810160208510610ee8575b90849392915b601f830160051c82018110610ed9575050610baa565b60008155859450600101610ec3565b5080610ebd565b015190508680610b5c565b9250846000526020600020906000935b601f1984168510610f4b576001945083601f19811610610f32575b505050811b018255610b71565b015160001960f88460031b161c19169055868080610f25565b81810151835560209485019460019093019290910190610f0a565b909150846000526020600020601f840160051c810160208510610faf575b90849392915b601f830160051c82018110610fa0575050610b45565b60008155859450600101610f8a565b5080610f84565b60405162461bcd60e51b8152602060048201526015602482015274456d61696c2063616e6e6f7420626520656d70747960581b6044820152606490fd5b5060968110610ac3565b60405162461bcd60e51b815260206004820152601660248201527550726f66696c6520616c72656164792065786973747360501b6044820152606490fd5b60405162461bcd60e51b815260206004820152601860248201527f456d61696c20616c7265616479207265676973746572656400000000000000006044820152606490fd5b610100810190811067ffffffffffffffff82111761060f57604052565b90601f8019910116810190811067ffffffffffffffff82111761060f57604052565b81601f820112156101515780359067ffffffffffffffff821161060f57604051926110f4601f8401601f19166020018561109d565b8284526020838301011161015157816000926020809301838601378301015290565b600435906001600160a01b038216820361015157565b60005b83811061113f5750506000910152565b818101518382015260200161112f565b906020916111688151809281855285808601910161112c565b601f01601f1916010190565b6005548110156111ab5760056000527f036b6384b5eca791c62761152d0c79bb0604c104a5fb6f4eb0703f3154bb3db00190600090565b634e487b7160e01b600052603260045260246000fd5b90600182811c921680156111f1575b60208310146111db57565b634e487b7160e01b600052602260045260246000fd5b91607f16916111d0565b906040519182600082549261120f846111c1565b90818452600194858116908160001461127e575060011461123b575b50506112399250038361109d565b565b9093915060005260209081600020936000915b8183106112665750506112399350820101388061122b565b8554888401850152948501948794509183019161124e565b91505061123994506020925060ff191682840152151560051b820101388061122b565b6000546001600160a01b031633036112b557565b60405163118cdaa760e01b8152336004820152602490fd5b156112d457565b60405162461bcd60e51b815260206004820152601960248201527f46756c6c206e616d652063616e6e6f7420626520656d707479000000000000006044820152606490fd5b1561132057565b60405162461bcd60e51b815260206004820152600b60248201526a496e76616c69642061676560a81b6044820152606490fd5b600260015414611364576002600155565b604051633ee5aeb560e01b8152600490fd5b1561137d57565b60405162461bcd60e51b8152602060048201526016602482015275141c9bd99a5b1948191bd95cc81b9bdd08195e1a5cdd60521b6044820152606490fd5b6001600160a01b031660009081526004602052604090205460ff16156113ef57600260205260ff6004604060002001541690565b600090565b6001600160a01b031660009081526004602052604090205460ff16156113ef5760026020526007604060002001549056fea2646970667358221220b0413c0bb8a6b2e93cd0dc2720a93edc34bc7d985240c566f1f4e7d5bb6adb5b64736f6c63430008140033","opcodes":"PUSH1 0x80 DUP1 PUSH1 0x40 MSTORE CALLVALUE PUSH2 0x7E JUMPI CALLER ISZERO PUSH2 0x68 JUMPI PUSH1 0x0 DUP1 SLOAD CALLER PUSH1 0x1 PUSH1 0x1 PUSH1 0xA0 SHL SUB NOT DUP3 AND DUP2 OR DUP4 SSTORE PUSH1 0x40 MLOAD SWAP3 SWAP1 SWAP2 PUSH1 0x1 PUSH1 0x1 PUSH1 0xA0 SHL SUB AND SWAP1 PUSH32 0x8BE0079C531659141344CD1FD0A4F28419497F9722A3DAAFE3B4186F6B6457E0 SWAP1 DUP1 LOG3 PUSH1 0x1 DUP1 SSTORE PUSH2 0x145B SWAP1 DUP2 PUSH2 0x84 DUP3 CODECOPY RETURN JUMPDEST PUSH4 0x1E4FBDF7 PUSH1 0xE0 SHL DUP2 MSTORE PUSH1 0x0 PUSH1 0x4 DUP3 ADD MSTORE PUSH1 0x24 SWAP1 REVERT JUMPDEST PUSH1 0x0 DUP1 REVERT INVALID PUSH1 0x80 PUSH1 0x40 MSTORE PUSH1 0x4 CALLDATASIZE LT ISZERO PUSH2 0x12 JUMPI PUSH1 0x0 DUP1 REVERT JUMPDEST PUSH1 0x0 CALLDATALOAD PUSH1 0xE0 SHR DUP1 PUSH4 0xD1B21FA EQ PUSH2 0x9EA JUMPI DUP1 PUSH4 0xF53A470 EQ PUSH2 0x874 JUMPI DUP1 PUSH4 0x18046AE1 EQ PUSH2 0x1E4 JUMPI DUP1 PUSH4 0x56412D3A EQ PUSH2 0x7D0 JUMPI DUP1 PUSH4 0x715018A6 EQ PUSH2 0x777 JUMPI DUP1 PUSH4 0x8DA5CB5B EQ PUSH2 0x74E JUMPI DUP1 PUSH4 0x9BE572F6 EQ PUSH2 0x730 JUMPI DUP1 PUSH4 0xA2BDEDF4 EQ PUSH2 0x6EE JUMPI DUP1 PUSH4 0xA5FB1FB8 EQ PUSH2 0x3B0 JUMPI DUP1 PUSH4 0xA787C80B EQ PUSH2 0x371 JUMPI DUP1 PUSH4 0xACE417E0 EQ PUSH2 0x344 JUMPI DUP1 PUSH4 0xBACCBFDB EQ PUSH2 0x319 JUMPI DUP1 PUSH4 0xBBE15627 EQ PUSH2 0x24D JUMPI DUP1 PUSH4 0xEA78DCBF EQ PUSH2 0x1E4 JUMPI DUP1 PUSH4 0xF2FDE38B EQ PUSH2 0x156 JUMPI PUSH4 0xF5C91A08 EQ PUSH2 0xCC JUMPI PUSH1 0x0 DUP1 REVERT JUMPDEST CALLVALUE PUSH2 0x151 JUMPI PUSH1 0x40 CALLDATASIZE PUSH1 0x3 NOT ADD SLT PUSH2 0x151 JUMPI PUSH2 0xE5 PUSH2 0x1116 JUMP JUMPDEST PUSH32 0xFC577563F1B9A0461E24ABEF1E1FCC0D33D3D881F20B5DF6DDA59DE4AAE2C821 PUSH1 0x20 PUSH1 0x24 CALLDATALOAD SWAP3 PUSH2 0x114 PUSH2 0x12A1 JUMP JUMPDEST PUSH1 0x1 DUP1 PUSH1 0xA0 SHL SUB AND SWAP3 DUP4 PUSH1 0x0 MSTORE PUSH1 0x4 DUP3 MSTORE PUSH2 0x136 PUSH1 0xFF PUSH1 0x40 PUSH1 0x0 KECCAK256 SLOAD AND PUSH2 0x1376 JUMP JUMPDEST DUP4 PUSH1 0x0 MSTORE PUSH1 0x2 DUP3 MSTORE DUP1 PUSH1 0x7 PUSH1 0x40 PUSH1 0x0 KECCAK256 ADD SSTORE PUSH1 0x40 MLOAD SWAP1 DUP2 MSTORE LOG2 STOP JUMPDEST PUSH1 0x0 DUP1 REVERT JUMPDEST CALLVALUE PUSH2 0x151 JUMPI PUSH1 0x20 CALLDATASIZE PUSH1 0x3 NOT ADD SLT PUSH2 0x151 JUMPI PUSH2 0x16F PUSH2 0x1116 JUMP JUMPDEST PUSH2 0x177 PUSH2 0x12A1 JUMP JUMPDEST PUSH1 0x1 PUSH1 0x1 PUSH1 0xA0 SHL SUB SWAP1 DUP2 AND SWAP1 DUP2 ISZERO PUSH2 0x1CB JUMPI PUSH1 0x0 SLOAD DUP3 PUSH12 0xFFFFFFFFFFFFFFFFFFFFFFFF PUSH1 0xA0 SHL DUP3 AND OR PUSH1 0x0 SSTORE AND PUSH32 0x8BE0079C531659141344CD1FD0A4F28419497F9722A3DAAFE3B4186F6B6457E0 PUSH1 0x0 DUP1 LOG3 STOP JUMPDEST PUSH1 0x40 MLOAD PUSH4 0x1E4FBDF7 PUSH1 0xE0 SHL DUP2 MSTORE PUSH1 0x0 PUSH1 0x4 DUP3 ADD MSTORE PUSH1 0x24 SWAP1 REVERT JUMPDEST CALLVALUE PUSH2 0x151 JUMPI PUSH1 0x20 CALLDATASIZE PUSH1 0x3 NOT ADD SLT PUSH2 0x151 JUMPI PUSH1 0x4 CALLDATALOAD PUSH8 0xFFFFFFFFFFFFFFFF DUP2 GT PUSH2 0x151 JUMPI PUSH2 0x217 PUSH1 0x20 SWAP2 CALLDATASIZE SWAP1 PUSH1 0x4 ADD PUSH2 0x10BF JUMP JUMPDEST DUP2 PUSH2 0x22B PUSH1 0x40 MLOAD SWAP3 DUP4 DUP2 MLOAD SWAP4 DUP5 SWAP3 ADD PUSH2 0x112C JUMP JUMPDEST PUSH1 0x3 SWAP1 DUP3 ADD SWAP1 DUP2 MSTORE DUP2 SWAP1 SUB DUP3 ADD SWAP1 KECCAK256 SLOAD PUSH1 0x40 MLOAD PUSH1 0x1 PUSH1 0x1 PUSH1 0xA0 SHL SUB SWAP1 SWAP2 AND DUP2 MSTORE RETURN JUMPDEST CALLVALUE PUSH2 0x151 JUMPI PUSH1 0x20 CALLDATASIZE PUSH1 0x3 NOT ADD SLT PUSH2 0x151 JUMPI PUSH1 0x1 PUSH1 0x1 PUSH1 0xA0 SHL SUB PUSH2 0x26E PUSH2 0x1116 JUMP JUMPDEST AND PUSH1 0x0 MSTORE PUSH1 0x2 PUSH1 0x20 MSTORE PUSH2 0x2DD PUSH1 0x40 PUSH1 0x0 KECCAK256 PUSH2 0x288 DUP2 PUSH2 0x11FB JUMP JUMPDEST SWAP1 PUSH1 0x1 DUP2 ADD SLOAD SWAP1 PUSH2 0x29B PUSH1 0x2 DUP3 ADD PUSH2 0x11FB JUMP JUMPDEST SWAP1 PUSH2 0x2A8 PUSH1 0x3 DUP3 ADD PUSH2 0x11FB JUMP JUMPDEST SWAP3 PUSH2 0x2FE PUSH1 0xFF PUSH1 0x4 DUP5 ADD SLOAD AND SWAP5 PUSH2 0x2F0 PUSH1 0x5 DUP6 ADD SLOAD SWAP4 PUSH1 0x7 PUSH1 0x6 DUP8 ADD SLOAD SWAP7 ADD SLOAD SWAP7 PUSH1 0x40 MLOAD SWAP11 DUP12 SWAP11 PUSH2 0x100 DUP1 DUP14 MSTORE DUP13 ADD SWAP1 PUSH2 0x114F JUMP JUMPDEST SWAP2 PUSH1 0x20 DUP12 ADD MSTORE DUP10 DUP3 SUB PUSH1 0x40 DUP12 ADD MSTORE PUSH2 0x114F JUMP JUMPDEST SWAP1 DUP8 DUP3 SUB PUSH1 0x60 DUP10 ADD MSTORE PUSH2 0x114F JUMP JUMPDEST SWAP4 ISZERO ISZERO PUSH1 0x80 DUP7 ADD MSTORE PUSH1 0xA0 DUP6 ADD MSTORE PUSH1 0xC0 DUP5 ADD MSTORE PUSH1 0xE0 DUP4 ADD MSTORE SUB SWAP1 RETURN JUMPDEST CALLVALUE PUSH2 0x151 JUMPI PUSH1 0x20 CALLDATASIZE PUSH1 0x3 NOT ADD SLT PUSH2 0x151 JUMPI PUSH1 0x20 PUSH2 0x33C PUSH2 0x337 PUSH2 0x1116 JUMP JUMPDEST PUSH2 0x13F4 JUMP JUMPDEST PUSH1 0x40 MLOAD SWAP1 DUP2 MSTORE RETURN JUMPDEST CALLVALUE PUSH2 0x151 JUMPI PUSH1 0x20 CALLDATASIZE PUSH1 0x3 NOT ADD SLT PUSH2 0x151 JUMPI PUSH1 0x20 PUSH2 0x367 PUSH2 0x362 PUSH2 0x1116 JUMP JUMPDEST PUSH2 0x13BB JUMP JUMPDEST PUSH1 0x40 MLOAD SWAP1 ISZERO ISZERO DUP2 MSTORE RETURN JUMPDEST CALLVALUE PUSH2 0x151 JUMPI PUSH1 0x20 CALLDATASIZE PUSH1 0x3 NOT ADD SLT PUSH2 0x151 JUMPI PUSH1 0x1 PUSH1 0x1 PUSH1 0xA0 SHL SUB PUSH2 0x392 PUSH2 0x1116 JUMP JUMPDEST AND PUSH1 0x0 MSTORE PUSH1 0x4 PUSH1 0x20 MSTORE PUSH1 0x20 PUSH1 0xFF PUSH1 0x40 PUSH1 0x0 KECCAK256 SLOAD AND PUSH1 0x40 MLOAD SWAP1 ISZERO ISZERO DUP2 MSTORE RETURN JUMPDEST CALLVALUE PUSH2 0x151 JUMPI PUSH1 0x60 CALLDATASIZE PUSH1 0x3 NOT ADD SLT PUSH2 0x151 JUMPI PUSH8 0xFFFFFFFFFFFFFFFF PUSH1 0x4 CALLDATALOAD DUP2 DUP2 GT PUSH2 0x151 JUMPI PUSH2 0x3E2 SWAP1 CALLDATASIZE SWAP1 PUSH1 0x4 ADD PUSH2 0x10BF JUMP JUMPDEST PUSH1 0x24 CALLDATALOAD SWAP2 PUSH1 0x44 CALLDATALOAD DUP2 DUP2 GT PUSH2 0x151 JUMPI PUSH2 0x3FE SWAP1 CALLDATASIZE SWAP1 PUSH1 0x4 ADD PUSH2 0x10BF JUMP JUMPDEST SWAP1 CALLER PUSH1 0x0 MSTORE PUSH1 0x20 SWAP3 PUSH1 0x4 DUP5 MSTORE PUSH2 0x41B PUSH1 0xFF PUSH1 0x40 PUSH1 0x0 KECCAK256 SLOAD AND PUSH2 0x1376 JUMP JUMPDEST PUSH2 0x423 PUSH2 0x1353 JUMP JUMPDEST PUSH2 0x42F DUP2 MLOAD ISZERO ISZERO PUSH2 0x12CD JUMP JUMPDEST DUP5 ISZERO ISZERO DUP1 PUSH2 0x6E4 JUMPI JUMPDEST PUSH2 0x441 SWAP1 PUSH2 0x1319 JUMP JUMPDEST CALLER PUSH1 0x0 MSTORE PUSH1 0x2 DUP5 MSTORE PUSH1 0x40 PUSH1 0x0 KECCAK256 SWAP2 DUP2 MLOAD DUP2 DUP2 GT PUSH2 0x60F JUMPI DUP1 PUSH2 0x463 DUP6 SLOAD PUSH2 0x11C1 JUMP JUMPDEST SWAP4 PUSH1 0x1F SWAP5 DUP6 DUP2 GT PUSH2 0x695 JUMPI JUMPDEST POP DUP8 SWAP1 DUP6 DUP4 GT PUSH1 0x1 EQ PUSH2 0x630 JUMPI PUSH1 0x0 SWAP3 PUSH2 0x625 JUMPI JUMPDEST POP POP DUP2 PUSH1 0x1 SHL SWAP2 PUSH1 0x0 NOT SWAP1 PUSH1 0x3 SHL SHR NOT AND OR DUP4 SSTORE JUMPDEST PUSH1 0x1 SWAP6 DUP7 DUP5 ADD SSTORE PUSH1 0x3 DUP4 ADD SWAP2 DUP5 MLOAD SWAP2 DUP3 GT PUSH2 0x60F JUMPI PUSH2 0x4B8 DUP4 SLOAD PUSH2 0x11C1 JUMP JUMPDEST DUP2 DUP2 GT PUSH2 0x5C9 JUMPI JUMPDEST POP DUP6 SWAP1 DUP3 GT PUSH1 0x1 EQ PUSH2 0x53C JUMPI SWAP2 DUP2 PUSH2 0x52A SWAP5 SWAP3 PUSH32 0xDD635A4CD84864E37E4479DBFC2EC667ACFA473C83C8422A8AC9D9D07599B01C SWAP7 SWAP5 PUSH1 0x0 SWAP2 PUSH2 0x531 JUMPI JUMPDEST POP PUSH1 0x0 NOT PUSH1 0x3 DUP4 SWAP1 SHL SHR NOT AND SWAP1 DUP9 SHL OR SWAP1 SSTORE JUMPDEST PUSH1 0x6 TIMESTAMP SWAP2 ADD SSTORE PUSH1 0x40 MLOAD SWAP2 DUP3 SWAP2 DUP6 DUP4 MSTORE CALLER SWAP6 DUP4 ADD SWAP1 PUSH2 0x114F JUMP JUMPDEST SUB SWAP1 LOG2 DUP1 SSTORE STOP JUMPDEST SWAP1 POP DUP5 ADD MLOAD DUP10 PUSH2 0x4FE JUMP JUMPDEST SWAP1 DUP7 SWAP2 PUSH1 0x1F NOT DUP3 AND SWAP1 DUP5 PUSH1 0x0 MSTORE DUP8 PUSH1 0x0 KECCAK256 SWAP2 PUSH1 0x0 JUMPDEST DUP10 DUP3 DUP3 LT PUSH2 0x5B3 JUMPI POP POP SWAP2 DUP4 SWAP2 PUSH32 0xDD635A4CD84864E37E4479DBFC2EC667ACFA473C83C8422A8AC9D9D07599B01C SWAP9 SWAP7 SWAP5 PUSH2 0x52A SWAP9 SWAP7 SWAP5 LT PUSH2 0x59A JUMPI JUMPDEST POP POP DUP2 SHL ADD SWAP1 SSTORE PUSH2 0x511 JUMP JUMPDEST DUP7 ADD MLOAD PUSH1 0x0 NOT PUSH1 0xF8 DUP5 PUSH1 0x3 SHL AND SHR NOT AND SWAP1 SSTORE DUP10 DUP1 PUSH2 0x58E JUMP JUMPDEST DUP4 DUP11 ADD MLOAD DUP6 SSTORE DUP12 SWAP7 SWAP1 SWAP5 ADD SWAP4 SWAP3 DUP4 ADD SWAP3 ADD PUSH2 0x551 JUMP JUMPDEST DUP4 PUSH1 0x0 MSTORE DUP7 PUSH1 0x0 KECCAK256 DUP3 DUP1 DUP6 ADD PUSH1 0x5 SHR DUP3 ADD SWAP3 DUP10 DUP7 LT PUSH2 0x606 JUMPI JUMPDEST ADD PUSH1 0x5 SHR ADD SWAP1 DUP9 SWAP1 JUMPDEST DUP3 DUP2 LT PUSH2 0x5FA JUMPI POP POP PUSH2 0x4C0 JUMP JUMPDEST PUSH1 0x0 DUP2 SSTORE ADD DUP9 SWAP1 PUSH2 0x5EC JUMP JUMPDEST SWAP3 POP DUP2 SWAP3 PUSH2 0x5E3 JUMP JUMPDEST PUSH4 0x4E487B71 PUSH1 0xE0 SHL PUSH1 0x0 MSTORE PUSH1 0x41 PUSH1 0x4 MSTORE PUSH1 0x24 PUSH1 0x0 REVERT JUMPDEST ADD MLOAD SWAP1 POP DUP9 DUP1 PUSH2 0x484 JUMP JUMPDEST PUSH1 0x0 DUP8 DUP2 MSTORE DUP10 DUP2 KECCAK256 SWAP4 POP PUSH1 0x1F NOT DUP6 AND SWAP1 JUMPDEST DUP11 DUP3 DUP3 LT PUSH2 0x67F JUMPI POP POP SWAP1 DUP5 PUSH1 0x1 SWAP6 SWAP5 SWAP4 SWAP3 LT PUSH2 0x666 JUMPI JUMPDEST POP POP POP DUP2 SHL ADD DUP4 SSTORE PUSH2 0x499 JUMP JUMPDEST ADD MLOAD PUSH1 0x0 NOT PUSH1 0xF8 DUP5 PUSH1 0x3 SHL AND SHR NOT AND SWAP1 SSTORE DUP9 DUP1 DUP1 PUSH2 0x659 JUMP JUMPDEST PUSH1 0x1 DUP6 SWAP7 DUP3 SWAP4 SWAP7 DUP7 ADD MLOAD DUP2 SSTORE ADD SWAP6 ADD SWAP4 ADD PUSH2 0x641 JUMP JUMPDEST SWAP1 SWAP2 POP DUP6 PUSH1 0x0 MSTORE DUP8 PUSH1 0x0 KECCAK256 DUP6 DUP1 DUP6 ADD PUSH1 0x5 SHR DUP3 ADD SWAP3 DUP11 DUP7 LT PUSH2 0x6DB JUMPI JUMPDEST SWAP1 DUP6 SWAP5 SWAP4 SWAP3 SWAP2 ADD PUSH1 0x5 SHR ADD SWAP1 JUMPDEST DUP2 DUP2 LT PUSH2 0x6CC JUMPI POP PUSH2 0x46F JUMP JUMPDEST PUSH1 0x0 DUP2 SSTORE DUP5 SWAP4 POP PUSH1 0x1 ADD PUSH2 0x6BF JUMP JUMPDEST SWAP3 POP DUP2 SWAP3 PUSH2 0x6B2 JUMP JUMPDEST POP PUSH1 0x96 DUP6 LT PUSH2 0x438 JUMP JUMPDEST CALLVALUE PUSH2 0x151 JUMPI PUSH1 0x20 CALLDATASIZE PUSH1 0x3 NOT ADD SLT PUSH2 0x151 JUMPI PUSH1 0x4 CALLDATALOAD PUSH1 0x5 SLOAD DUP2 LT ISZERO PUSH2 0x151 JUMPI PUSH2 0x717 PUSH1 0x20 SWAP2 PUSH2 0x1174 JUMP JUMPDEST SWAP1 SLOAD PUSH1 0x40 MLOAD PUSH1 0x3 SWAP3 SWAP1 SWAP3 SHL SHR PUSH1 0x1 PUSH1 0x1 PUSH1 0xA0 SHL SUB AND DUP2 MSTORE RETURN JUMPDEST CALLVALUE PUSH2 0x151 JUMPI PUSH1 0x0 CALLDATASIZE PUSH1 0x3 NOT ADD SLT PUSH2 0x151 JUMPI PUSH1 0x20 PUSH1 0x5 SLOAD PUSH1 0x40 MLOAD SWAP1 DUP2 MSTORE RETURN JUMPDEST CALLVALUE PUSH2 0x151 JUMPI PUSH1 0x0 CALLDATASIZE PUSH1 0x3 NOT ADD SLT PUSH2 0x151 JUMPI PUSH1 0x0 SLOAD PUSH1 0x40 MLOAD PUSH1 0x1 PUSH1 0x1 PUSH1 0xA0 SHL SUB SWAP1 SWAP2 AND DUP2 MSTORE PUSH1 0x20 SWAP1 RETURN JUMPDEST CALLVALUE PUSH2 0x151 JUMPI PUSH1 0x0 CALLDATASIZE PUSH1 0x3 NOT ADD SLT PUSH2 0x151 JUMPI PUSH2 0x790 PUSH2 0x12A1 JUMP JUMPDEST PUSH1 0x0 DUP1 SLOAD PUSH1 0x1 PUSH1 0x1 PUSH1 0xA0 SHL SUB NOT DUP2 AND DUP3 SSTORE PUSH1 0x1 PUSH1 0x1 PUSH1 0xA0 SHL SUB AND PUSH32 0x8BE0079C531659141344CD1FD0A4F28419497F9722A3DAAFE3B4186F6B6457E0 DUP3 DUP1 LOG3 STOP JUMPDEST CALLVALUE PUSH2 0x151 JUMPI PUSH1 0x40 CALLDATASIZE PUSH1 0x3 NOT ADD SLT PUSH2 0x151 JUMPI PUSH2 0x7E9 PUSH2 0x1116 JUMP JUMPDEST PUSH1 0x24 CALLDATALOAD SWAP1 DUP2 ISZERO ISZERO SWAP1 DUP2 DUP4 SUB PUSH2 0x151 JUMPI PUSH32 0x1A54DE57409CDE881501535C2CD15FAFDCC1CFEE166B0F7DE867255B850C76D5 SWAP2 PUSH2 0x86B PUSH1 0x20 SWAP3 PUSH2 0x828 PUSH2 0x12A1 JUMP JUMPDEST PUSH1 0x1 DUP1 PUSH1 0xA0 SHL SUB AND SWAP5 DUP6 PUSH1 0x0 MSTORE PUSH1 0x4 DUP5 MSTORE PUSH2 0x84A PUSH1 0xFF PUSH1 0x40 PUSH1 0x0 KECCAK256 SLOAD AND PUSH2 0x1376 JUMP JUMPDEST DUP6 PUSH1 0x0 MSTORE PUSH1 0x2 DUP5 MSTORE PUSH1 0x4 PUSH1 0x40 PUSH1 0x0 KECCAK256 ADD SWAP1 PUSH1 0xFF DUP1 NOT DUP4 SLOAD AND SWAP2 ISZERO ISZERO AND OR SWAP1 SSTORE JUMP JUMPDEST PUSH1 0x40 MLOAD SWAP1 DUP2 MSTORE LOG2 STOP JUMPDEST CALLVALUE PUSH2 0x151 JUMPI PUSH1 0x20 DUP1 PUSH1 0x3 NOT CALLDATASIZE ADD SLT PUSH2 0x151 JUMPI PUSH2 0x120 SWAP1 PUSH2 0x892 PUSH2 0x1116 JUMP JUMPDEST PUSH1 0x40 MLOAD SWAP1 PUSH2 0x89F DUP3 PUSH2 0x1080 JUMP JUMPDEST PUSH1 0x0 PUSH1 0xE0 PUSH1 0x60 SWAP4 DUP5 DUP2 MSTORE DUP3 DUP7 DUP3 ADD MSTORE DUP5 PUSH1 0x40 DUP3 ADD MSTORE DUP5 DUP1 DUP3 ADD MSTORE DUP3 PUSH1 0x80 DUP3 ADD MSTORE DUP3 PUSH1 0xA0 DUP3 ADD MSTORE DUP3 PUSH1 0xC0 DUP3 ADD MSTORE ADD MSTORE PUSH1 0x1 DUP1 PUSH1 0xA0 SHL SUB AND DUP1 PUSH1 0x0 MSTORE PUSH1 0x4 DUP4 MSTORE PUSH2 0x8EE PUSH1 0xFF PUSH1 0x40 PUSH1 0x0 KECCAK256 SLOAD AND PUSH2 0x1376 JUMP JUMPDEST PUSH1 0x0 MSTORE PUSH1 0x2 DUP3 MSTORE PUSH1 0x40 PUSH1 0x0 KECCAK256 SWAP2 PUSH1 0x40 MLOAD SWAP3 PUSH2 0x908 DUP5 PUSH2 0x1080 JUMP JUMPDEST PUSH2 0x911 DUP2 PUSH2 0x11FB JUMP JUMPDEST DUP5 MSTORE PUSH1 0x1 DUP2 ADD SLOAD SWAP1 DUP3 DUP6 ADD SWAP2 DUP3 MSTORE PUSH2 0x92B PUSH1 0x2 DUP3 ADD PUSH2 0x11FB JUMP JUMPDEST SWAP2 PUSH1 0x40 DUP7 ADD SWAP3 DUP4 MSTORE PUSH2 0x9CC PUSH2 0x942 PUSH1 0x3 DUP5 ADD PUSH2 0x11FB JUMP JUMPDEST DUP7 DUP9 ADD SWAP1 DUP2 MSTORE PUSH1 0xFF PUSH1 0x4 DUP6 ADD SLOAD AND SWAP7 PUSH1 0x80 DUP10 ADD SWAP8 ISZERO ISZERO DUP9 MSTORE PUSH2 0x9BB PUSH1 0x5 DUP7 ADD SLOAD SWAP5 PUSH1 0xA0 DUP12 ADD SWAP6 DUP7 MSTORE PUSH1 0x7 PUSH1 0x6 DUP9 ADD SLOAD SWAP8 PUSH1 0xC0 DUP14 ADD SWAP9 DUP10 MSTORE ADD SLOAD SWAP8 PUSH1 0xE0 DUP13 ADD SWAP9 DUP10 MSTORE PUSH2 0x9A1 PUSH1 0x40 MLOAD DUP1 SWAP15 DUP2 SWAP15 DUP14 DUP4 MSTORE MLOAD SWAP2 PUSH2 0x100 DUP1 SWAP15 DUP3 ADD MSTORE ADD SWAP1 PUSH2 0x114F JUMP JUMPDEST SWAP2 MLOAD PUSH1 0x40 DUP14 ADD MSTORE MLOAD PUSH1 0x1F NOT SWAP4 DUP5 DUP14 DUP5 SUB ADD SWAP1 DUP14 ADD MSTORE PUSH2 0x114F JUMP JUMPDEST SWAP2 MLOAD SWAP1 DUP10 DUP4 SUB ADD PUSH1 0x80 DUP11 ADD MSTORE PUSH2 0x114F JUMP JUMPDEST SWAP5 MLOAD ISZERO ISZERO PUSH1 0xA0 DUP8 ADD MSTORE MLOAD PUSH1 0xC0 DUP7 ADD MSTORE MLOAD PUSH1 0xE0 DUP6 ADD MSTORE MLOAD SWAP1 DUP4 ADD MSTORE SUB SWAP1 RETURN JUMPDEST CALLVALUE PUSH2 0x151 JUMPI PUSH1 0x80 CALLDATASIZE PUSH1 0x3 NOT ADD SLT PUSH2 0x151 JUMPI PUSH1 0x4 CALLDATALOAD PUSH8 0xFFFFFFFFFFFFFFFF DUP2 GT PUSH2 0x151 JUMPI PUSH2 0xA1B SWAP1 CALLDATASIZE SWAP1 PUSH1 0x4 ADD PUSH2 0x10BF JUMP JUMPDEST PUSH1 0x44 CALLDATALOAD PUSH8 0xFFFFFFFFFFFFFFFF DUP2 GT PUSH2 0x151 JUMPI PUSH2 0xA3B SWAP1 CALLDATASIZE SWAP1 PUSH1 0x4 ADD PUSH2 0x10BF JUMP JUMPDEST PUSH1 0x64 CALLDATALOAD PUSH8 0xFFFFFFFFFFFFFFFF DUP2 GT PUSH2 0x151 JUMPI PUSH2 0xA5B SWAP1 CALLDATASIZE SWAP1 PUSH1 0x4 ADD PUSH2 0x10BF JUMP JUMPDEST SWAP2 PUSH1 0x40 MLOAD DUP3 MLOAD PUSH2 0xA6F DUP2 DUP4 PUSH1 0x20 DUP8 ADD PUSH2 0x112C JUMP JUMPDEST PUSH1 0x3 SWAP1 DUP3 ADD SWAP1 DUP2 MSTORE DUP2 SWAP1 SUB PUSH1 0x20 ADD SWAP1 KECCAK256 SLOAD PUSH1 0x1 PUSH1 0x1 PUSH1 0xA0 SHL SUB AND PUSH2 0x103B JUMPI PUSH2 0xA95 PUSH2 0x1353 JUMP JUMPDEST CALLER PUSH1 0x0 MSTORE PUSH1 0x4 PUSH1 0x20 MSTORE PUSH1 0xFF PUSH1 0x40 PUSH1 0x0 KECCAK256 SLOAD AND PUSH2 0xFFD JUMPI PUSH2 0xAB7 DUP2 MLOAD ISZERO ISZERO PUSH2 0x12CD JUMP JUMPDEST PUSH1 0x24 CALLDATALOAD DUP1 ISZERO ISZERO DUP1 PUSH2 0xFF3 JUMPI JUMPDEST PUSH2 0xACC SWAP1 PUSH2 0x1319 JUMP JUMPDEST DUP3 MLOAD ISZERO PUSH2 0xFB6 JUMPI PUSH1 0x40 MLOAD SWAP2 PUSH2 0xAE0 DUP4 PUSH2 0x1080 JUMP JUMPDEST DUP3 MSTORE PUSH1 0x20 DUP3 ADD MSTORE DUP2 PUSH1 0x40 DUP3 ADD MSTORE DUP3 PUSH1 0x60 DUP3 ADD MSTORE PUSH1 0x0 PUSH1 0x80 DUP3 ADD MSTORE TIMESTAMP PUSH1 0xA0 DUP3 ADD MSTORE TIMESTAMP PUSH1 0xC0 DUP3 ADD MSTORE PUSH1 0x0 PUSH1 0xE0 DUP3 ADD MSTORE CALLER PUSH1 0x0 MSTORE PUSH1 0x2 PUSH1 0x20 MSTORE PUSH1 0x40 PUSH1 0x0 KECCAK256 SWAP1 DUP1 MLOAD DUP1 MLOAD SWAP1 PUSH8 0xFFFFFFFFFFFFFFFF DUP3 GT PUSH2 0x60F JUMPI DUP2 SWAP1 PUSH2 0xB3C DUP6 SLOAD PUSH2 0x11C1 JUMP JUMPDEST PUSH1 0x1F DUP2 GT PUSH2 0xF66 JUMPI JUMPDEST POP PUSH1 0x20 SWAP1 PUSH1 0x1F DUP4 GT PUSH1 0x1 EQ PUSH2 0xEFA JUMPI PUSH1 0x0 SWAP3 PUSH2 0xEEF JUMPI JUMPDEST POP POP DUP2 PUSH1 0x1 SHL SWAP2 PUSH1 0x0 NOT SWAP1 PUSH1 0x3 SHL SHR NOT AND OR DUP3 SSTORE JUMPDEST PUSH1 0x20 DUP2 ADD MLOAD PUSH1 0x1 DUP4 ADD SSTORE PUSH1 0x40 DUP2 ADD MLOAD DUP1 MLOAD SWAP1 PUSH8 0xFFFFFFFFFFFFFFFF DUP3 GT PUSH2 0x60F JUMPI DUP2 SWAP1 PUSH2 0xBA1 PUSH1 0x2 DUP7 ADD SLOAD PUSH2 0x11C1 JUMP JUMPDEST PUSH1 0x1F DUP2 GT PUSH2 0xE9C JUMPI JUMPDEST POP PUSH1 0x20 SWAP1 PUSH1 0x1F DUP4 GT PUSH1 0x1 EQ PUSH2 0xE2A JUMPI PUSH1 0x0 SWAP3 PUSH2 0xE1F JUMPI JUMPDEST POP POP DUP2 PUSH1 0x1 SHL SWAP2 PUSH1 0x0 NOT SWAP1 PUSH1 0x3 SHL SHR NOT AND OR PUSH1 0x2 DUP4 ADD SSTORE JUMPDEST PUSH1 0x60 DUP2 ADD MLOAD DUP1 MLOAD SWAP1 PUSH8 0xFFFFFFFFFFFFFFFF DUP3 GT PUSH2 0x60F JUMPI PUSH2 0xBFD PUSH1 0x3 DUP6 ADD SLOAD PUSH2 0x11C1 JUMP JUMPDEST PUSH1 0x1F DUP2 GT PUSH2 0xDD8 JUMPI JUMPDEST POP PUSH1 0x20 SWAP1 PUSH1 0x1F DUP4 GT PUSH1 0x1 EQ PUSH2 0xD63 JUMPI SWAP2 DUP1 PUSH1 0x7 SWAP5 SWAP3 PUSH1 0xE0 SWAP5 PUSH1 0x0 SWAP3 PUSH2 0xD58 JUMPI JUMPDEST POP POP DUP2 PUSH1 0x1 SHL SWAP2 PUSH1 0x0 NOT SWAP1 PUSH1 0x3 SHL SHR NOT AND OR PUSH1 0x3 DUP6 ADD SSTORE JUMPDEST PUSH2 0xC5D PUSH1 0x80 DUP3 ADD MLOAD ISZERO ISZERO PUSH1 0x4 DUP7 ADD SWAP1 PUSH1 0xFF DUP1 NOT DUP4 SLOAD AND SWAP2 ISZERO ISZERO AND OR SWAP1 SSTORE JUMP JUMPDEST PUSH1 0xA0 DUP2 ADD MLOAD PUSH1 0x5 DUP6 ADD SSTORE PUSH1 0xC0 DUP2 ADD MLOAD PUSH1 0x6 DUP6 ADD SSTORE ADD MLOAD SWAP2 ADD SSTORE PUSH1 0x40 MLOAD PUSH1 0x20 DUP2 DUP4 MLOAD PUSH2 0xC8B DUP2 DUP4 DUP6 DUP9 ADD PUSH2 0x112C JUMP JUMPDEST DUP2 ADD PUSH1 0x3 DUP2 MSTORE SUB ADD SWAP1 KECCAK256 CALLER PUSH12 0xFFFFFFFFFFFFFFFFFFFFFFFF PUSH1 0xA0 SHL DUP3 SLOAD AND OR SWAP1 SSTORE CALLER PUSH1 0x0 MSTORE PUSH1 0x4 PUSH1 0x20 MSTORE PUSH1 0x40 PUSH1 0x0 KECCAK256 PUSH1 0x1 PUSH1 0xFF NOT DUP3 SLOAD AND OR SWAP1 SSTORE PUSH1 0x5 SLOAD PUSH9 0x10000000000000000 DUP2 LT ISZERO PUSH2 0x60F JUMPI PUSH32 0x6B4494367229A908B0585B361E2871A21F8EB4CD852C02F55C9E06989F4BB2AA SWAP2 PUSH2 0xD0E DUP3 PUSH1 0x1 PUSH2 0xD40 SWAP5 ADD PUSH1 0x5 SSTORE PUSH2 0x1174 JUMP JUMPDEST DUP2 SLOAD PUSH1 0x1 PUSH1 0x1 PUSH1 0xA0 SHL SUB PUSH1 0x3 SWAP3 SWAP1 SWAP3 SHL SWAP2 DUP3 SHL NOT AND CALLER SWAP1 SWAP2 SHL OR SWAP1 SSTORE PUSH1 0x40 DUP1 MLOAD DUP2 DUP2 MSTORE SWAP3 DUP4 SWAP3 PUSH2 0xD4F SWAP3 DUP5 ADD SWAP1 PUSH2 0x114F JUMP JUMPDEST DUP3 DUP2 SUB PUSH1 0x20 DUP5 ADD MSTORE CALLER SWAP6 PUSH2 0x114F JUMP JUMPDEST SUB SWAP1 LOG2 PUSH1 0x1 DUP1 SSTORE STOP JUMPDEST ADD MLOAD SWAP1 POP DUP9 DUP1 PUSH2 0xC26 JUMP JUMPDEST SWAP1 PUSH1 0x3 DUP6 ADD PUSH1 0x0 MSTORE PUSH1 0x20 PUSH1 0x0 KECCAK256 SWAP2 PUSH1 0x0 JUMPDEST PUSH1 0x1F NOT DUP6 AND DUP2 LT PUSH2 0xDC0 JUMPI POP SWAP3 PUSH1 0x7 SWAP5 SWAP3 PUSH1 0x1 SWAP3 PUSH1 0xE0 SWAP6 DUP4 PUSH1 0x1F NOT DUP2 AND LT PUSH2 0xDA7 JUMPI JUMPDEST POP POP POP DUP2 SHL ADD PUSH1 0x3 DUP6 ADD SSTORE PUSH2 0xC3E JUMP JUMPDEST ADD MLOAD PUSH1 0x0 NOT PUSH1 0xF8 DUP5 PUSH1 0x3 SHL AND SHR NOT AND SWAP1 SSTORE DUP9 DUP1 DUP1 PUSH2 0xD97 JUMP JUMPDEST SWAP2 SWAP3 PUSH1 0x20 PUSH1 0x1 DUP2 SWAP3 DUP7 DUP6 ADD MLOAD DUP2 SSTORE ADD SWAP5 ADD SWAP3 ADD PUSH2 0xD74 JUMP JUMPDEST PUSH1 0x3 DUP6 ADD PUSH1 0x0 MSTORE PUSH1 0x20 PUSH1 0x0 KECCAK256 PUSH1 0x1F DUP5 ADD PUSH1 0x5 SHR DUP2 ADD PUSH1 0x20 DUP6 LT PUSH2 0xE18 JUMPI JUMPDEST PUSH1 0x1F DUP4 ADD PUSH1 0x5 SHR DUP3 ADD DUP2 LT PUSH2 0xE0C JUMPI POP POP PUSH2 0xC06 JUMP JUMPDEST PUSH1 0x0 DUP2 SSTORE PUSH1 0x1 ADD PUSH2 0xDF6 JUMP JUMPDEST POP DUP1 PUSH2 0xDF6 JUMP JUMPDEST ADD MLOAD SWAP1 POP DUP7 DUP1 PUSH2 0xBC1 JUMP JUMPDEST SWAP3 POP PUSH1 0x2 DUP6 ADD PUSH1 0x0 MSTORE PUSH1 0x20 PUSH1 0x0 KECCAK256 SWAP1 PUSH1 0x0 SWAP4 JUMPDEST PUSH1 0x1F NOT DUP5 AND DUP6 LT PUSH2 0xE81 JUMPI PUSH1 0x1 SWAP5 POP DUP4 PUSH1 0x1F NOT DUP2 AND LT PUSH2 0xE68 JUMPI JUMPDEST POP POP POP DUP2 SHL ADD PUSH1 0x2 DUP4 ADD SSTORE PUSH2 0xBD9 JUMP JUMPDEST ADD MLOAD PUSH1 0x0 NOT PUSH1 0xF8 DUP5 PUSH1 0x3 SHL AND SHR NOT AND SWAP1 SSTORE DUP7 DUP1 DUP1 PUSH2 0xE58 JUMP JUMPDEST DUP2 DUP2 ADD MLOAD DUP4 SSTORE PUSH1 0x20 SWAP5 DUP6 ADD SWAP5 PUSH1 0x1 SWAP1 SWAP4 ADD SWAP3 SWAP1 SWAP2 ADD SWAP1 PUSH2 0xE3D JUMP JUMPDEST SWAP1 SWAP2 POP PUSH1 0x2 DUP6 ADD PUSH1 0x0 MSTORE PUSH1 0x20 PUSH1 0x0 KECCAK256 PUSH1 0x1F DUP5 ADD PUSH1 0x5 SHR DUP2 ADD PUSH1 0x20 DUP6 LT PUSH2 0xEE8 JUMPI JUMPDEST SWAP1 DUP5 SWAP4 SWAP3 SWAP2 JUMPDEST PUSH1 0x1F DUP4 ADD PUSH1 0x5 SHR DUP3 ADD DUP2 LT PUSH2 0xED9 JUMPI POP POP PUSH2 0xBAA JUMP JUMPDEST PUSH1 0x0 DUP2 SSTORE DUP6 SWAP5 POP PUSH1 0x1 ADD PUSH2 0xEC3 JUMP JUMPDEST POP DUP1 PUSH2 0xEBD JUMP JUMPDEST ADD MLOAD SWAP1 POP DUP7 DUP1 PUSH2 0xB5C JUMP JUMPDEST SWAP3 POP DUP5 PUSH1 0x0 MSTORE PUSH1 0x20 PUSH1 0x0 KECCAK256 SWAP1 PUSH1 0x0 SWAP4 JUMPDEST PUSH1 0x1F NOT DUP5 AND DUP6 LT PUSH2 0xF4B JUMPI PUSH1 0x1 SWAP5 POP DUP4 PUSH1 0x1F NOT DUP2 AND LT PUSH2 0xF32 JUMPI JUMPDEST POP POP POP DUP2 SHL ADD DUP3 SSTORE PUSH2 0xB71 JUMP JUMPDEST ADD MLOAD PUSH1 0x0 NOT PUSH1 0xF8 DUP5 PUSH1 0x3 SHL AND SHR NOT AND SWAP1 SSTORE DUP7 DUP1 DUP1 PUSH2 0xF25 JUMP JUMPDEST DUP2 DUP2 ADD MLOAD DUP4 SSTORE PUSH1 0x20 SWAP5 DUP6 ADD SWAP5 PUSH1 0x1 SWAP1 SWAP4 ADD SWAP3 SWAP1 SWAP2 ADD SWAP1 PUSH2 0xF0A JUMP JUMPDEST SWAP1 SWAP2 POP DUP5 PUSH1 0x0 MSTORE PUSH1 0x20 PUSH1 0x0 KECCAK256 PUSH1 0x1F DUP5 ADD PUSH1 0x5 SHR DUP2 ADD PUSH1 0x20 DUP6 LT PUSH2 0xFAF JUMPI JUMPDEST SWAP1 DUP5 SWAP4 SWAP3 SWAP2 JUMPDEST PUSH1 0x1F DUP4 ADD PUSH1 0x5 SHR DUP3 ADD DUP2 LT PUSH2 0xFA0 JUMPI POP POP PUSH2 0xB45 JUMP JUMPDEST PUSH1 0x0 DUP2 SSTORE DUP6 SWAP5 POP PUSH1 0x1 ADD PUSH2 0xF8A JUMP JUMPDEST POP DUP1 PUSH2 0xF84 JUMP JUMPDEST PUSH1 0x40 MLOAD PUSH3 0x461BCD PUSH1 0xE5 SHL DUP2 MSTORE PUSH1 0x20 PUSH1 0x4 DUP3 ADD MSTORE PUSH1 0x15 PUSH1 0x24 DUP3 ADD MSTORE PUSH21 0x456D61696C2063616E6E6F7420626520656D707479 PUSH1 0x58 SHL PUSH1 0x44 DUP3 ADD MSTORE PUSH1 0x64 SWAP1 REVERT JUMPDEST POP PUSH1 0x96 DUP2 LT PUSH2 0xAC3 JUMP JUMPDEST PUSH1 0x40 MLOAD PUSH3 0x461BCD PUSH1 0xE5 SHL DUP2 MSTORE PUSH1 0x20 PUSH1 0x4 DUP3 ADD MSTORE PUSH1 0x16 PUSH1 0x24 DUP3 ADD MSTORE PUSH22 0x50726F66696C6520616C726561647920657869737473 PUSH1 0x50 SHL PUSH1 0x44 DUP3 ADD MSTORE PUSH1 0x64 SWAP1 REVERT JUMPDEST PUSH1 0x40 MLOAD PUSH3 0x461BCD PUSH1 0xE5 SHL DUP2 MSTORE PUSH1 0x20 PUSH1 0x4 DUP3 ADD MSTORE PUSH1 0x18 PUSH1 0x24 DUP3 ADD MSTORE PUSH32 0x456D61696C20616C726561647920726567697374657265640000000000000000 PUSH1 0x44 DUP3 ADD MSTORE PUSH1 0x64 SWAP1 REVERT JUMPDEST PUSH2 0x100 DUP2 ADD SWAP1 DUP2 LT PUSH8 0xFFFFFFFFFFFFFFFF DUP3 GT OR PUSH2 0x60F JUMPI PUSH1 0x40 MSTORE JUMP JUMPDEST SWAP1 PUSH1 0x1F DUP1 NOT SWAP2 ADD AND DUP2 ADD SWAP1 DUP2 LT PUSH8 0xFFFFFFFFFFFFFFFF DUP3 GT OR PUSH2 0x60F JUMPI PUSH1 0x40 MSTORE JUMP JUMPDEST DUP2 PUSH1 0x1F DUP3 ADD SLT ISZERO PUSH2 0x151 JUMPI DUP1 CALLDATALOAD SWAP1 PUSH8 0xFFFFFFFFFFFFFFFF DUP3 GT PUSH2 0x60F JUMPI PUSH1 0x40 MLOAD SWAP3 PUSH2 0x10F4 PUSH1 0x1F DUP5 ADD PUSH1 0x1F NOT AND PUSH1 0x20 ADD DUP6 PUSH2 0x109D JUMP JUMPDEST DUP3 DUP5 MSTORE PUSH1 0x20 DUP4 DUP4 ADD ADD GT PUSH2 0x151 JUMPI DUP2 PUSH1 0x0 SWAP3 PUSH1 0x20 DUP1 SWAP4 ADD DUP4 DUP7 ADD CALLDATACOPY DUP4 ADD ADD MSTORE SWAP1 JUMP JUMPDEST PUSH1 0x4 CALLDATALOAD SWAP1 PUSH1 0x1 PUSH1 0x1 PUSH1 0xA0 SHL SUB DUP3 AND DUP3 SUB PUSH2 0x151 JUMPI JUMP JUMPDEST PUSH1 0x0 JUMPDEST DUP4 DUP2 LT PUSH2 0x113F JUMPI POP POP PUSH1 0x0 SWAP2 ADD MSTORE JUMP JUMPDEST DUP2 DUP2 ADD MLOAD DUP4 DUP3 ADD MSTORE PUSH1 0x20 ADD PUSH2 0x112F JUMP JUMPDEST SWAP1 PUSH1 0x20 SWAP2 PUSH2 0x1168 DUP2 MLOAD DUP1 SWAP3 DUP2 DUP6 MSTORE DUP6 DUP1 DUP7 ADD SWAP2 ADD PUSH2 0x112C JUMP JUMPDEST PUSH1 0x1F ADD PUSH1 0x1F NOT AND ADD ADD SWAP1 JUMP JUMPDEST PUSH1 0x5 SLOAD DUP2 LT ISZERO PUSH2 0x11AB JUMPI PUSH1 0x5 PUSH1 0x0 MSTORE PUSH32 0x36B6384B5ECA791C62761152D0C79BB0604C104A5FB6F4EB0703F3154BB3DB0 ADD SWAP1 PUSH1 0x0 SWAP1 JUMP JUMPDEST PUSH4 0x4E487B71 PUSH1 0xE0 SHL PUSH1 0x0 MSTORE PUSH1 0x32 PUSH1 0x4 MSTORE PUSH1 0x24 PUSH1 0x0 REVERT JUMPDEST SWAP1 PUSH1 0x1 DUP3 DUP2 SHR SWAP3 AND DUP1 ISZERO PUSH2 0x11F1 JUMPI JUMPDEST PUSH1 0x20 DUP4 LT EQ PUSH2 0x11DB JUMPI JUMP JUMPDEST PUSH4 0x4E487B71 PUSH1 0xE0 SHL PUSH1 0x0 MSTORE PUSH1 0x22 PUSH1 0x4 MSTORE PUSH1 0x24 PUSH1 0x0 REVERT JUMPDEST SWAP2 PUSH1 0x7F AND SWAP2 PUSH2 0x11D0 JUMP JUMPDEST SWAP1 PUSH1 0x40 MLOAD SWAP2 DUP3 PUSH1 0x0 DUP3 SLOAD SWAP3 PUSH2 0x120F DUP5 PUSH2 0x11C1 JUMP JUMPDEST SWAP1 DUP2 DUP5 MSTORE PUSH1 0x1 SWAP5 DUP6 DUP2 AND SWAP1 DUP2 PUSH1 0x0 EQ PUSH2 0x127E JUMPI POP PUSH1 0x1 EQ PUSH2 0x123B JUMPI JUMPDEST POP POP PUSH2 0x1239 SWAP3 POP SUB DUP4 PUSH2 0x109D JUMP JUMPDEST JUMP JUMPDEST SWAP1 SWAP4 SWAP2 POP PUSH1 0x0 MSTORE PUSH1 0x20 SWAP1 DUP2 PUSH1 0x0 KECCAK256 SWAP4 PUSH1 0x0 SWAP2 JUMPDEST DUP2 DUP4 LT PUSH2 0x1266 JUMPI POP POP PUSH2 0x1239 SWAP4 POP DUP3 ADD ADD CODESIZE DUP1 PUSH2 0x122B JUMP JUMPDEST DUP6 SLOAD DUP9 DUP5 ADD DUP6 ADD MSTORE SWAP5 DUP6 ADD SWAP5 DUP8 SWAP5 POP SWAP2 DUP4 ADD SWAP2 PUSH2 0x124E JUMP JUMPDEST SWAP2 POP POP PUSH2 0x1239 SWAP5 POP PUSH1 0x20 SWAP3 POP PUSH1 0xFF NOT AND DUP3 DUP5 ADD MSTORE ISZERO ISZERO PUSH1 0x5 SHL DUP3 ADD ADD CODESIZE DUP1 PUSH2 0x122B JUMP JUMPDEST PUSH1 0x0 SLOAD PUSH1 0x1 PUSH1 0x1 PUSH1 0xA0 SHL SUB AND CALLER SUB PUSH2 0x12B5 JUMPI JUMP JUMPDEST PUSH1 0x40 MLOAD PUSH4 0x118CDAA7 PUSH1 0xE0 SHL DUP2 MSTORE CALLER PUSH1 0x4 DUP3 ADD MSTORE PUSH1 0x24 SWAP1 REVERT JUMPDEST ISZERO PUSH2 0x12D4 JUMPI JUMP JUMPDEST PUSH1 0x40 MLOAD PUSH3 0x461BCD PUSH1 0xE5 SHL DUP2 MSTORE PUSH1 0x20 PUSH1 0x4 DUP3 ADD MSTORE PUSH1 0x19 PUSH1 0x24 DUP3 ADD MSTORE PUSH32 0x46756C6C206E616D652063616E6E6F7420626520656D70747900000000000000 PUSH1 0x44 DUP3 ADD MSTORE PUSH1 0x64 SWAP1 REVERT JUMPDEST ISZERO PUSH2 0x1320 JUMPI JUMP JUMPDEST PUSH1 0x40 MLOAD PUSH3 0x461BCD PUSH1 0xE5 SHL DUP2 MSTORE PUSH1 0x20 PUSH1 0x4 DUP3 ADD MSTORE PUSH1 0xB PUSH1 0x24 DUP3 ADD MSTORE PUSH11 0x496E76616C696420616765 PUSH1 0xA8 SHL PUSH1 0x44 DUP3 ADD MSTORE PUSH1 0x64 SWAP1 REVERT JUMPDEST PUSH1 0x2 PUSH1 0x1 SLOAD EQ PUSH2 0x1364 JUMPI PUSH1 0x2 PUSH1 0x1 SSTORE JUMP JUMPDEST PUSH1 0x40 MLOAD PUSH4 0x3EE5AEB5 PUSH1 0xE0 SHL DUP2 MSTORE PUSH1 0x4 SWAP1 REVERT JUMPDEST ISZERO PUSH2 0x137D JUMPI JUMP JUMPDEST PUSH1 0x40 MLOAD PUSH3 0x461BCD PUSH1 0xE5 SHL DUP2 MSTORE PUSH1 0x20 PUSH1 0x4 DUP3 ADD MSTORE PUSH1 0x16 PUSH1 0x24 DUP3 ADD MSTORE PUSH22 0x141C9BD99A5B1948191BD95CC81B9BDD08195E1A5CDD PUSH1 0x52 SHL PUSH1 0x44 DUP3 ADD MSTORE PUSH1 0x64 SWAP1 REVERT JUMPDEST PUSH1 0x1 PUSH1 0x1 PUSH1 0xA0 SHL SUB AND PUSH1 0x0 SWAP1 DUP2 MSTORE PUSH1 0x4 PUSH1 0x20 MSTORE PUSH1 0x40 SWAP1 KECCAK256 SLOAD PUSH1 0xFF AND ISZERO PUSH2 0x13EF JUMPI PUSH1 0x2 PUSH1 0x20 MSTORE PUSH1 0xFF PUSH1 0x4 PUSH1 0x40 PUSH1 0x0 KECCAK256 ADD SLOAD AND SWAP1 JUMP JUMPDEST PUSH1 0x0 SWAP1 JUMP JUMPDEST PUSH1 0x1 PUSH1 0x1 PUSH1 0xA0 SHL SUB AND PUSH1 0x0 SWAP1 DUP2 MSTORE PUSH1 0x4 PUSH1 0x20 MSTORE PUSH1 0x40 SWAP1 KECCAK256 SLOAD PUSH1 0xFF AND ISZERO PUSH2 0x13EF JUMPI PUSH1 0x2 PUSH1 0x20 MSTORE PUSH1 0x7 PUSH1 0x40 PUSH1 0x0 KECCAK256 ADD SLOAD SWAP1 JUMP INVALID LOG2 PUSH5 0x6970667358 0x22 SLT KECCAK256 0xB0 COINBASE EXTCODECOPY SIGNEXTEND 0xB8 0xA6 0xB2 0xE9 EXTCODECOPY 0xD0 0xDC 0x27 KECCAK256 0xA9 RETURNDATACOPY 0xDC CALLVALUE 0xBC PUSH30 0x985240C566F1F4E7D5BB6ADB5B64736F6C63430008140033000000000000 "},"methodIdentifiers":{"allUsers(uint256)":"a2bdedf4","createProfile(string,uint256,string,string)":"0d1b21fa","emailToAddress(string)":"ea78dcbf","getProfile(address)":"0f53a470","getTotalUsers()":"9be572f6","getUserByEmail(string)":"18046ae1","getUserReputation(address)":"baccbfdb","hasProfile(address)":"a787c80b","isUserVerified(address)":"ace417e0","owner()":"8da5cb5b","profiles(address)":"bbe15627","renounceOwnership()":"715018a6","transferOwnership(address)":"f2fde38b","updateProfile(string,uint256,string)":"a5fb1fb8","updateReputation(address,uint256)":"f5c91a08","verifyProfile(address,bool)":"56412d3a"}}}}}