{"contracts/DeSciNFTSimple.sol":{"DeSciNFTSimple":{"abi":[{"inputs":[],"stateMutability":"nonpayable","type":"constructor"},{"inputs":[{"internalType":"address","name":"sender","type":"address"},{"internalType":"uint256","name":"tokenId","type":"uint256"},{"internalType":"address","name":"owner","type":"address"}],"name":"ERC721IncorrectOwner","type":"error"},{"inputs":[{"internalType":"address","name":"operator","type":"address"},{"internalType":"uint256","name":"tokenId","type":"uint256"}],"name":"ERC721InsufficientApproval","type":"error"},{"inputs":[{"internalType":"address","name":"approver","type":"address"}],"name":"ERC721InvalidApprover","type":"error"},{"inputs":[{"internalType":"address","name":"operator","type":"address"}],"name":"ERC721InvalidOperator","type":"error"},{"inputs":[{"internalType":"address","name":"owner","type":"address"}],"name":"ERC721InvalidOwner","type":"error"},{"inputs":[{"internalType":"address","name":"receiver","type":"address"}],"name":"ERC721InvalidReceiver","type":"error"},{"inputs":[{"internalType":"address","name":"sender","type":"address"}],"name":"ERC721InvalidSender","type":"error"},{"inputs":[{"internalType":"uint256","name":"tokenId","type":"uint256"}],"name":"ERC721NonexistentToken","type":"error"},{"inputs":[{"internalType":"address","name":"owner","type":"address"}],"name":"OwnableInvalidOwner","type":"error"},{"inputs":[{"internalType":"address","name":"account","type":"address"}],"name":"OwnableUnauthorizedAccount","type":"error"},{"inputs":[],"name":"ReentrancyGuardReentrantCall","type":"error"},{"anonymous":false,"inputs":[{"indexed":true,"internalType":"address","name":"owner","type":"address"},{"indexed":true,"internalType":"address","name":"approved","type":"address"},{"indexed":true,"internalType":"uint256","name":"tokenId","type":"uint256"}],"name":"Approval","type":"event"},{"anonymous":false,"inputs":[{"indexed":true,"internalType":"address","name":"owner","type":"address"},{"indexed":true,"internalType":"address","name":"operator","type":"address"},{"indexed":false,"internalType":"bool","name":"approved","type":"bool"}],"name":"ApprovalForAll","type":"event"},{"anonymous":false,"inputs":[{"indexed":false,"internalType":"uint256","name":"_fromTokenId","type":"uint256"},{"indexed":false,"internalType":"uint256","name":"_toTokenId","type":"uint256"}],"name":"BatchMetadataUpdate","type":"event"},{"anonymous":false,"inputs":[{"indexed":true,"internalType":"uint256","name":"tokenId","type":"uint256"},{"indexed":false,"internalType":"uint256","name":"newCount","type":"uint256"}],"name":"CitationAdded","type":"event"},{"anonymous":false,"inputs":[{"indexed":true,"internalType":"uint256","name":"tokenId","type":"uint256"},{"indexed":false,"internalType":"uint256","name":"newScore","type":"uint256"}],"name":"ImpactScoreUpdated","type":"event"},{"anonymous":false,"inputs":[{"indexed":false,"internalType":"uint256","name":"_tokenId","type":"uint256"}],"name":"MetadataUpdate","type":"event"},{"anonymous":false,"inputs":[{"indexed":true,"internalType":"uint256","name":"tokenId","type":"uint256"},{"indexed":false,"internalType":"bool","name":"verified","type":"bool"}],"name":"NFTVerified","type":"event"},{"anonymous":false,"inputs":[{"indexed":true,"internalType":"address","name":"previousOwner","type":"address"},{"indexed":true,"internalType":"address","name":"newOwner","type":"address"}],"name":"OwnershipTransferred","type":"event"},{"anonymous":false,"inputs":[{"indexed":true,"internalType":"uint256","name":"tokenId","type":"uint256"},{"indexed":true,"internalType":"address","name":"researcher","type":"address"},{"indexed":false,"internalType":"string","name":"title","type":"string"},{"indexed":false,"internalType":"string","name":"researchType","type":"string"}],"name":"ResearchNFTMinted","type":"event"},{"anonymous":false,"inputs":[{"indexed":true,"internalType":"address","name":"from","type":"address"},{"indexed":true,"internalType":"address","name":"to","type":"address"},{"indexed":true,"internalType":"uint256","name":"tokenId","type":"uint256"}],"name":"Transfer","type":"event"},{"inputs":[{"internalType":"uint256","name":"tokenId","type":"uint256"}],"name":"addCitation","outputs":[],"stateMutability":"nonpayable","type":"function"},{"inputs":[{"internalType":"address","name":"to","type":"address"},{"internalType":"uint256","name":"tokenId","type":"uint256"}],"name":"approve","outputs":[],"stateMutability":"nonpayable","type":"function"},{"inputs":[{"internalType":"address","name":"owner","type":"address"}],"name":"balanceOf","outputs":[{"internalType":"uint256","name":"","type":"uint256"}],"stateMutability":"view","type":"function"},{"inputs":[{"internalType":"uint256","name":"tokenId","type":"uint256"}],"name":"getApproved","outputs":[{"internalType":"address","name":"","type":"address"}],"stateMutability":"view","type":"function"},{"inputs":[{"internalType":"uint256","name":"tokenId","type":"uint256"}],"name":"getResearchNFT","outputs":[{"components":[{"internalType":"string","name":"title","type":"string"},{"internalType":"string","name":"description","type":"string"},{"internalType":"address","name":"researcher","type":"address"},{"internalType":"uint256","name":"createdAt","type":"uint256"},{"internalType":"string","name":"researchType","type":"string"},{"internalType":"uint256","name":"citationCount","type":"uint256"},{"internalType":"uint256","name":"impactScore","type":"uint256"},{"internalType":"bool","name":"isVerified","type":"bool"}],"internalType":"struct DeSciNFTSimple.ResearchNFT","name":"","type":"tuple"}],"stateMutability":"view","type":"function"},{"inputs":[{"internalType":"address","name":"researcher","type":"address"}],"name":"getResearcherNFTs","outputs":[{"internalType":"uint256[]","name":"","type":"uint256[]"}],"stateMutability":"view","type":"function"},{"inputs":[],"name":"getTotalNFTs","outputs":[{"internalType":"uint256","name":"","type":"uint256"}],"stateMutability":"view","type":"function"},{"inputs":[{"internalType":"address","name":"owner","type":"address"},{"internalType":"address","name":"operator","type":"address"}],"name":"isApprovedForAll","outputs":[{"internalType":"bool","name":"","type":"bool"}],"stateMutability":"view","type":"function"},{"inputs":[{"internalType":"address","name":"to","type":"address"},{"internalType":"string","name":"title","type":"string"},{"internalType":"string","name":"description","type":"string"},{"internalType":"string","name":"uri","type":"string"},{"internalType":"string","name":"researchType","type":"string"}],"name":"mintResearchNFT","outputs":[{"internalType":"uint256","name":"","type":"uint256"}],"stateMutability":"nonpayable","type":"function"},{"inputs":[],"name":"name","outputs":[{"internalType":"string","name":"","type":"string"}],"stateMutability":"view","type":"function"},{"inputs":[],"name":"owner","outputs":[{"internalType":"address","name":"","type":"address"}],"stateMutability":"view","type":"function"},{"inputs":[{"internalType":"uint256","name":"tokenId","type":"uint256"}],"name":"ownerOf","outputs":[{"internalType":"address","name":"","type":"address"}],"stateMutability":"view","type":"function"},{"inputs":[],"name":"renounceOwnership","outputs":[],"stateMutability":"nonpayable","type":"function"},{"inputs":[{"internalType":"uint256","name":"","type":"uint256"}],"name":"researchNFTs","outputs":[{"internalType":"string","name":"title","type":"string"},{"internalType":"string","name":"description","type":"string"},{"internalType":"address","name":"researcher","type":"address"},{"internalType":"uint256","name":"createdAt","type":"uint256"},{"internalType":"string","name":"researchType","type":"string"},{"internalType":"uint256","name":"citationCount","type":"uint256"},{"internalType":"uint256","name":"impactScore","type":"uint256"},{"internalType":"bool","name":"isVerified","type":"bool"}],"stateMutability":"view","type":"function"},{"inputs":[{"internalType":"address","name":"","type":"address"},{"internalType":"uint256","name":"","type":"uint256"}],"name":"researcherNFTs","outputs":[{"internalType":"uint256","name":"","type":"uint256"}],"stateMutability":"view","type":"function"},{"inputs":[{"internalType":"address","name":"from","type":"address"},{"internalType":"address","name":"to","type":"address"},{"internalType":"uint256","name":"tokenId","type":"uint256"}],"name":"safeTransferFrom","outputs":[],"stateMutability":"nonpayable","type":"function"},{"inputs":[{"internalType":"address","name":"from","type":"address"},{"internalType":"address","name":"to","type":"address"},{"internalType":"uint256","name":"tokenId","type":"uint256"},{"internalType":"bytes","name":"data","type":"bytes"}],"name":"safeTransferFrom","outputs":[],"stateMutability":"nonpayable","type":"function"},{"inputs":[{"internalType":"address","name":"operator","type":"address"},{"internalType":"bool","name":"approved","type":"bool"}],"name":"setApprovalForAll","outputs":[],"stateMutability":"nonpayable","type":"function"},{"inputs":[{"internalType":"bytes4","name":"interfaceId","type":"bytes4"}],"name":"supportsInterface","outputs":[{"internalType":"bool","name":"","type":"bool"}],"stateMutability":"view","type":"function"},{"inputs":[],"name":"symbol","outputs":[{"internalType":"string","name":"","type":"string"}],"stateMutability":"view","type":"function"},{"inputs":[{"internalType":"string","name":"","type":"string"}],"name":"titleToTokenId","outputs":[{"internalType":"uint256","name":"","type":"uint256"}],"stateMutability":"view","type":"function"},{"inputs":[{"internalType":"uint256","name":"tokenId","type":"uint256"}],"name":"tokenURI","outputs":[{"internalType":"string","name":"","type":"string"}],"stateMutability":"view","type":"function"},{"inputs":[{"internalType":"address","name":"from","type":"address"},{"internalType":"address","name":"to","type":"address"},{"internalType":"uint256","name":"tokenId","type":"uint256"}],"name":"transferFrom","outputs":[],"stateMutability":"nonpayable","type":"function"},{"inputs":[{"internalType":"address","name":"newOwner","type":"address"}],"name":"transferOwnership","outputs":[],"stateMutability":"nonpayable","type":"function"},{"inputs":[{"internalType":"uint256","name":"tokenId","type":"uint256"},{"internalType":"bool","name":"verified","type":"bool"}],"name":"verifyResearch","outputs":[],"stateMutability":"nonpayable","type":"function"}],"evm":{"bytecode":{"linkReferences":{},"object":"608034620003a9576001600160401b0390604081810183811183821017620003935781526012825260209271111954d8da4814995cd9585c98da0813919560721b848401528151908282018281108282111762000393578352600491828152634453434960e01b868201528451908282116200037e576000968754926001978885811c9516801562000373575b8386101462000360578190601f958681116200030d575b508390868311600114620002a9578b926200029d575b5050600019600383901b1c191690881b1788555b81519384116200028a5786548781811c911680156200027f575b828210146200026c57908184869594931162000215575b5080928411600114620001ad57508792620001a1575b5050600019600383901b1c191690841b1783555b33156200018c575060078054336001600160a01b03198216811790925591519390916001600160a01b0316907f8be0079c531659141344cd1fd0a4f28419497f9722a3daafe3b4186f6b6457e09080a380600855600955611df89081620003af8239f35b836024925191631e4fbdf760e01b8352820152fd5b01519050388062000114565b9190879450601f198416858a52838a20938a905b828210620001fb5750508411620001e1575b505050811b01835562000128565b015160001960f88460031b161c19169055388080620001d3565b8484015186558a97909501949384019390810190620001c1565b90919293508789528189208480870160051c82019284881062000262575b9187968b92969594930160051c01915b82811062000253575050620000fe565b8b81558796508a910162000243565b9250819262000233565b634e487b7160e01b895260228652602489fd5b90607f1690620000e7565b634e487b7160e01b885260418552602488fd5b015190503880620000b9565b8b8052848c208b94509190601f1984168d5b87828210620002f65750508411620002dc575b505050811b018855620000cd565b015160001960f88460031b161c19169055388080620002ce565b8385015186558e97909501949384019301620002bb565b9091508a8052838b208680850160051c82019286861062000356575b918c91869594930160051c01915b82811062000347575050620000a3565b8d81558594508c910162000337565b9250819262000329565b634e487b7160e01b8a526022875260248afd5b94607f16946200008c565b604184634e487b7160e01b6000525260246000fd5b634e487b7160e01b600052604160045260246000fd5b600080fdfe608080604052600436101561001357600080fd5b60003560e01c90816301ffc9a7146117225750806306fdde031461167f578063081812fc14611641578063095ea7b31461155a57806320a2b3a01461149457806323b872dd1461147d5780632bc6c4e3146113c95780632ef706ab1461137157806330bdb3511461134657806342842e0e146113185780634f7a3a75146108c5578063507d34a51461083a5780636352211e1461080a57806370a08231146107b1578063715018a6146107545780638da5cb5b1461072b57806395d89b411461064c5780639a60f5be146104e35780639e6b3f4214610487578063a22cb465146103dc578063b88d4fde1461036f578063c87b56dd14610312578063e985e9c5146102bc578063f2fde38b1461022e5763f9202f001461013257600080fd5b346102295760208060031936011261022957600435906101646001600160a01b0361015c84611be7565b161515611d7f565b81600052600a8152600560406000200161017e8154611d70565b905581600052600a8152604060002090600582015491600a830292808404600a1490151715610213577fbf72494abeb41ebcbebb2336bea955f18098ff14bc9264d4ab666168b67af0b382847f2e2699c09f8992c0d6290f13906bc2ee1123da7fcb3a7524e04359385709476695600688950155604051908152a282600052600a8152600560406000200154604051908152a2005b634e487b7160e01b600052601160045260246000fd5b600080fd5b34610229576020366003190112610229576102476117ef565b61024f611a35565b6001600160a01b039081169081156102a357600754826bffffffffffffffffffffffff60a01b821617600755167f8be0079c531659141344cd1fd0a4f28419497f9722a3daafe3b4186f6b6457e0600080a3005b604051631e4fbdf760e01b815260006004820152602490fd5b34610229576040366003190112610229576102d56117ef565b6102dd611805565b9060018060a01b03809116600052600560205260406000209116600052602052602060ff604060002054166040519015158152f35b346102295760203660031901126102295760043561032f81611be7565b50600052600660205261036b61034860406000206118ad565b600060405161035681611871565b526040519182916020835260208301906117ca565b0390f35b34610229576080366003190112610229576103886117ef565b610390611805565b90604435606435926001600160401b0384116102295736602385011215610229576103c86103da9436906024816004013591016119d1565b926103d4838383611a61565b33611c22565b005b34610229576040366003190112610229576103f56117ef565b6103fd611a26565b6001600160a01b0390911690811561046e5733600052600560205260406000208260005260205261043e8160406000209060ff801983541691151516179055565b60405190151581527f17307eab39ab6107e8899845ad3d59bd9653f200f220920489ca2b5937696c3160203392a3005b604051630b61174360e31b815260048101839052602490fd5b34610229576020366003190112610229576004356001600160401b038111610229576104d060206104bd81933690600401611a08565b81604051938285809451938492016117a7565b8101600c81520301902054604051908152f35b346102295760208060031936011261022957610602600435916040519061050982611855565b600060e0606093848152848482015282604082015282858201528460808201528260a08201528260c0820152015260018060a01b039361054c8561015c83611be7565b600052600a81526040600020936040519461056686611855565b61056f816118ad565b8652610634610580600183016118ad565b9684810197885283600284015416906040810191825260038401548782019081526105ad600486016118ad565b906080830191825260058601549860a08401998a5260ff600760068901549860c08701998a520154169760e0850198151589526106176040519d8e9d8e978d895251610100809e8a01526101208901906117ca565b9051601f1997604089828503019101526117ca565b955116908b01525160808a015251908883030160a08901526117ca565b935160c08601525160e0850152511515908301520390f35b3461022957600036600319011261022957604051600060018054906106708261181b565b8085529181811690811561070457506001146106ab575b61036b846106978186038261188c565b6040519182916020835260208301906117ca565b600081815292507fb10e2d527612073b26eecdfd717e6a320cf44b4afac2b0732d9fcbe2b7fa0cf65b8284106106ec57505050810160200161069782610687565b805460208587018101919091529093019281016106d4565b60ff191660208087019190915292151560051b850190920192506106979150839050610687565b34610229576000366003190112610229576007546040516001600160a01b039091168152602090f35b346102295760003660031901126102295761076d611a35565b600780546001600160a01b031981169091556000906001600160a01b03167f8be0079c531659141344cd1fd0a4f28419497f9722a3daafe3b4186f6b6457e08280a3005b34610229576020366003190112610229576001600160a01b036107d26117ef565b1680156107f15760005260036020526020604060002054604051908152f35b6040516322718ad960e21b815260006004820152602490fd5b34610229576020366003190112610229576020610828600435611be7565b6040516001600160a01b039091168152f35b34610229576040366003190112610229576004357f4727b85a09e6ca94a7e26b46423373a951492773e32fbefde21a3ca6448303516020610879611a26565b610881611a35565b6108956001600160a01b0361015c86611be7565b83600052600a82526108ba8160076040600020019060ff801983541691151516179055565b6040519015158152a2005b346102295760a0366003190112610229576108de6117ef565b6024356001600160401b038111610229576108fd903690600401611a08565b906044356001600160401b0381116102295761091d903690600401611a08565b6064356001600160401b0381116102295761093c903690600401611a08565b916084356001600160401b0381116102295761095c903690600401611a08565b916002600854146113065760026008558451156112c95760405160208187516109888183858c016117a7565b8101600c8152030190205461127457600954936109a485611d70565b6009556040516109b381611871565b600081526001600160a01b0384161561125b576000868152600260205260409020546001600160a01b031680611224575b6001600160a01b0385166000818152600360209081526040808320805460010190558a83526002909152812080546001600160a01b0319168317905588919083907fddf252ad1be2c89b69c2b068fc378daa952ba7f163c4a11628f55a4df523b3ef9080a461120b57833b6110c0575b508460005260066020526040600020908051906001600160401b038211610d81578190610a81845461181b565b601f8111611070575b50602090601f831160011461100457600092610ff9575b50508160011b916000199060031b1c19161790555b7ff8e1a15aba9398e019f0b49df1a4fde98ee17ae345cb5f6b5e2c27f5033e8ce76020604051868152a160405190610aed82611855565b858252602082015260018060a01b0382166040820152426060820152826080820152600060a0820152600060c0820152600060e082015283600052600a60205260406000209080518051906001600160401b038211610d81578190610b52855461181b565b601f8111610fa9575b50602090601f8311600114610f3d57600092610f32575b50508160011b916000199060031b1c19161782555b60208101518051906001600160401b038211610d81578190610bac600186015461181b565b601f8111610edf575b50602090601f8311600114610e6d57600092610e62575b50508160011b916000199060031b1c19161760018301555b6002820160018060a01b036040830151166bffffffffffffffffffffffff60a01b8254161790556060810151600383015560808101518051906001600160401b038211610d8157610c38600485015461181b565b601f8111610e1b575b50602090601f8311600114610da257928260079360e093610ca89796600092610d97575b50508160011b916000199060031b1c19161760048501555b60a0810151600585015560c081015160068501550151151591019060ff801983541691151516179055565b826040516020818751610cbe8183858c016117a7565b8101600c8152030190205560018060a01b038116600052600b60205260406000209081549168010000000000000000831015610d8157602095610d717f0c1def36ef14836e9b195f50c1fbc0b8035e8c6c472625326c1add6bb08ccd7693610d3086610d599560018b99018155611988565b81549060031b9088821b91600019901b19161790556040519384936040855260408501906117ca565b8381038a8501526001600160a01b03909116966117ca565b0390a36001600855604051908152f35b634e487b7160e01b600052604160045260246000fd5b015190508b80610c65565b906004850160005260206000209160005b601f1985168110610e0357508360e093610ca8979693600193600797601f19811610610dea575b505050811b016004850155610c7d565b015160001960f88460031b161c191690558b8080610dda565b91926020600181928685015181550194019201610db3565b600485016000526020600020601f840160051c810160208510610e5b575b601f830160051c82018110610e4f575050610c41565b60008155600101610e39565b5080610e39565b015190508880610bcc565b9250600185016000526020600020906000935b601f1984168510610ec4576001945083601f19811610610eab575b505050811b016001830155610be4565b015160001960f88460031b161c19169055888080610e9b565b81810151835560209485019460019093019290910190610e80565b909150600185016000526020600020601f840160051c810160208510610f2b575b90849392915b601f830160051c82018110610f1c575050610bb5565b60008155859450600101610f06565b5080610f00565b015190508880610b72565b9250846000526020600020906000935b601f1984168510610f8e576001945083601f19811610610f75575b505050811b018255610b87565b015160001960f88460031b161c19169055888080610f68565b81810151835560209485019460019093019290910190610f4d565b909150846000526020600020601f840160051c810160208510610ff2575b90849392915b601f830160051c82018110610fe3575050610b5b565b60008155859450600101610fcd565b5080610fc7565b015190508880610aa1565b9250836000526020600020906000935b601f1984168510611055576001945083601f1981161061103c575b505050811b019055610ab6565b015160001960f88460031b161c1916905588808061102f565b81810151835560209485019460019093019290910190611014565b909150836000526020600020601f840160051c8101602085106110b9575b90849392915b601f830160051c820181106110aa575050610a8a565b60008155859450600101611094565b508061108e565b602061110091604098979695985180938192630a85bd0160e11b8352336004840152600060248401528960448401526080606484015260848301906117ca565b038160006001600160a01b038c165af1600091816111c6575b5061118157863d15611179573d90611130826119b6565b9161113e604051938461188c565b82523d6000602084013e5b8151918261117257604051633250574960e11b81526001600160a01b0383166004820152602490fd5b6020915001fd5b606090611149565b949593949293926001600160e01b03191663757a42ff60e11b016111a55786610a54565b604051633250574960e11b81526001600160a01b0384166004820152602490fd5b9091506020813d602011611203575b816111e26020938361188c565b8101031261022957516001600160e01b031981168103610229579088611119565b3d91506111d5565b6040516339e3563760e11b815260006004820152602490fd5b600087815260046020526040902080546001600160a01b0319169055806000526003602052604060002060001981540190556109e4565b604051633250574960e11b815260006004820152602490fd5b60405162461bcd60e51b815260206004820152602760248201527f526573656172636820776974682074686973207469746c6520616c72656164796044820152662065786973747360c81b6064820152608490fd5b60405162461bcd60e51b81526020600482015260156024820152745469746c652063616e6e6f7420626520656d70747960581b6044820152606490fd5b604051633ee5aeb560e01b8152600490fd5b34610229576103da61132936611953565b906040519261133784611871565b600084526103d4838383611a61565b3461022957600036600319011261022957600954600019810190811161021357602090604051908152f35b346102295760403660031901126102295761138a6117ef565b6001600160a01b03166000908152600b6020526040902080546024359190821015610229576020916113bb91611988565b90546040519160031b1c8152f35b3461022957602080600319360112610229576001600160a01b036113eb6117ef565b16600052600b8152604060002060405190818382549182815201908192600052846000209060005b868282106114695786866114298288038361188c565b604051928392818401908285525180915260408401929160005b82811061145257505050500390f35b835185528695509381019392810192600101611443565b835485529093019260019283019201611413565b34610229576103da61148e36611953565b91611a61565b3461022957602036600319011261022957600435600052600a60205261151e60406000206114c1816118ad565b906114ce600182016118ad565b600282015460038301549290611544906001600160a01b03166114f3600484016118ad565b60058401549561152c60ff6007600688015497015416966040519a8b9a610100808d528c01906117ca565b908a820360208c01526117ca565b926040890152606088015286820360808801526117ca565b9260a085015260c0840152151560e08301520390f35b34610229576040366003190112610229576115736117ef565b60243561157f81611be7565b3315158061162e575b80611601575b6115e9576001600160a01b039283169282918491167f8c5be1e5ebec7d5bd14f71427d1e84f3dd0314c0f7b2291e5b200ac8c7c3b925600080a4600090815260046020526040902080546001600160a01b0319169091179055005b60405163a9fbf51f60e01b8152336004820152602490fd5b5060018060a01b038116600052600560205260406000203360005260205260ff604060002054161561158e565b506001600160a01b038116331415611588565b346102295760203660031901126102295760043561165e81611be7565b506000526004602052602060018060a01b0360406000205416604051908152f35b3461022957600036600319011261022957604051600080546116a08161181b565b8084529060019081811690811561070457506001146116c95761036b846106978186038261188c565b600080805292507f290decd9548b62a8d60345a988386fc84ba6bc95484008f6362f93160ef3e5635b82841061170a57505050810160200161069782610687565b805460208587018101919091529093019281016116f2565b34610229576020366003190112610229576004359063ffffffff60e01b821680920361022957602091632483248360e11b8114908115611764575b5015158152f35b6380ac58cd60e01b811491508115611796575b8115611785575b508361175d565b6301ffc9a760e01b1490508361177e565b635b5e139f60e01b81149150611777565b60005b8381106117ba5750506000910152565b81810151838201526020016117aa565b906020916117e3815180928185528580860191016117a7565b601f01601f1916010190565b600435906001600160a01b038216820361022957565b602435906001600160a01b038216820361022957565b90600182811c9216801561184b575b602083101461183557565b634e487b7160e01b600052602260045260246000fd5b91607f169161182a565b61010081019081106001600160401b03821117610d8157604052565b602081019081106001600160401b03821117610d8157604052565b90601f801991011681019081106001600160401b03821117610d8157604052565b90604051918260008254926118c18461181b565b90818452600194858116908160001461193057506001146118ed575b50506118eb9250038361188c565b565b9093915060005260209081600020936000915b8183106119185750506118eb935082010138806118dd565b85548884018501529485019487945091830191611900565b9150506118eb94506020925060ff191682840152151560051b82010138806118dd565b6060906003190112610229576001600160a01b0390600435828116810361022957916024359081168103610229579060443590565b80548210156119a05760005260206000200190600090565b634e487b7160e01b600052603260045260246000fd5b6001600160401b038111610d8157601f01601f191660200190565b9291926119dd826119b6565b916119eb604051938461188c565b829481845281830111610229578281602093846000960137010152565b9080601f8301121561022957816020611a23933591016119d1565b90565b60243590811515820361022957565b6007546001600160a01b03163303611a4957565b60405163118cdaa760e01b8152336004820152602490fd5b6001600160a01b03918216929091831561125b57600092828452826020956002875260409684888820541696879133151580611b51575b509060027fddf252ad1be2c89b69c2b068fc378daa952ba7f163c4a11628f55a4df523b3ef9284611b1e575b858352600381528b8320805460010190558683525289812080546001600160a01b0319168517905580a41692838303611afd5750505050565b6064945051926364283d7b60e01b8452600484015260248301526044820152fd5b600087815260046020526040902080546001600160a01b0319169055848352600381528b83208054600019019055611ac4565b91939450915080611ba6575b15611b6d57859291879138611a98565b878688611b8a576024915190637e27328960e01b82526004820152fd5b604491519063177e802f60e01b82523360048301526024820152fd5b503387148015611bcb575b80611b5d5750858252600481523385898420541614611b5d565b5086825260058152878220338352815260ff8883205416611bb1565b6000818152600260205260409020546001600160a01b0316908115611c0a575090565b60249060405190637e27328960e01b82526004820152fd5b90939192833b611c34575b5050505050565b604051630a85bd0160e11b8082526001600160a01b039384166004830152958316602482015260448101919091526080606482015294921692602092918590611c819060848301906117ca565b039483816000978189895af1869181611d2c575b50611cf6575050503d600014611ced573d611caf816119b6565b90611cbd604051928361188c565b81528093823d92013e5b82519283611ce857604051633250574960e11b815260048101849052602490fd5b019050fd5b60609250611cc7565b919450915063ffffffff60e01b1603611d1457503880808080611c2d565b60249060405190633250574960e11b82526004820152fd5b9091508481813d8311611d69575b611d44818361188c565b81010312611d6557516001600160e01b031981168103611d65579038611c95565b8680fd5b503d611d3a565b60001981146102135760010190565b15611d8657565b60405162461bcd60e51b8152602060048201526014602482015273151bdad95b88191bd95cc81b9bdd08195e1a5cdd60621b6044820152606490fdfea264697066735822122026de08ca0c8b45cca15e0733c0437b905cb5c3b6842c80ee18a2ca927abb7fc764736f6c63430008140033","opcodes":"PUSH1 0x80 CALLVALUE PUSH3 0x3A9 JUMPI PUSH1 0x1 PUSH1 0x1 PUSH1 0x40 SHL SUB SWAP1 PUSH1 0x40 DUP2 DUP2 ADD DUP4 DUP2 GT DUP4 DUP3 LT OR PUSH3 0x393 JUMPI DUP2 MSTORE PUSH1 0x12 DUP3 MSTORE PUSH1 0x20 SWAP3 PUSH18 0x111954D8DA4814995CD9585C98DA08139195 PUSH1 0x72 SHL DUP5 DUP5 ADD MSTORE DUP2 MLOAD SWAP1 DUP3 DUP3 ADD DUP3 DUP2 LT DUP3 DUP3 GT OR PUSH3 0x393 JUMPI DUP4 MSTORE PUSH1 0x4 SWAP2 DUP3 DUP2 MSTORE PUSH4 0x44534349 PUSH1 0xE0 SHL DUP7 DUP3 ADD MSTORE DUP5 MLOAD SWAP1 DUP3 DUP3 GT PUSH3 0x37E JUMPI PUSH1 0x0 SWAP7 DUP8 SLOAD SWAP3 PUSH1 0x1 SWAP8 DUP9 DUP6 DUP2 SHR SWAP6 AND DUP1 ISZERO PUSH3 0x373 JUMPI JUMPDEST DUP4 DUP7 LT EQ PUSH3 0x360 JUMPI DUP2 SWAP1 PUSH1 0x1F SWAP6 DUP7 DUP2 GT PUSH3 0x30D JUMPI JUMPDEST POP DUP4 SWAP1 DUP7 DUP4 GT PUSH1 0x1 EQ PUSH3 0x2A9 JUMPI DUP12 SWAP3 PUSH3 0x29D JUMPI JUMPDEST POP POP PUSH1 0x0 NOT PUSH1 0x3 DUP4 SWAP1 SHL SHR NOT AND SWAP1 DUP9 SHL OR DUP9 SSTORE JUMPDEST DUP2 MLOAD SWAP4 DUP5 GT PUSH3 0x28A JUMPI DUP7 SLOAD DUP8 DUP2 DUP2 SHR SWAP2 AND DUP1 ISZERO PUSH3 0x27F JUMPI JUMPDEST DUP3 DUP3 LT EQ PUSH3 0x26C JUMPI SWAP1 DUP2 DUP5 DUP7 SWAP6 SWAP5 SWAP4 GT PUSH3 0x215 JUMPI JUMPDEST POP DUP1 SWAP3 DUP5 GT PUSH1 0x1 EQ PUSH3 0x1AD JUMPI POP DUP8 SWAP3 PUSH3 0x1A1 JUMPI JUMPDEST POP POP PUSH1 0x0 NOT PUSH1 0x3 DUP4 SWAP1 SHL SHR NOT AND SWAP1 DUP5 SHL OR DUP4 SSTORE JUMPDEST CALLER ISZERO PUSH3 0x18C JUMPI POP PUSH1 0x7 DUP1 SLOAD CALLER PUSH1 0x1 PUSH1 0x1 PUSH1 0xA0 SHL SUB NOT DUP3 AND DUP2 OR SWAP1 SWAP3 SSTORE SWAP2 MLOAD SWAP4 SWAP1 SWAP2 PUSH1 0x1 PUSH1 0x1 PUSH1 0xA0 SHL SUB AND SWAP1 PUSH32 0x8BE0079C531659141344CD1FD0A4F28419497F9722A3DAAFE3B4186F6B6457E0 SWAP1 DUP1 LOG3 DUP1 PUSH1 0x8 SSTORE PUSH1 0x9 SSTORE PUSH2 0x1DF8 SWAP1 DUP2 PUSH3 0x3AF DUP3 CODECOPY RETURN JUMPDEST DUP4 PUSH1 0x24 SWAP3 MLOAD SWAP2 PUSH4 0x1E4FBDF7 PUSH1 0xE0 SHL DUP4 MSTORE DUP3 ADD MSTORE REVERT JUMPDEST ADD MLOAD SWAP1 POP CODESIZE DUP1 PUSH3 0x114 JUMP JUMPDEST SWAP2 SWAP1 DUP8 SWAP5 POP PUSH1 0x1F NOT DUP5 AND DUP6 DUP11 MSTORE DUP4 DUP11 KECCAK256 SWAP4 DUP11 SWAP1 JUMPDEST DUP3 DUP3 LT PUSH3 0x1FB JUMPI POP POP DUP5 GT PUSH3 0x1E1 JUMPI JUMPDEST POP POP POP DUP2 SHL ADD DUP4 SSTORE PUSH3 0x128 JUMP JUMPDEST ADD MLOAD PUSH1 0x0 NOT PUSH1 0xF8 DUP5 PUSH1 0x3 SHL AND SHR NOT AND SWAP1 SSTORE CODESIZE DUP1 DUP1 PUSH3 0x1D3 JUMP JUMPDEST DUP5 DUP5 ADD MLOAD DUP7 SSTORE DUP11 SWAP8 SWAP1 SWAP6 ADD SWAP5 SWAP4 DUP5 ADD SWAP4 SWAP1 DUP2 ADD SWAP1 PUSH3 0x1C1 JUMP JUMPDEST SWAP1 SWAP2 SWAP3 SWAP4 POP DUP8 DUP10 MSTORE DUP2 DUP10 KECCAK256 DUP5 DUP1 DUP8 ADD PUSH1 0x5 SHR DUP3 ADD SWAP3 DUP5 DUP9 LT PUSH3 0x262 JUMPI JUMPDEST SWAP2 DUP8 SWAP7 DUP12 SWAP3 SWAP7 SWAP6 SWAP5 SWAP4 ADD PUSH1 0x5 SHR ADD SWAP2 JUMPDEST DUP3 DUP2 LT PUSH3 0x253 JUMPI POP POP PUSH3 0xFE JUMP JUMPDEST DUP12 DUP2 SSTORE DUP8 SWAP7 POP DUP11 SWAP2 ADD PUSH3 0x243 JUMP JUMPDEST SWAP3 POP DUP2 SWAP3 PUSH3 0x233 JUMP JUMPDEST PUSH4 0x4E487B71 PUSH1 0xE0 SHL DUP10 MSTORE PUSH1 0x22 DUP7 MSTORE PUSH1 0x24 DUP10 REVERT JUMPDEST SWAP1 PUSH1 0x7F AND SWAP1 PUSH3 0xE7 JUMP JUMPDEST PUSH4 0x4E487B71 PUSH1 0xE0 SHL DUP9 MSTORE PUSH1 0x41 DUP6 MSTORE PUSH1 0x24 DUP9 REVERT JUMPDEST ADD MLOAD SWAP1 POP CODESIZE DUP1 PUSH3 0xB9 JUMP JUMPDEST DUP12 DUP1 MSTORE DUP5 DUP13 KECCAK256 DUP12 SWAP5 POP SWAP2 SWAP1 PUSH1 0x1F NOT DUP5 AND DUP14 JUMPDEST DUP8 DUP3 DUP3 LT PUSH3 0x2F6 JUMPI POP POP DUP5 GT PUSH3 0x2DC JUMPI JUMPDEST POP POP POP DUP2 SHL ADD DUP9 SSTORE PUSH3 0xCD JUMP JUMPDEST ADD MLOAD PUSH1 0x0 NOT PUSH1 0xF8 DUP5 PUSH1 0x3 SHL AND SHR NOT AND SWAP1 SSTORE CODESIZE DUP1 DUP1 PUSH3 0x2CE JUMP JUMPDEST DUP4 DUP6 ADD MLOAD DUP7 SSTORE DUP15 SWAP8 SWAP1 SWAP6 ADD SWAP5 SWAP4 DUP5 ADD SWAP4 ADD PUSH3 0x2BB JUMP JUMPDEST SWAP1 SWAP2 POP DUP11 DUP1 MSTORE DUP4 DUP12 KECCAK256 DUP7 DUP1 DUP6 ADD PUSH1 0x5 SHR DUP3 ADD SWAP3 DUP7 DUP7 LT PUSH3 0x356 JUMPI JUMPDEST SWAP2 DUP13 SWAP2 DUP7 SWAP6 SWAP5 SWAP4 ADD PUSH1 0x5 SHR ADD SWAP2 JUMPDEST DUP3 DUP2 LT PUSH3 0x347 JUMPI POP POP PUSH3 0xA3 JUMP JUMPDEST DUP14 DUP2 SSTORE DUP6 SWAP5 POP DUP13 SWAP2 ADD PUSH3 0x337 JUMP JUMPDEST SWAP3 POP DUP2 SWAP3 PUSH3 0x329 JUMP JUMPDEST PUSH4 0x4E487B71 PUSH1 0xE0 SHL DUP11 MSTORE PUSH1 0x22 DUP8 MSTORE PUSH1 0x24 DUP11 REVERT JUMPDEST SWAP5 PUSH1 0x7F AND SWAP5 PUSH3 0x8C JUMP JUMPDEST PUSH1 0x41 DUP5 PUSH4 0x4E487B71 PUSH1 0xE0 SHL PUSH1 0x0 MSTORE MSTORE PUSH1 0x24 PUSH1 0x0 REVERT JUMPDEST PUSH4 0x4E487B71 PUSH1 0xE0 SHL PUSH1 0x0 MSTORE PUSH1 0x41 PUSH1 0x4 MSTORE PUSH1 0x24 PUSH1 0x0 REVERT JUMPDEST PUSH1 0x0 DUP1 REVERT INVALID PUSH1 0x80 DUP1 PUSH1 0x40 MSTORE PUSH1 0x4 CALLDATASIZE LT ISZERO PUSH2 0x13 JUMPI PUSH1 0x0 DUP1 REVERT JUMPDEST PUSH1 0x0 CALLDATALOAD PUSH1 0xE0 SHR SWAP1 DUP2 PUSH4 0x1FFC9A7 EQ PUSH2 0x1722 JUMPI POP DUP1 PUSH4 0x6FDDE03 EQ PUSH2 0x167F JUMPI DUP1 PUSH4 0x81812FC EQ PUSH2 0x1641 JUMPI DUP1 PUSH4 0x95EA7B3 EQ PUSH2 0x155A JUMPI DUP1 PUSH4 0x20A2B3A0 EQ PUSH2 0x1494 JUMPI DUP1 PUSH4 0x23B872DD EQ PUSH2 0x147D JUMPI DUP1 PUSH4 0x2BC6C4E3 EQ PUSH2 0x13C9 JUMPI DUP1 PUSH4 0x2EF706AB EQ PUSH2 0x1371 JUMPI DUP1 PUSH4 0x30BDB351 EQ PUSH2 0x1346 JUMPI DUP1 PUSH4 0x42842E0E EQ PUSH2 0x1318 JUMPI DUP1 PUSH4 0x4F7A3A75 EQ PUSH2 0x8C5 JUMPI DUP1 PUSH4 0x507D34A5 EQ PUSH2 0x83A JUMPI DUP1 PUSH4 0x6352211E EQ PUSH2 0x80A JUMPI DUP1 PUSH4 0x70A08231 EQ PUSH2 0x7B1 JUMPI DUP1 PUSH4 0x715018A6 EQ PUSH2 0x754 JUMPI DUP1 PUSH4 0x8DA5CB5B EQ PUSH2 0x72B JUMPI DUP1 PUSH4 0x95D89B41 EQ PUSH2 0x64C JUMPI DUP1 PUSH4 0x9A60F5BE EQ PUSH2 0x4E3 JUMPI DUP1 PUSH4 0x9E6B3F42 EQ PUSH2 0x487 JUMPI DUP1 PUSH4 0xA22CB465 EQ PUSH2 0x3DC JUMPI DUP1 PUSH4 0xB88D4FDE EQ PUSH2 0x36F JUMPI DUP1 PUSH4 0xC87B56DD EQ PUSH2 0x312 JUMPI DUP1 PUSH4 0xE985E9C5 EQ PUSH2 0x2BC JUMPI DUP1 PUSH4 0xF2FDE38B EQ PUSH2 0x22E JUMPI PUSH4 0xF9202F00 EQ PUSH2 0x132 JUMPI PUSH1 0x0 DUP1 REVERT JUMPDEST CALLVALUE PUSH2 0x229 JUMPI PUSH1 0x20 DUP1 PUSH1 0x3 NOT CALLDATASIZE ADD SLT PUSH2 0x229 JUMPI PUSH1 0x4 CALLDATALOAD SWAP1 PUSH2 0x164 PUSH1 0x1 PUSH1 0x1 PUSH1 0xA0 SHL SUB PUSH2 0x15C DUP5 PUSH2 0x1BE7 JUMP JUMPDEST AND ISZERO ISZERO PUSH2 0x1D7F JUMP JUMPDEST DUP2 PUSH1 0x0 MSTORE PUSH1 0xA DUP2 MSTORE PUSH1 0x5 PUSH1 0x40 PUSH1 0x0 KECCAK256 ADD PUSH2 0x17E DUP2 SLOAD PUSH2 0x1D70 JUMP JUMPDEST SWAP1 SSTORE DUP2 PUSH1 0x0 MSTORE PUSH1 0xA DUP2 MSTORE PUSH1 0x40 PUSH1 0x0 KECCAK256 SWAP1 PUSH1 0x5 DUP3 ADD SLOAD SWAP2 PUSH1 0xA DUP4 MUL SWAP3 DUP1 DUP5 DIV PUSH1 0xA EQ SWAP1 ISZERO OR ISZERO PUSH2 0x213 JUMPI PUSH32 0xBF72494ABEB41EBCBEBB2336BEA955F18098FF14BC9264D4AB666168B67AF0B3 DUP3 DUP5 PUSH32 0x2E2699C09F8992C0D6290F13906BC2EE1123DA7FCB3A7524E043593857094766 SWAP6 PUSH1 0x6 DUP9 SWAP6 ADD SSTORE PUSH1 0x40 MLOAD SWAP1 DUP2 MSTORE LOG2 DUP3 PUSH1 0x0 MSTORE PUSH1 0xA DUP2 MSTORE PUSH1 0x5 PUSH1 0x40 PUSH1 0x0 KECCAK256 ADD SLOAD PUSH1 0x40 MLOAD SWAP1 DUP2 MSTORE LOG2 STOP JUMPDEST PUSH4 0x4E487B71 PUSH1 0xE0 SHL PUSH1 0x0 MSTORE PUSH1 0x11 PUSH1 0x4 MSTORE PUSH1 0x24 PUSH1 0x0 REVERT JUMPDEST PUSH1 0x0 DUP1 REVERT JUMPDEST CALLVALUE PUSH2 0x229 JUMPI PUSH1 0x20 CALLDATASIZE PUSH1 0x3 NOT ADD SLT PUSH2 0x229 JUMPI PUSH2 0x247 PUSH2 0x17EF JUMP JUMPDEST PUSH2 0x24F PUSH2 0x1A35 JUMP JUMPDEST PUSH1 0x1 PUSH1 0x1 PUSH1 0xA0 SHL SUB SWAP1 DUP2 AND SWAP1 DUP2 ISZERO PUSH2 0x2A3 JUMPI PUSH1 0x7 SLOAD DUP3 PUSH12 0xFFFFFFFFFFFFFFFFFFFFFFFF PUSH1 0xA0 SHL DUP3 AND OR PUSH1 0x7 SSTORE AND PUSH32 0x8BE0079C531659141344CD1FD0A4F28419497F9722A3DAAFE3B4186F6B6457E0 PUSH1 0x0 DUP1 LOG3 STOP JUMPDEST PUSH1 0x40 MLOAD PUSH4 0x1E4FBDF7 PUSH1 0xE0 SHL DUP2 MSTORE PUSH1 0x0 PUSH1 0x4 DUP3 ADD MSTORE PUSH1 0x24 SWAP1 REVERT JUMPDEST CALLVALUE PUSH2 0x229 JUMPI PUSH1 0x40 CALLDATASIZE PUSH1 0x3 NOT ADD SLT PUSH2 0x229 JUMPI PUSH2 0x2D5 PUSH2 0x17EF JUMP JUMPDEST PUSH2 0x2DD PUSH2 0x1805 JUMP JUMPDEST SWAP1 PUSH1 0x1 DUP1 PUSH1 0xA0 SHL SUB DUP1 SWAP2 AND PUSH1 0x0 MSTORE PUSH1 0x5 PUSH1 0x20 MSTORE PUSH1 0x40 PUSH1 0x0 KECCAK256 SWAP2 AND PUSH1 0x0 MSTORE PUSH1 0x20 MSTORE PUSH1 0x20 PUSH1 0xFF PUSH1 0x40 PUSH1 0x0 KECCAK256 SLOAD AND PUSH1 0x40 MLOAD SWAP1 ISZERO ISZERO DUP2 MSTORE RETURN JUMPDEST CALLVALUE PUSH2 0x229 JUMPI PUSH1 0x20 CALLDATASIZE PUSH1 0x3 NOT ADD SLT PUSH2 0x229 JUMPI PUSH1 0x4 CALLDATALOAD PUSH2 0x32F DUP2 PUSH2 0x1BE7 JUMP JUMPDEST POP PUSH1 0x0 MSTORE PUSH1 0x6 PUSH1 0x20 MSTORE PUSH2 0x36B PUSH2 0x348 PUSH1 0x40 PUSH1 0x0 KECCAK256 PUSH2 0x18AD JUMP JUMPDEST PUSH1 0x0 PUSH1 0x40 MLOAD PUSH2 0x356 DUP2 PUSH2 0x1871 JUMP JUMPDEST MSTORE PUSH1 0x40 MLOAD SWAP2 DUP3 SWAP2 PUSH1 0x20 DUP4 MSTORE PUSH1 0x20 DUP4 ADD SWAP1 PUSH2 0x17CA JUMP JUMPDEST SUB SWAP1 RETURN JUMPDEST CALLVALUE PUSH2 0x229 JUMPI PUSH1 0x80 CALLDATASIZE PUSH1 0x3 NOT ADD SLT PUSH2 0x229 JUMPI PUSH2 0x388 PUSH2 0x17EF JUMP JUMPDEST PUSH2 0x390 PUSH2 0x1805 JUMP JUMPDEST SWAP1 PUSH1 0x44 CALLDATALOAD PUSH1 0x64 CALLDATALOAD SWAP3 PUSH1 0x1 PUSH1 0x1 PUSH1 0x40 SHL SUB DUP5 GT PUSH2 0x229 JUMPI CALLDATASIZE PUSH1 0x23 DUP6 ADD SLT ISZERO PUSH2 0x229 JUMPI PUSH2 0x3C8 PUSH2 0x3DA SWAP5 CALLDATASIZE SWAP1 PUSH1 0x24 DUP2 PUSH1 0x4 ADD CALLDATALOAD SWAP2 ADD PUSH2 0x19D1 JUMP JUMPDEST SWAP3 PUSH2 0x3D4 DUP4 DUP4 DUP4 PUSH2 0x1A61 JUMP JUMPDEST CALLER PUSH2 0x1C22 JUMP JUMPDEST STOP JUMPDEST CALLVALUE PUSH2 0x229 JUMPI PUSH1 0x40 CALLDATASIZE PUSH1 0x3 NOT ADD SLT PUSH2 0x229 JUMPI PUSH2 0x3F5 PUSH2 0x17EF JUMP JUMPDEST PUSH2 0x3FD PUSH2 0x1A26 JUMP JUMPDEST PUSH1 0x1 PUSH1 0x1 PUSH1 0xA0 SHL SUB SWAP1 SWAP2 AND SWAP1 DUP2 ISZERO PUSH2 0x46E JUMPI CALLER PUSH1 0x0 MSTORE PUSH1 0x5 PUSH1 0x20 MSTORE PUSH1 0x40 PUSH1 0x0 KECCAK256 DUP3 PUSH1 0x0 MSTORE PUSH1 0x20 MSTORE PUSH2 0x43E DUP2 PUSH1 0x40 PUSH1 0x0 KECCAK256 SWAP1 PUSH1 0xFF DUP1 NOT DUP4 SLOAD AND SWAP2 ISZERO ISZERO AND OR SWAP1 SSTORE JUMP JUMPDEST PUSH1 0x40 MLOAD SWAP1 ISZERO ISZERO DUP2 MSTORE PUSH32 0x17307EAB39AB6107E8899845AD3D59BD9653F200F220920489CA2B5937696C31 PUSH1 0x20 CALLER SWAP3 LOG3 STOP JUMPDEST PUSH1 0x40 MLOAD PUSH4 0xB611743 PUSH1 0xE3 SHL DUP2 MSTORE PUSH1 0x4 DUP2 ADD DUP4 SWAP1 MSTORE PUSH1 0x24 SWAP1 REVERT JUMPDEST CALLVALUE PUSH2 0x229 JUMPI PUSH1 0x20 CALLDATASIZE PUSH1 0x3 NOT ADD SLT PUSH2 0x229 JUMPI PUSH1 0x4 CALLDATALOAD PUSH1 0x1 PUSH1 0x1 PUSH1 0x40 SHL SUB DUP2 GT PUSH2 0x229 JUMPI PUSH2 0x4D0 PUSH1 0x20 PUSH2 0x4BD DUP2 SWAP4 CALLDATASIZE SWAP1 PUSH1 0x4 ADD PUSH2 0x1A08 JUMP JUMPDEST DUP2 PUSH1 0x40 MLOAD SWAP4 DUP3 DUP6 DUP1 SWAP5 MLOAD SWAP4 DUP5 SWAP3 ADD PUSH2 0x17A7 JUMP JUMPDEST DUP2 ADD PUSH1 0xC DUP2 MSTORE SUB ADD SWAP1 KECCAK256 SLOAD PUSH1 0x40 MLOAD SWAP1 DUP2 MSTORE RETURN JUMPDEST CALLVALUE PUSH2 0x229 JUMPI PUSH1 0x20 DUP1 PUSH1 0x3 NOT CALLDATASIZE ADD SLT PUSH2 0x229 JUMPI PUSH2 0x602 PUSH1 0x4 CALLDATALOAD SWAP2 PUSH1 0x40 MLOAD SWAP1 PUSH2 0x509 DUP3 PUSH2 0x1855 JUMP JUMPDEST PUSH1 0x0 PUSH1 0xE0 PUSH1 0x60 SWAP4 DUP5 DUP2 MSTORE DUP5 DUP5 DUP3 ADD MSTORE DUP3 PUSH1 0x40 DUP3 ADD MSTORE DUP3 DUP6 DUP3 ADD MSTORE DUP5 PUSH1 0x80 DUP3 ADD MSTORE DUP3 PUSH1 0xA0 DUP3 ADD MSTORE DUP3 PUSH1 0xC0 DUP3 ADD MSTORE ADD MSTORE PUSH1 0x1 DUP1 PUSH1 0xA0 SHL SUB SWAP4 PUSH2 0x54C DUP6 PUSH2 0x15C DUP4 PUSH2 0x1BE7 JUMP JUMPDEST PUSH1 0x0 MSTORE PUSH1 0xA DUP2 MSTORE PUSH1 0x40 PUSH1 0x0 KECCAK256 SWAP4 PUSH1 0x40 MLOAD SWAP5 PUSH2 0x566 DUP7 PUSH2 0x1855 JUMP JUMPDEST PUSH2 0x56F DUP2 PUSH2 0x18AD JUMP JUMPDEST DUP7 MSTORE PUSH2 0x634 PUSH2 0x580 PUSH1 0x1 DUP4 ADD PUSH2 0x18AD JUMP JUMPDEST SWAP7 DUP5 DUP2 ADD SWAP8 DUP9 MSTORE DUP4 PUSH1 0x2 DUP5 ADD SLOAD AND SWAP1 PUSH1 0x40 DUP2 ADD SWAP2 DUP3 MSTORE PUSH1 0x3 DUP5 ADD SLOAD DUP8 DUP3 ADD SWAP1 DUP2 MSTORE PUSH2 0x5AD PUSH1 0x4 DUP7 ADD PUSH2 0x18AD JUMP JUMPDEST SWAP1 PUSH1 0x80 DUP4 ADD SWAP2 DUP3 MSTORE PUSH1 0x5 DUP7 ADD SLOAD SWAP9 PUSH1 0xA0 DUP5 ADD SWAP10 DUP11 MSTORE PUSH1 0xFF PUSH1 0x7 PUSH1 0x6 DUP10 ADD SLOAD SWAP9 PUSH1 0xC0 DUP8 ADD SWAP10 DUP11 MSTORE ADD SLOAD AND SWAP8 PUSH1 0xE0 DUP6 ADD SWAP9 ISZERO ISZERO DUP10 MSTORE PUSH2 0x617 PUSH1 0x40 MLOAD SWAP14 DUP15 SWAP14 DUP15 SWAP8 DUP14 DUP10 MSTORE MLOAD PUSH2 0x100 DUP1 SWAP15 DUP11 ADD MSTORE PUSH2 0x120 DUP10 ADD SWAP1 PUSH2 0x17CA JUMP JUMPDEST SWAP1 MLOAD PUSH1 0x1F NOT SWAP8 PUSH1 0x40 DUP10 DUP3 DUP6 SUB ADD SWAP2 ADD MSTORE PUSH2 0x17CA JUMP JUMPDEST SWAP6 MLOAD AND SWAP1 DUP12 ADD MSTORE MLOAD PUSH1 0x80 DUP11 ADD MSTORE MLOAD SWAP1 DUP9 DUP4 SUB ADD PUSH1 0xA0 DUP10 ADD MSTORE PUSH2 0x17CA JUMP JUMPDEST SWAP4 MLOAD PUSH1 0xC0 DUP7 ADD MSTORE MLOAD PUSH1 0xE0 DUP6 ADD MSTORE MLOAD ISZERO ISZERO SWAP1 DUP4 ADD MSTORE SUB SWAP1 RETURN JUMPDEST CALLVALUE PUSH2 0x229 JUMPI PUSH1 0x0 CALLDATASIZE PUSH1 0x3 NOT ADD SLT PUSH2 0x229 JUMPI PUSH1 0x40 MLOAD PUSH1 0x0 PUSH1 0x1 DUP1 SLOAD SWAP1 PUSH2 0x670 DUP3 PUSH2 0x181B JUMP JUMPDEST DUP1 DUP6 MSTORE SWAP2 DUP2 DUP2 AND SWAP1 DUP2 ISZERO PUSH2 0x704 JUMPI POP PUSH1 0x1 EQ PUSH2 0x6AB JUMPI JUMPDEST PUSH2 0x36B DUP5 PUSH2 0x697 DUP2 DUP7 SUB DUP3 PUSH2 0x188C JUMP JUMPDEST PUSH1 0x40 MLOAD SWAP2 DUP3 SWAP2 PUSH1 0x20 DUP4 MSTORE PUSH1 0x20 DUP4 ADD SWAP1 PUSH2 0x17CA JUMP JUMPDEST PUSH1 0x0 DUP2 DUP2 MSTORE SWAP3 POP PUSH32 0xB10E2D527612073B26EECDFD717E6A320CF44B4AFAC2B0732D9FCBE2B7FA0CF6 JUMPDEST DUP3 DUP5 LT PUSH2 0x6EC JUMPI POP POP POP DUP2 ADD PUSH1 0x20 ADD PUSH2 0x697 DUP3 PUSH2 0x687 JUMP JUMPDEST DUP1 SLOAD PUSH1 0x20 DUP6 DUP8 ADD DUP2 ADD SWAP2 SWAP1 SWAP2 MSTORE SWAP1 SWAP4 ADD SWAP3 DUP2 ADD PUSH2 0x6D4 JUMP JUMPDEST PUSH1 0xFF NOT AND PUSH1 0x20 DUP1 DUP8 ADD SWAP2 SWAP1 SWAP2 MSTORE SWAP3 ISZERO ISZERO PUSH1 0x5 SHL DUP6 ADD SWAP1 SWAP3 ADD SWAP3 POP PUSH2 0x697 SWAP2 POP DUP4 SWAP1 POP PUSH2 0x687 JUMP JUMPDEST CALLVALUE PUSH2 0x229 JUMPI PUSH1 0x0 CALLDATASIZE PUSH1 0x3 NOT ADD SLT PUSH2 0x229 JUMPI PUSH1 0x7 SLOAD PUSH1 0x40 MLOAD PUSH1 0x1 PUSH1 0x1 PUSH1 0xA0 SHL SUB SWAP1 SWAP2 AND DUP2 MSTORE PUSH1 0x20 SWAP1 RETURN JUMPDEST CALLVALUE PUSH2 0x229 JUMPI PUSH1 0x0 CALLDATASIZE PUSH1 0x3 NOT ADD SLT PUSH2 0x229 JUMPI PUSH2 0x76D PUSH2 0x1A35 JUMP JUMPDEST PUSH1 0x7 DUP1 SLOAD PUSH1 0x1 PUSH1 0x1 PUSH1 0xA0 SHL SUB NOT DUP2 AND SWAP1 SWAP2 SSTORE PUSH1 0x0 SWAP1 PUSH1 0x1 PUSH1 0x1 PUSH1 0xA0 SHL SUB AND PUSH32 0x8BE0079C531659141344CD1FD0A4F28419497F9722A3DAAFE3B4186F6B6457E0 DUP3 DUP1 LOG3 STOP JUMPDEST CALLVALUE PUSH2 0x229 JUMPI PUSH1 0x20 CALLDATASIZE PUSH1 0x3 NOT ADD SLT PUSH2 0x229 JUMPI PUSH1 0x1 PUSH1 0x1 PUSH1 0xA0 SHL SUB PUSH2 0x7D2 PUSH2 0x17EF JUMP JUMPDEST AND DUP1 ISZERO PUSH2 0x7F1 JUMPI PUSH1 0x0 MSTORE PUSH1 0x3 PUSH1 0x20 MSTORE PUSH1 0x20 PUSH1 0x40 PUSH1 0x0 KECCAK256 SLOAD PUSH1 0x40 MLOAD SWAP1 DUP2 MSTORE RETURN JUMPDEST PUSH1 0x40 MLOAD PUSH4 0x22718AD9 PUSH1 0xE2 SHL DUP2 MSTORE PUSH1 0x0 PUSH1 0x4 DUP3 ADD MSTORE PUSH1 0x24 SWAP1 REVERT JUMPDEST CALLVALUE PUSH2 0x229 JUMPI PUSH1 0x20 CALLDATASIZE PUSH1 0x3 NOT ADD SLT PUSH2 0x229 JUMPI PUSH1 0x20 PUSH2 0x828 PUSH1 0x4 CALLDATALOAD PUSH2 0x1BE7 JUMP JUMPDEST PUSH1 0x40 MLOAD PUSH1 0x1 PUSH1 0x1 PUSH1 0xA0 SHL SUB SWAP1 SWAP2 AND DUP2 MSTORE RETURN JUMPDEST CALLVALUE PUSH2 0x229 JUMPI PUSH1 0x40 CALLDATASIZE PUSH1 0x3 NOT ADD SLT PUSH2 0x229 JUMPI PUSH1 0x4 CALLDATALOAD PUSH32 0x4727B85A09E6CA94A7E26B46423373A951492773E32FBEFDE21A3CA644830351 PUSH1 0x20 PUSH2 0x879 PUSH2 0x1A26 JUMP JUMPDEST PUSH2 0x881 PUSH2 0x1A35 JUMP JUMPDEST PUSH2 0x895 PUSH1 0x1 PUSH1 0x1 PUSH1 0xA0 SHL SUB PUSH2 0x15C DUP7 PUSH2 0x1BE7 JUMP JUMPDEST DUP4 PUSH1 0x0 MSTORE PUSH1 0xA DUP3 MSTORE PUSH2 0x8BA DUP2 PUSH1 0x7 PUSH1 0x40 PUSH1 0x0 KECCAK256 ADD SWAP1 PUSH1 0xFF DUP1 NOT DUP4 SLOAD AND SWAP2 ISZERO ISZERO AND OR SWAP1 SSTORE JUMP JUMPDEST PUSH1 0x40 MLOAD SWAP1 ISZERO ISZERO DUP2 MSTORE LOG2 STOP JUMPDEST CALLVALUE PUSH2 0x229 JUMPI PUSH1 0xA0 CALLDATASIZE PUSH1 0x3 NOT ADD SLT PUSH2 0x229 JUMPI PUSH2 0x8DE PUSH2 0x17EF JUMP JUMPDEST PUSH1 0x24 CALLDATALOAD PUSH1 0x1 PUSH1 0x1 PUSH1 0x40 SHL SUB DUP2 GT PUSH2 0x229 JUMPI PUSH2 0x8FD SWAP1 CALLDATASIZE SWAP1 PUSH1 0x4 ADD PUSH2 0x1A08 JUMP JUMPDEST SWAP1 PUSH1 0x44 CALLDATALOAD PUSH1 0x1 PUSH1 0x1 PUSH1 0x40 SHL SUB DUP2 GT PUSH2 0x229 JUMPI PUSH2 0x91D SWAP1 CALLDATASIZE SWAP1 PUSH1 0x4 ADD PUSH2 0x1A08 JUMP JUMPDEST PUSH1 0x64 CALLDATALOAD PUSH1 0x1 PUSH1 0x1 PUSH1 0x40 SHL SUB DUP2 GT PUSH2 0x229 JUMPI PUSH2 0x93C SWAP1 CALLDATASIZE SWAP1 PUSH1 0x4 ADD PUSH2 0x1A08 JUMP JUMPDEST SWAP2 PUSH1 0x84 CALLDATALOAD PUSH1 0x1 PUSH1 0x1 PUSH1 0x40 SHL SUB DUP2 GT PUSH2 0x229 JUMPI PUSH2 0x95C SWAP1 CALLDATASIZE SWAP1 PUSH1 0x4 ADD PUSH2 0x1A08 JUMP JUMPDEST SWAP2 PUSH1 0x2 PUSH1 0x8 SLOAD EQ PUSH2 0x1306 JUMPI PUSH1 0x2 PUSH1 0x8 SSTORE DUP5 MLOAD ISZERO PUSH2 0x12C9 JUMPI PUSH1 0x40 MLOAD PUSH1 0x20 DUP2 DUP8 MLOAD PUSH2 0x988 DUP2 DUP4 DUP6 DUP13 ADD PUSH2 0x17A7 JUMP JUMPDEST DUP2 ADD PUSH1 0xC DUP2 MSTORE SUB ADD SWAP1 KECCAK256 SLOAD PUSH2 0x1274 JUMPI PUSH1 0x9 SLOAD SWAP4 PUSH2 0x9A4 DUP6 PUSH2 0x1D70 JUMP JUMPDEST PUSH1 0x9 SSTORE PUSH1 0x40 MLOAD PUSH2 0x9B3 DUP2 PUSH2 0x1871 JUMP JUMPDEST PUSH1 0x0 DUP2 MSTORE PUSH1 0x1 PUSH1 0x1 PUSH1 0xA0 SHL SUB DUP5 AND ISZERO PUSH2 0x125B JUMPI PUSH1 0x0 DUP7 DUP2 MSTORE PUSH1 0x2 PUSH1 0x20 MSTORE PUSH1 0x40 SWAP1 KECCAK256 SLOAD PUSH1 0x1 PUSH1 0x1 PUSH1 0xA0 SHL SUB AND DUP1 PUSH2 0x1224 JUMPI JUMPDEST PUSH1 0x1 PUSH1 0x1 PUSH1 0xA0 SHL SUB DUP6 AND PUSH1 0x0 DUP2 DUP2 MSTORE PUSH1 0x3 PUSH1 0x20 SWAP1 DUP2 MSTORE PUSH1 0x40 DUP1 DUP4 KECCAK256 DUP1 SLOAD PUSH1 0x1 ADD SWAP1 SSTORE DUP11 DUP4 MSTORE PUSH1 0x2 SWAP1 SWAP2 MSTORE DUP2 KECCAK256 DUP1 SLOAD PUSH1 0x1 PUSH1 0x1 PUSH1 0xA0 SHL SUB NOT AND DUP4 OR SWAP1 SSTORE DUP9 SWAP2 SWAP1 DUP4 SWAP1 PUSH32 0xDDF252AD1BE2C89B69C2B068FC378DAA952BA7F163C4A11628F55A4DF523B3EF SWAP1 DUP1 LOG4 PUSH2 0x120B JUMPI DUP4 EXTCODESIZE PUSH2 0x10C0 JUMPI JUMPDEST POP DUP5 PUSH1 0x0 MSTORE PUSH1 0x6 PUSH1 0x20 MSTORE PUSH1 0x40 PUSH1 0x0 KECCAK256 SWAP1 DUP1 MLOAD SWAP1 PUSH1 0x1 PUSH1 0x1 PUSH1 0x40 SHL SUB DUP3 GT PUSH2 0xD81 JUMPI DUP2 SWAP1 PUSH2 0xA81 DUP5 SLOAD PUSH2 0x181B JUMP JUMPDEST PUSH1 0x1F DUP2 GT PUSH2 0x1070 JUMPI JUMPDEST POP PUSH1 0x20 SWAP1 PUSH1 0x1F DUP4 GT PUSH1 0x1 EQ PUSH2 0x1004 JUMPI PUSH1 0x0 SWAP3 PUSH2 0xFF9 JUMPI JUMPDEST POP POP DUP2 PUSH1 0x1 SHL SWAP2 PUSH1 0x0 NOT SWAP1 PUSH1 0x3 SHL SHR NOT AND OR SWAP1 SSTORE JUMPDEST PUSH32 0xF8E1A15ABA9398E019F0B49DF1A4FDE98EE17AE345CB5F6B5E2C27F5033E8CE7 PUSH1 0x20 PUSH1 0x40 MLOAD DUP7 DUP2 MSTORE LOG1 PUSH1 0x40 MLOAD SWAP1 PUSH2 0xAED DUP3 PUSH2 0x1855 JUMP JUMPDEST DUP6 DUP3 MSTORE PUSH1 0x20 DUP3 ADD MSTORE PUSH1 0x1 DUP1 PUSH1 0xA0 SHL SUB DUP3 AND PUSH1 0x40 DUP3 ADD MSTORE TIMESTAMP PUSH1 0x60 DUP3 ADD MSTORE DUP3 PUSH1 0x80 DUP3 ADD MSTORE PUSH1 0x0 PUSH1 0xA0 DUP3 ADD MSTORE PUSH1 0x0 PUSH1 0xC0 DUP3 ADD MSTORE PUSH1 0x0 PUSH1 0xE0 DUP3 ADD MSTORE DUP4 PUSH1 0x0 MSTORE PUSH1 0xA PUSH1 0x20 MSTORE PUSH1 0x40 PUSH1 0x0 KECCAK256 SWAP1 DUP1 MLOAD DUP1 MLOAD SWAP1 PUSH1 0x1 PUSH1 0x1 PUSH1 0x40 SHL SUB DUP3 GT PUSH2 0xD81 JUMPI DUP2 SWAP1 PUSH2 0xB52 DUP6 SLOAD PUSH2 0x181B JUMP JUMPDEST PUSH1 0x1F DUP2 GT PUSH2 0xFA9 JUMPI JUMPDEST POP PUSH1 0x20 SWAP1 PUSH1 0x1F DUP4 GT PUSH1 0x1 EQ PUSH2 0xF3D JUMPI PUSH1 0x0 SWAP3 PUSH2 0xF32 JUMPI JUMPDEST POP POP DUP2 PUSH1 0x1 SHL SWAP2 PUSH1 0x0 NOT SWAP1 PUSH1 0x3 SHL SHR NOT AND OR DUP3 SSTORE JUMPDEST PUSH1 0x20 DUP2 ADD MLOAD DUP1 MLOAD SWAP1 PUSH1 0x1 PUSH1 0x1 PUSH1 0x40 SHL SUB DUP3 GT PUSH2 0xD81 JUMPI DUP2 SWAP1 PUSH2 0xBAC PUSH1 0x1 DUP7 ADD SLOAD PUSH2 0x181B JUMP JUMPDEST PUSH1 0x1F DUP2 GT PUSH2 0xEDF JUMPI JUMPDEST POP PUSH1 0x20 SWAP1 PUSH1 0x1F DUP4 GT PUSH1 0x1 EQ PUSH2 0xE6D JUMPI PUSH1 0x0 SWAP3 PUSH2 0xE62 JUMPI JUMPDEST POP POP DUP2 PUSH1 0x1 SHL SWAP2 PUSH1 0x0 NOT SWAP1 PUSH1 0x3 SHL SHR NOT AND OR PUSH1 0x1 DUP4 ADD SSTORE JUMPDEST PUSH1 0x2 DUP3 ADD PUSH1 0x1 DUP1 PUSH1 0xA0 SHL SUB PUSH1 0x40 DUP4 ADD MLOAD AND PUSH12 0xFFFFFFFFFFFFFFFFFFFFFFFF PUSH1 0xA0 SHL DUP3 SLOAD AND OR SWAP1 SSTORE PUSH1 0x60 DUP2 ADD MLOAD PUSH1 0x3 DUP4 ADD SSTORE PUSH1 0x80 DUP2 ADD MLOAD DUP1 MLOAD SWAP1 PUSH1 0x1 PUSH1 0x1 PUSH1 0x40 SHL SUB DUP3 GT PUSH2 0xD81 JUMPI PUSH2 0xC38 PUSH1 0x4 DUP6 ADD SLOAD PUSH2 0x181B JUMP JUMPDEST PUSH1 0x1F DUP2 GT PUSH2 0xE1B JUMPI JUMPDEST POP PUSH1 0x20 SWAP1 PUSH1 0x1F DUP4 GT PUSH1 0x1 EQ PUSH2 0xDA2 JUMPI SWAP3 DUP3 PUSH1 0x7 SWAP4 PUSH1 0xE0 SWAP4 PUSH2 0xCA8 SWAP8 SWAP7 PUSH1 0x0 SWAP3 PUSH2 0xD97 JUMPI JUMPDEST POP POP DUP2 PUSH1 0x1 SHL SWAP2 PUSH1 0x0 NOT SWAP1 PUSH1 0x3 SHL SHR NOT AND OR PUSH1 0x4 DUP6 ADD SSTORE JUMPDEST PUSH1 0xA0 DUP2 ADD MLOAD PUSH1 0x5 DUP6 ADD SSTORE PUSH1 0xC0 DUP2 ADD MLOAD PUSH1 0x6 DUP6 ADD SSTORE ADD MLOAD ISZERO ISZERO SWAP2 ADD SWAP1 PUSH1 0xFF DUP1 NOT DUP4 SLOAD AND SWAP2 ISZERO ISZERO AND OR SWAP1 SSTORE JUMP JUMPDEST DUP3 PUSH1 0x40 MLOAD PUSH1 0x20 DUP2 DUP8 MLOAD PUSH2 0xCBE DUP2 DUP4 DUP6 DUP13 ADD PUSH2 0x17A7 JUMP JUMPDEST DUP2 ADD PUSH1 0xC DUP2 MSTORE SUB ADD SWAP1 KECCAK256 SSTORE PUSH1 0x1 DUP1 PUSH1 0xA0 SHL SUB DUP2 AND PUSH1 0x0 MSTORE PUSH1 0xB PUSH1 0x20 MSTORE PUSH1 0x40 PUSH1 0x0 KECCAK256 SWAP1 DUP2 SLOAD SWAP2 PUSH9 0x10000000000000000 DUP4 LT ISZERO PUSH2 0xD81 JUMPI PUSH1 0x20 SWAP6 PUSH2 0xD71 PUSH32 0xC1DEF36EF14836E9B195F50C1FBC0B8035E8C6C472625326C1ADD6BB08CCD76 SWAP4 PUSH2 0xD30 DUP7 PUSH2 0xD59 SWAP6 PUSH1 0x1 DUP12 SWAP10 ADD DUP2 SSTORE PUSH2 0x1988 JUMP JUMPDEST DUP2 SLOAD SWAP1 PUSH1 0x3 SHL SWAP1 DUP9 DUP3 SHL SWAP2 PUSH1 0x0 NOT SWAP1 SHL NOT AND OR SWAP1 SSTORE PUSH1 0x40 MLOAD SWAP4 DUP5 SWAP4 PUSH1 0x40 DUP6 MSTORE PUSH1 0x40 DUP6 ADD SWAP1 PUSH2 0x17CA JUMP JUMPDEST DUP4 DUP2 SUB DUP11 DUP6 ADD MSTORE PUSH1 0x1 PUSH1 0x1 PUSH1 0xA0 SHL SUB SWAP1 SWAP2 AND SWAP7 PUSH2 0x17CA JUMP JUMPDEST SUB SWAP1 LOG3 PUSH1 0x1 PUSH1 0x8 SSTORE PUSH1 0x40 MLOAD SWAP1 DUP2 MSTORE RETURN JUMPDEST PUSH4 0x4E487B71 PUSH1 0xE0 SHL PUSH1 0x0 MSTORE PUSH1 0x41 PUSH1 0x4 MSTORE PUSH1 0x24 PUSH1 0x0 REVERT JUMPDEST ADD MLOAD SWAP1 POP DUP12 DUP1 PUSH2 0xC65 JUMP JUMPDEST SWAP1 PUSH1 0x4 DUP6 ADD PUSH1 0x0 MSTORE PUSH1 0x20 PUSH1 0x0 KECCAK256 SWAP2 PUSH1 0x0 JUMPDEST PUSH1 0x1F NOT DUP6 AND DUP2 LT PUSH2 0xE03 JUMPI POP DUP4 PUSH1 0xE0 SWAP4 PUSH2 0xCA8 SWAP8 SWAP7 SWAP4 PUSH1 0x1 SWAP4 PUSH1 0x7 SWAP8 PUSH1 0x1F NOT DUP2 AND LT PUSH2 0xDEA JUMPI JUMPDEST POP POP POP DUP2 SHL ADD PUSH1 0x4 DUP6 ADD SSTORE PUSH2 0xC7D JUMP JUMPDEST ADD MLOAD PUSH1 0x0 NOT PUSH1 0xF8 DUP5 PUSH1 0x3 SHL AND SHR NOT AND SWAP1 SSTORE DUP12 DUP1 DUP1 PUSH2 0xDDA JUMP JUMPDEST SWAP2 SWAP3 PUSH1 0x20 PUSH1 0x1 DUP2 SWAP3 DUP7 DUP6 ADD MLOAD DUP2 SSTORE ADD SWAP5 ADD SWAP3 ADD PUSH2 0xDB3 JUMP JUMPDEST PUSH1 0x4 DUP6 ADD PUSH1 0x0 MSTORE PUSH1 0x20 PUSH1 0x0 KECCAK256 PUSH1 0x1F DUP5 ADD PUSH1 0x5 SHR DUP2 ADD PUSH1 0x20 DUP6 LT PUSH2 0xE5B JUMPI JUMPDEST PUSH1 0x1F DUP4 ADD PUSH1 0x5 SHR DUP3 ADD DUP2 LT PUSH2 0xE4F JUMPI POP POP PUSH2 0xC41 JUMP JUMPDEST PUSH1 0x0 DUP2 SSTORE PUSH1 0x1 ADD PUSH2 0xE39 JUMP JUMPDEST POP DUP1 PUSH2 0xE39 JUMP JUMPDEST ADD MLOAD SWAP1 POP DUP9 DUP1 PUSH2 0xBCC JUMP JUMPDEST SWAP3 POP PUSH1 0x1 DUP6 ADD PUSH1 0x0 MSTORE PUSH1 0x20 PUSH1 0x0 KECCAK256 SWAP1 PUSH1 0x0 SWAP4 JUMPDEST PUSH1 0x1F NOT DUP5 AND DUP6 LT PUSH2 0xEC4 JUMPI PUSH1 0x1 SWAP5 POP DUP4 PUSH1 0x1F NOT DUP2 AND LT PUSH2 0xEAB JUMPI JUMPDEST POP POP POP DUP2 SHL ADD PUSH1 0x1 DUP4 ADD SSTORE PUSH2 0xBE4 JUMP JUMPDEST ADD MLOAD PUSH1 0x0 NOT PUSH1 0xF8 DUP5 PUSH1 0x3 SHL AND SHR NOT AND SWAP1 SSTORE DUP9 DUP1 DUP1 PUSH2 0xE9B JUMP JUMPDEST DUP2 DUP2 ADD MLOAD DUP4 SSTORE PUSH1 0x20 SWAP5 DUP6 ADD SWAP5 PUSH1 0x1 SWAP1 SWAP4 ADD SWAP3 SWAP1 SWAP2 ADD SWAP1 PUSH2 0xE80 JUMP JUMPDEST SWAP1 SWAP2 POP PUSH1 0x1 DUP6 ADD PUSH1 0x0 MSTORE PUSH1 0x20 PUSH1 0x0 KECCAK256 PUSH1 0x1F DUP5 ADD PUSH1 0x5 SHR DUP2 ADD PUSH1 0x20 DUP6 LT PUSH2 0xF2B JUMPI JUMPDEST SWAP1 DUP5 SWAP4 SWAP3 SWAP2 JUMPDEST PUSH1 0x1F DUP4 ADD PUSH1 0x5 SHR DUP3 ADD DUP2 LT PUSH2 0xF1C JUMPI POP POP PUSH2 0xBB5 JUMP JUMPDEST PUSH1 0x0 DUP2 SSTORE DUP6 SWAP5 POP PUSH1 0x1 ADD PUSH2 0xF06 JUMP JUMPDEST POP DUP1 PUSH2 0xF00 JUMP JUMPDEST ADD MLOAD SWAP1 POP DUP9 DUP1 PUSH2 0xB72 JUMP JUMPDEST SWAP3 POP DUP5 PUSH1 0x0 MSTORE PUSH1 0x20 PUSH1 0x0 KECCAK256 SWAP1 PUSH1 0x0 SWAP4 JUMPDEST PUSH1 0x1F NOT DUP5 AND DUP6 LT PUSH2 0xF8E JUMPI PUSH1 0x1 SWAP5 POP DUP4 PUSH1 0x1F NOT DUP2 AND LT PUSH2 0xF75 JUMPI JUMPDEST POP POP POP DUP2 SHL ADD DUP3 SSTORE PUSH2 0xB87 JUMP JUMPDEST ADD MLOAD PUSH1 0x0 NOT PUSH1 0xF8 DUP5 PUSH1 0x3 SHL AND SHR NOT AND SWAP1 SSTORE DUP9 DUP1 DUP1 PUSH2 0xF68 JUMP JUMPDEST DUP2 DUP2 ADD MLOAD DUP4 SSTORE PUSH1 0x20 SWAP5 DUP6 ADD SWAP5 PUSH1 0x1 SWAP1 SWAP4 ADD SWAP3 SWAP1 SWAP2 ADD SWAP1 PUSH2 0xF4D JUMP JUMPDEST SWAP1 SWAP2 POP DUP5 PUSH1 0x0 MSTORE PUSH1 0x20 PUSH1 0x0 KECCAK256 PUSH1 0x1F DUP5 ADD PUSH1 0x5 SHR DUP2 ADD PUSH1 0x20 DUP6 LT PUSH2 0xFF2 JUMPI JUMPDEST SWAP1 DUP5 SWAP4 SWAP3 SWAP2 JUMPDEST PUSH1 0x1F DUP4 ADD PUSH1 0x5 SHR DUP3 ADD DUP2 LT PUSH2 0xFE3 JUMPI POP POP PUSH2 0xB5B JUMP JUMPDEST PUSH1 0x0 DUP2 SSTORE DUP6 SWAP5 POP PUSH1 0x1 ADD PUSH2 0xFCD JUMP JUMPDEST POP DUP1 PUSH2 0xFC7 JUMP JUMPDEST ADD MLOAD SWAP1 POP DUP9 DUP1 PUSH2 0xAA1 JUMP JUMPDEST SWAP3 POP DUP4 PUSH1 0x0 MSTORE PUSH1 0x20 PUSH1 0x0 KECCAK256 SWAP1 PUSH1 0x0 SWAP4 JUMPDEST PUSH1 0x1F NOT DUP5 AND DUP6 LT PUSH2 0x1055 JUMPI PUSH1 0x1 SWAP5 POP DUP4 PUSH1 0x1F NOT DUP2 AND LT PUSH2 0x103C JUMPI JUMPDEST POP POP POP DUP2 SHL ADD SWAP1 SSTORE PUSH2 0xAB6 JUMP JUMPDEST ADD MLOAD PUSH1 0x0 NOT PUSH1 0xF8 DUP5 PUSH1 0x3 SHL AND SHR NOT AND SWAP1 SSTORE DUP9 DUP1 DUP1 PUSH2 0x102F JUMP JUMPDEST DUP2 DUP2 ADD MLOAD DUP4 SSTORE PUSH1 0x20 SWAP5 DUP6 ADD SWAP5 PUSH1 0x1 SWAP1 SWAP4 ADD SWAP3 SWAP1 SWAP2 ADD SWAP1 PUSH2 0x1014 JUMP JUMPDEST SWAP1 SWAP2 POP DUP4 PUSH1 0x0 MSTORE PUSH1 0x20 PUSH1 0x0 KECCAK256 PUSH1 0x1F DUP5 ADD PUSH1 0x5 SHR DUP2 ADD PUSH1 0x20 DUP6 LT PUSH2 0x10B9 JUMPI JUMPDEST SWAP1 DUP5 SWAP4 SWAP3 SWAP2 JUMPDEST PUSH1 0x1F DUP4 ADD PUSH1 0x5 SHR DUP3 ADD DUP2 LT PUSH2 0x10AA JUMPI POP POP PUSH2 0xA8A JUMP JUMPDEST PUSH1 0x0 DUP2 SSTORE DUP6 SWAP5 POP PUSH1 0x1 ADD PUSH2 0x1094 JUMP JUMPDEST POP DUP1 PUSH2 0x108E JUMP JUMPDEST PUSH1 0x20 PUSH2 0x1100 SWAP2 PUSH1 0x40 SWAP9 SWAP8 SWAP7 SWAP6 SWAP9 MLOAD DUP1 SWAP4 DUP2 SWAP3 PUSH4 0xA85BD01 PUSH1 0xE1 SHL DUP4 MSTORE CALLER PUSH1 0x4 DUP5 ADD MSTORE PUSH1 0x0 PUSH1 0x24 DUP5 ADD MSTORE DUP10 PUSH1 0x44 DUP5 ADD MSTORE PUSH1 0x80 PUSH1 0x64 DUP5 ADD MSTORE PUSH1 0x84 DUP4 ADD SWAP1 PUSH2 0x17CA JUMP JUMPDEST SUB DUP2 PUSH1 0x0 PUSH1 0x1 PUSH1 0x1 PUSH1 0xA0 SHL SUB DUP13 AND GAS CALL PUSH1 0x0 SWAP2 DUP2 PUSH2 0x11C6 JUMPI JUMPDEST POP PUSH2 0x1181 JUMPI DUP7 RETURNDATASIZE ISZERO PUSH2 0x1179 JUMPI RETURNDATASIZE SWAP1 PUSH2 0x1130 DUP3 PUSH2 0x19B6 JUMP JUMPDEST SWAP2 PUSH2 0x113E PUSH1 0x40 MLOAD SWAP4 DUP5 PUSH2 0x188C JUMP JUMPDEST DUP3 MSTORE RETURNDATASIZE PUSH1 0x0 PUSH1 0x20 DUP5 ADD RETURNDATACOPY JUMPDEST DUP2 MLOAD SWAP2 DUP3 PUSH2 0x1172 JUMPI PUSH1 0x40 MLOAD PUSH4 0x32505749 PUSH1 0xE1 SHL DUP2 MSTORE PUSH1 0x1 PUSH1 0x1 PUSH1 0xA0 SHL SUB DUP4 AND PUSH1 0x4 DUP3 ADD MSTORE PUSH1 0x24 SWAP1 REVERT JUMPDEST PUSH1 0x20 SWAP2 POP ADD REVERT JUMPDEST PUSH1 0x60 SWAP1 PUSH2 0x1149 JUMP JUMPDEST SWAP5 SWAP6 SWAP4 SWAP5 SWAP3 SWAP4 SWAP3 PUSH1 0x1 PUSH1 0x1 PUSH1 0xE0 SHL SUB NOT AND PUSH4 0x757A42FF PUSH1 0xE1 SHL ADD PUSH2 0x11A5 JUMPI DUP7 PUSH2 0xA54 JUMP JUMPDEST PUSH1 0x40 MLOAD PUSH4 0x32505749 PUSH1 0xE1 SHL DUP2 MSTORE PUSH1 0x1 PUSH1 0x1 PUSH1 0xA0 SHL SUB DUP5 AND PUSH1 0x4 DUP3 ADD MSTORE PUSH1 0x24 SWAP1 REVERT JUMPDEST SWAP1 SWAP2 POP PUSH1 0x20 DUP2 RETURNDATASIZE PUSH1 0x20 GT PUSH2 0x1203 JUMPI JUMPDEST DUP2 PUSH2 0x11E2 PUSH1 0x20 SWAP4 DUP4 PUSH2 0x188C JUMP JUMPDEST DUP2 ADD SUB SLT PUSH2 0x229 JUMPI MLOAD PUSH1 0x1 PUSH1 0x1 PUSH1 0xE0 SHL SUB NOT DUP2 AND DUP2 SUB PUSH2 0x229 JUMPI SWAP1 DUP9 PUSH2 0x1119 JUMP JUMPDEST RETURNDATASIZE SWAP2 POP PUSH2 0x11D5 JUMP JUMPDEST PUSH1 0x40 MLOAD PUSH4 0x39E35637 PUSH1 0xE1 SHL DUP2 MSTORE PUSH1 0x0 PUSH1 0x4 DUP3 ADD MSTORE PUSH1 0x24 SWAP1 REVERT JUMPDEST PUSH1 0x0 DUP8 DUP2 MSTORE PUSH1 0x4 PUSH1 0x20 MSTORE PUSH1 0x40 SWAP1 KECCAK256 DUP1 SLOAD PUSH1 0x1 PUSH1 0x1 PUSH1 0xA0 SHL SUB NOT AND SWAP1 SSTORE DUP1 PUSH1 0x0 MSTORE PUSH1 0x3 PUSH1 0x20 MSTORE PUSH1 0x40 PUSH1 0x0 KECCAK256 PUSH1 0x0 NOT DUP2 SLOAD ADD SWAP1 SSTORE PUSH2 0x9E4 JUMP JUMPDEST PUSH1 0x40 MLOAD PUSH4 0x32505749 PUSH1 0xE1 SHL DUP2 MSTORE PUSH1 0x0 PUSH1 0x4 DUP3 ADD MSTORE PUSH1 0x24 SWAP1 REVERT JUMPDEST PUSH1 0x40 MLOAD PUSH3 0x461BCD PUSH1 0xE5 SHL DUP2 MSTORE PUSH1 0x20 PUSH1 0x4 DUP3 ADD MSTORE PUSH1 0x27 PUSH1 0x24 DUP3 ADD MSTORE PUSH32 0x526573656172636820776974682074686973207469746C6520616C7265616479 PUSH1 0x44 DUP3 ADD MSTORE PUSH7 0x20657869737473 PUSH1 0xC8 SHL PUSH1 0x64 DUP3 ADD MSTORE PUSH1 0x84 SWAP1 REVERT JUMPDEST PUSH1 0x40 MLOAD PUSH3 0x461BCD PUSH1 0xE5 SHL DUP2 MSTORE PUSH1 0x20 PUSH1 0x4 DUP3 ADD MSTORE PUSH1 0x15 PUSH1 0x24 DUP3 ADD MSTORE PUSH21 0x5469746C652063616E6E6F7420626520656D707479 PUSH1 0x58 SHL PUSH1 0x44 DUP3 ADD MSTORE PUSH1 0x64 SWAP1 REVERT JUMPDEST PUSH1 0x40 MLOAD PUSH4 0x3EE5AEB5 PUSH1 0xE0 SHL DUP2 MSTORE PUSH1 0x4 SWAP1 REVERT JUMPDEST CALLVALUE PUSH2 0x229 JUMPI PUSH2 0x3DA PUSH2 0x1329 CALLDATASIZE PUSH2 0x1953 JUMP JUMPDEST SWAP1 PUSH1 0x40 MLOAD SWAP3 PUSH2 0x1337 DUP5 PUSH2 0x1871 JUMP JUMPDEST PUSH1 0x0 DUP5 MSTORE PUSH2 0x3D4 DUP4 DUP4 DUP4 PUSH2 0x1A61 JUMP JUMPDEST CALLVALUE PUSH2 0x229 JUMPI PUSH1 0x0 CALLDATASIZE PUSH1 0x3 NOT ADD SLT PUSH2 0x229 JUMPI PUSH1 0x9 SLOAD PUSH1 0x0 NOT DUP2 ADD SWAP1 DUP2 GT PUSH2 0x213 JUMPI PUSH1 0x20 SWAP1 PUSH1 0x40 MLOAD SWAP1 DUP2 MSTORE RETURN JUMPDEST CALLVALUE PUSH2 0x229 JUMPI PUSH1 0x40 CALLDATASIZE PUSH1 0x3 NOT ADD SLT PUSH2 0x229 JUMPI PUSH2 0x138A PUSH2 0x17EF JUMP JUMPDEST PUSH1 0x1 PUSH1 0x1 PUSH1 0xA0 SHL SUB AND PUSH1 0x0 SWAP1 DUP2 MSTORE PUSH1 0xB PUSH1 0x20 MSTORE PUSH1 0x40 SWAP1 KECCAK256 DUP1 SLOAD PUSH1 0x24 CALLDATALOAD SWAP2 SWAP1 DUP3 LT ISZERO PUSH2 0x229 JUMPI PUSH1 0x20 SWAP2 PUSH2 0x13BB SWAP2 PUSH2 0x1988 JUMP JUMPDEST SWAP1 SLOAD PUSH1 0x40 MLOAD SWAP2 PUSH1 0x3 SHL SHR DUP2 MSTORE RETURN JUMPDEST CALLVALUE PUSH2 0x229 JUMPI PUSH1 0x20 DUP1 PUSH1 0x3 NOT CALLDATASIZE ADD SLT PUSH2 0x229 JUMPI PUSH1 0x1 PUSH1 0x1 PUSH1 0xA0 SHL SUB PUSH2 0x13EB PUSH2 0x17EF JUMP JUMPDEST AND PUSH1 0x0 MSTORE PUSH1 0xB DUP2 MSTORE PUSH1 0x40 PUSH1 0x0 KECCAK256 PUSH1 0x40 MLOAD SWAP1 DUP2 DUP4 DUP3 SLOAD SWAP2 DUP3 DUP2 MSTORE ADD SWAP1 DUP2 SWAP3 PUSH1 0x0 MSTORE DUP5 PUSH1 0x0 KECCAK256 SWAP1 PUSH1 0x0 JUMPDEST DUP7 DUP3 DUP3 LT PUSH2 0x1469 JUMPI DUP7 DUP7 PUSH2 0x1429 DUP3 DUP9 SUB DUP4 PUSH2 0x188C JUMP JUMPDEST PUSH1 0x40 MLOAD SWAP3 DUP4 SWAP3 DUP2 DUP5 ADD SWAP1 DUP3 DUP6 MSTORE MLOAD DUP1 SWAP2 MSTORE PUSH1 0x40 DUP5 ADD SWAP3 SWAP2 PUSH1 0x0 JUMPDEST DUP3 DUP2 LT PUSH2 0x1452 JUMPI POP POP POP POP SUB SWAP1 RETURN JUMPDEST DUP4 MLOAD DUP6 MSTORE DUP7 SWAP6 POP SWAP4 DUP2 ADD SWAP4 SWAP3 DUP2 ADD SWAP3 PUSH1 0x1 ADD PUSH2 0x1443 JUMP JUMPDEST DUP4 SLOAD DUP6 MSTORE SWAP1 SWAP4 ADD SWAP3 PUSH1 0x1 SWAP3 DUP4 ADD SWAP3 ADD PUSH2 0x1413 JUMP JUMPDEST CALLVALUE PUSH2 0x229 JUMPI PUSH2 0x3DA PUSH2 0x148E CALLDATASIZE PUSH2 0x1953 JUMP JUMPDEST SWAP2 PUSH2 0x1A61 JUMP JUMPDEST CALLVALUE PUSH2 0x229 JUMPI PUSH1 0x20 CALLDATASIZE PUSH1 0x3 NOT ADD SLT PUSH2 0x229 JUMPI PUSH1 0x4 CALLDATALOAD PUSH1 0x0 MSTORE PUSH1 0xA PUSH1 0x20 MSTORE PUSH2 0x151E PUSH1 0x40 PUSH1 0x0 KECCAK256 PUSH2 0x14C1 DUP2 PUSH2 0x18AD JUMP JUMPDEST SWAP1 PUSH2 0x14CE PUSH1 0x1 DUP3 ADD PUSH2 0x18AD JUMP JUMPDEST PUSH1 0x2 DUP3 ADD SLOAD PUSH1 0x3 DUP4 ADD SLOAD SWAP3 SWAP1 PUSH2 0x1544 SWAP1 PUSH1 0x1 PUSH1 0x1 PUSH1 0xA0 SHL SUB AND PUSH2 0x14F3 PUSH1 0x4 DUP5 ADD PUSH2 0x18AD JUMP JUMPDEST PUSH1 0x5 DUP5 ADD SLOAD SWAP6 PUSH2 0x152C PUSH1 0xFF PUSH1 0x7 PUSH1 0x6 DUP9 ADD SLOAD SWAP8 ADD SLOAD AND SWAP7 PUSH1 0x40 MLOAD SWAP11 DUP12 SWAP11 PUSH2 0x100 DUP1 DUP14 MSTORE DUP13 ADD SWAP1 PUSH2 0x17CA JUMP JUMPDEST SWAP1 DUP11 DUP3 SUB PUSH1 0x20 DUP13 ADD MSTORE PUSH2 0x17CA JUMP JUMPDEST SWAP3 PUSH1 0x40 DUP10 ADD MSTORE PUSH1 0x60 DUP9 ADD MSTORE DUP7 DUP3 SUB PUSH1 0x80 DUP9 ADD MSTORE PUSH2 0x17CA JUMP JUMPDEST SWAP3 PUSH1 0xA0 DUP6 ADD MSTORE PUSH1 0xC0 DUP5 ADD MSTORE ISZERO ISZERO PUSH1 0xE0 DUP4 ADD MSTORE SUB SWAP1 RETURN JUMPDEST CALLVALUE PUSH2 0x229 JUMPI PUSH1 0x40 CALLDATASIZE PUSH1 0x3 NOT ADD SLT PUSH2 0x229 JUMPI PUSH2 0x1573 PUSH2 0x17EF JUMP JUMPDEST PUSH1 0x24 CALLDATALOAD PUSH2 0x157F DUP2 PUSH2 0x1BE7 JUMP JUMPDEST CALLER ISZERO ISZERO DUP1 PUSH2 0x162E JUMPI JUMPDEST DUP1 PUSH2 0x1601 JUMPI JUMPDEST PUSH2 0x15E9 JUMPI PUSH1 0x1 PUSH1 0x1 PUSH1 0xA0 SHL SUB SWAP3 DUP4 AND SWAP3 DUP3 SWAP2 DUP5 SWAP2 AND PUSH32 0x8C5BE1E5EBEC7D5BD14F71427D1E84F3DD0314C0F7B2291E5B200AC8C7C3B925 PUSH1 0x0 DUP1 LOG4 PUSH1 0x0 SWAP1 DUP2 MSTORE PUSH1 0x4 PUSH1 0x20 MSTORE PUSH1 0x40 SWAP1 KECCAK256 DUP1 SLOAD PUSH1 0x1 PUSH1 0x1 PUSH1 0xA0 SHL SUB NOT AND SWAP1 SWAP2 OR SWAP1 SSTORE STOP JUMPDEST PUSH1 0x40 MLOAD PUSH4 0xA9FBF51F PUSH1 0xE0 SHL DUP2 MSTORE CALLER PUSH1 0x4 DUP3 ADD MSTORE PUSH1 0x24 SWAP1 REVERT JUMPDEST POP PUSH1 0x1 DUP1 PUSH1 0xA0 SHL SUB DUP2 AND PUSH1 0x0 MSTORE PUSH1 0x5 PUSH1 0x20 MSTORE PUSH1 0x40 PUSH1 0x0 KECCAK256 CALLER PUSH1 0x0 MSTORE PUSH1 0x20 MSTORE PUSH1 0xFF PUSH1 0x40 PUSH1 0x0 KECCAK256 SLOAD AND ISZERO PUSH2 0x158E JUMP JUMPDEST POP PUSH1 0x1 PUSH1 0x1 PUSH1 0xA0 SHL SUB DUP2 AND CALLER EQ ISZERO PUSH2 0x1588 JUMP JUMPDEST CALLVALUE PUSH2 0x229 JUMPI PUSH1 0x20 CALLDATASIZE PUSH1 0x3 NOT ADD SLT PUSH2 0x229 JUMPI PUSH1 0x4 CALLDATALOAD PUSH2 0x165E DUP2 PUSH2 0x1BE7 JUMP JUMPDEST POP PUSH1 0x0 MSTORE PUSH1 0x4 PUSH1 0x20 MSTORE PUSH1 0x20 PUSH1 0x1 DUP1 PUSH1 0xA0 SHL SUB PUSH1 0x40 PUSH1 0x0 KECCAK256 SLOAD AND PUSH1 0x40 MLOAD SWAP1 DUP2 MSTORE RETURN JUMPDEST CALLVALUE PUSH2 0x229 JUMPI PUSH1 0x0 CALLDATASIZE PUSH1 0x3 NOT ADD SLT PUSH2 0x229 JUMPI PUSH1 0x40 MLOAD PUSH1 0x0 DUP1 SLOAD PUSH2 0x16A0 DUP2 PUSH2 0x181B JUMP JUMPDEST DUP1 DUP5 MSTORE SWAP1 PUSH1 0x1 SWAP1 DUP2 DUP2 AND SWAP1 DUP2 ISZERO PUSH2 0x704 JUMPI POP PUSH1 0x1 EQ PUSH2 0x16C9 JUMPI PUSH2 0x36B DUP5 PUSH2 0x697 DUP2 DUP7 SUB DUP3 PUSH2 0x188C JUMP JUMPDEST PUSH1 0x0 DUP1 DUP1 MSTORE SWAP3 POP PUSH32 0x290DECD9548B62A8D60345A988386FC84BA6BC95484008F6362F93160EF3E563 JUMPDEST DUP3 DUP5 LT PUSH2 0x170A JUMPI POP POP POP DUP2 ADD PUSH1 0x20 ADD PUSH2 0x697 DUP3 PUSH2 0x687 JUMP JUMPDEST DUP1 SLOAD PUSH1 0x20 DUP6 DUP8 ADD DUP2 ADD SWAP2 SWAP1 SWAP2 MSTORE SWAP1 SWAP4 ADD SWAP3 DUP2 ADD PUSH2 0x16F2 JUMP JUMPDEST CALLVALUE PUSH2 0x229 JUMPI PUSH1 0x20 CALLDATASIZE PUSH1 0x3 NOT ADD SLT PUSH2 0x229 JUMPI PUSH1 0x4 CALLDATALOAD SWAP1 PUSH4 0xFFFFFFFF PUSH1 0xE0 SHL DUP3 AND DUP1 SWAP3 SUB PUSH2 0x229 JUMPI PUSH1 0x20 SWAP2 PUSH4 0x24832483 PUSH1 0xE1 SHL DUP2 EQ SWAP1 DUP2 ISZERO PUSH2 0x1764 JUMPI JUMPDEST POP ISZERO ISZERO DUP2 MSTORE RETURN JUMPDEST PUSH4 0x80AC58CD PUSH1 0xE0 SHL DUP2 EQ SWAP2 POP DUP2 ISZERO PUSH2 0x1796 JUMPI JUMPDEST DUP2 ISZERO PUSH2 0x1785 JUMPI JUMPDEST POP DUP4 PUSH2 0x175D JUMP JUMPDEST PUSH4 0x1FFC9A7 PUSH1 0xE0 SHL EQ SWAP1 POP DUP4 PUSH2 0x177E JUMP JUMPDEST PUSH4 0x5B5E139F PUSH1 0xE0 SHL DUP2 EQ SWAP2 POP PUSH2 0x1777 JUMP JUMPDEST PUSH1 0x0 JUMPDEST DUP4 DUP2 LT PUSH2 0x17BA JUMPI POP POP PUSH1 0x0 SWAP2 ADD MSTORE JUMP JUMPDEST DUP2 DUP2 ADD MLOAD DUP4 DUP3 ADD MSTORE PUSH1 0x20 ADD PUSH2 0x17AA JUMP JUMPDEST SWAP1 PUSH1 0x20 SWAP2 PUSH2 0x17E3 DUP2 MLOAD DUP1 SWAP3 DUP2 DUP6 MSTORE DUP6 DUP1 DUP7 ADD SWAP2 ADD PUSH2 0x17A7 JUMP JUMPDEST PUSH1 0x1F ADD PUSH1 0x1F NOT AND ADD ADD SWAP1 JUMP JUMPDEST PUSH1 0x4 CALLDATALOAD SWAP1 PUSH1 0x1 PUSH1 0x1 PUSH1 0xA0 SHL SUB DUP3 AND DUP3 SUB PUSH2 0x229 JUMPI JUMP JUMPDEST PUSH1 0x24 CALLDATALOAD SWAP1 PUSH1 0x1 PUSH1 0x1 PUSH1 0xA0 SHL SUB DUP3 AND DUP3 SUB PUSH2 0x229 JUMPI JUMP JUMPDEST SWAP1 PUSH1 0x1 DUP3 DUP2 SHR SWAP3 AND DUP1 ISZERO PUSH2 0x184B JUMPI JUMPDEST PUSH1 0x20 DUP4 LT EQ PUSH2 0x1835 JUMPI JUMP JUMPDEST PUSH4 0x4E487B71 PUSH1 0xE0 SHL PUSH1 0x0 MSTORE PUSH1 0x22 PUSH1 0x4 MSTORE PUSH1 0x24 PUSH1 0x0 REVERT JUMPDEST SWAP2 PUSH1 0x7F AND SWAP2 PUSH2 0x182A JUMP JUMPDEST PUSH2 0x100 DUP2 ADD SWAP1 DUP2 LT PUSH1 0x1 PUSH1 0x1 PUSH1 0x40 SHL SUB DUP3 GT OR PUSH2 0xD81 JUMPI PUSH1 0x40 MSTORE JUMP JUMPDEST PUSH1 0x20 DUP2 ADD SWAP1 DUP2 LT PUSH1 0x1 PUSH1 0x1 PUSH1 0x40 SHL SUB DUP3 GT OR PUSH2 0xD81 JUMPI PUSH1 0x40 MSTORE JUMP JUMPDEST SWAP1 PUSH1 0x1F DUP1 NOT SWAP2 ADD AND DUP2 ADD SWAP1 DUP2 LT PUSH1 0x1 PUSH1 0x1 PUSH1 0x40 SHL SUB DUP3 GT OR PUSH2 0xD81 JUMPI PUSH1 0x40 MSTORE JUMP JUMPDEST SWAP1 PUSH1 0x40 MLOAD SWAP2 DUP3 PUSH1 0x0 DUP3 SLOAD SWAP3 PUSH2 0x18C1 DUP5 PUSH2 0x181B JUMP JUMPDEST SWAP1 DUP2 DUP5 MSTORE PUSH1 0x1 SWAP5 DUP6 DUP2 AND SWAP1 DUP2 PUSH1 0x0 EQ PUSH2 0x1930 JUMPI POP PUSH1 0x1 EQ PUSH2 0x18ED JUMPI JUMPDEST POP POP PUSH2 0x18EB SWAP3 POP SUB DUP4 PUSH2 0x188C JUMP JUMPDEST JUMP JUMPDEST SWAP1 SWAP4 SWAP2 POP PUSH1 0x0 MSTORE PUSH1 0x20 SWAP1 DUP2 PUSH1 0x0 KECCAK256 SWAP4 PUSH1 0x0 SWAP2 JUMPDEST DUP2 DUP4 LT PUSH2 0x1918 JUMPI POP POP PUSH2 0x18EB SWAP4 POP DUP3 ADD ADD CODESIZE DUP1 PUSH2 0x18DD JUMP JUMPDEST DUP6 SLOAD DUP9 DUP5 ADD DUP6 ADD MSTORE SWAP5 DUP6 ADD SWAP5 DUP8 SWAP5 POP SWAP2 DUP4 ADD SWAP2 PUSH2 0x1900 JUMP JUMPDEST SWAP2 POP POP PUSH2 0x18EB SWAP5 POP PUSH1 0x20 SWAP3 POP PUSH1 0xFF NOT AND DUP3 DUP5 ADD MSTORE ISZERO ISZERO PUSH1 0x5 SHL DUP3 ADD ADD CODESIZE DUP1 PUSH2 0x18DD JUMP JUMPDEST PUSH1 0x60 SWAP1 PUSH1 0x3 NOT ADD SLT PUSH2 0x229 JUMPI PUSH1 0x1 PUSH1 0x1 PUSH1 0xA0 SHL SUB SWAP1 PUSH1 0x4 CALLDATALOAD DUP3 DUP2 AND DUP2 SUB PUSH2 0x229 JUMPI SWAP2 PUSH1 0x24 CALLDATALOAD SWAP1 DUP2 AND DUP2 SUB PUSH2 0x229 JUMPI SWAP1 PUSH1 0x44 CALLDATALOAD SWAP1 JUMP JUMPDEST DUP1 SLOAD DUP3 LT ISZERO PUSH2 0x19A0 JUMPI PUSH1 0x0 MSTORE PUSH1 0x20 PUSH1 0x0 KECCAK256 ADD SWAP1 PUSH1 0x0 SWAP1 JUMP JUMPDEST PUSH4 0x4E487B71 PUSH1 0xE0 SHL PUSH1 0x0 MSTORE PUSH1 0x32 PUSH1 0x4 MSTORE PUSH1 0x24 PUSH1 0x0 REVERT JUMPDEST PUSH1 0x1 PUSH1 0x1 PUSH1 0x40 SHL SUB DUP2 GT PUSH2 0xD81 JUMPI PUSH1 0x1F ADD PUSH1 0x1F NOT AND PUSH1 0x20 ADD SWAP1 JUMP JUMPDEST SWAP3 SWAP2 SWAP3 PUSH2 0x19DD DUP3 PUSH2 0x19B6 JUMP JUMPDEST SWAP2 PUSH2 0x19EB PUSH1 0x40 MLOAD SWAP4 DUP5 PUSH2 0x188C JUMP JUMPDEST DUP3 SWAP5 DUP2 DUP5 MSTORE DUP2 DUP4 ADD GT PUSH2 0x229 JUMPI DUP3 DUP2 PUSH1 0x20 SWAP4 DUP5 PUSH1 0x0 SWAP7 ADD CALLDATACOPY ADD ADD MSTORE JUMP JUMPDEST SWAP1 DUP1 PUSH1 0x1F DUP4 ADD SLT ISZERO PUSH2 0x229 JUMPI DUP2 PUSH1 0x20 PUSH2 0x1A23 SWAP4 CALLDATALOAD SWAP2 ADD PUSH2 0x19D1 JUMP JUMPDEST SWAP1 JUMP JUMPDEST PUSH1 0x24 CALLDATALOAD SWAP1 DUP2 ISZERO ISZERO DUP3 SUB PUSH2 0x229 JUMPI JUMP JUMPDEST PUSH1 0x7 SLOAD PUSH1 0x1 PUSH1 0x1 PUSH1 0xA0 SHL SUB AND CALLER SUB PUSH2 0x1A49 JUMPI JUMP JUMPDEST PUSH1 0x40 MLOAD PUSH4 0x118CDAA7 PUSH1 0xE0 SHL DUP2 MSTORE CALLER PUSH1 0x4 DUP3 ADD MSTORE PUSH1 0x24 SWAP1 REVERT JUMPDEST PUSH1 0x1 PUSH1 0x1 PUSH1 0xA0 SHL SUB SWAP2 DUP3 AND SWAP3 SWAP1 SWAP2 DUP4 ISZERO PUSH2 0x125B JUMPI PUSH1 0x0 SWAP3 DUP3 DUP5 MSTORE DUP3 PUSH1 0x20 SWAP6 PUSH1 0x2 DUP8 MSTORE PUSH1 0x40 SWAP7 DUP5 DUP9 DUP9 KECCAK256 SLOAD AND SWAP7 DUP8 SWAP2 CALLER ISZERO ISZERO DUP1 PUSH2 0x1B51 JUMPI JUMPDEST POP SWAP1 PUSH1 0x2 PUSH32 0xDDF252AD1BE2C89B69C2B068FC378DAA952BA7F163C4A11628F55A4DF523B3EF SWAP3 DUP5 PUSH2 0x1B1E JUMPI JUMPDEST DUP6 DUP4 MSTORE PUSH1 0x3 DUP2 MSTORE DUP12 DUP4 KECCAK256 DUP1 SLOAD PUSH1 0x1 ADD SWAP1 SSTORE DUP7 DUP4 MSTORE MSTORE DUP10 DUP2 KECCAK256 DUP1 SLOAD PUSH1 0x1 PUSH1 0x1 PUSH1 0xA0 SHL SUB NOT AND DUP6 OR SWAP1 SSTORE DUP1 LOG4 AND SWAP3 DUP4 DUP4 SUB PUSH2 0x1AFD JUMPI POP POP POP POP JUMP JUMPDEST PUSH1 0x64 SWAP5 POP MLOAD SWAP3 PUSH4 0x64283D7B PUSH1 0xE0 SHL DUP5 MSTORE PUSH1 0x4 DUP5 ADD MSTORE PUSH1 0x24 DUP4 ADD MSTORE PUSH1 0x44 DUP3 ADD MSTORE REVERT JUMPDEST PUSH1 0x0 DUP8 DUP2 MSTORE PUSH1 0x4 PUSH1 0x20 MSTORE PUSH1 0x40 SWAP1 KECCAK256 DUP1 SLOAD PUSH1 0x1 PUSH1 0x1 PUSH1 0xA0 SHL SUB NOT AND SWAP1 SSTORE DUP5 DUP4 MSTORE PUSH1 0x3 DUP2 MSTORE DUP12 DUP4 KECCAK256 DUP1 SLOAD PUSH1 0x0 NOT ADD SWAP1 SSTORE PUSH2 0x1AC4 JUMP JUMPDEST SWAP2 SWAP4 SWAP5 POP SWAP2 POP DUP1 PUSH2 0x1BA6 JUMPI JUMPDEST ISZERO PUSH2 0x1B6D JUMPI DUP6 SWAP3 SWAP2 DUP8 SWAP2 CODESIZE PUSH2 0x1A98 JUMP JUMPDEST DUP8 DUP7 DUP9 PUSH2 0x1B8A JUMPI PUSH1 0x24 SWAP2 MLOAD SWAP1 PUSH4 0x7E273289 PUSH1 0xE0 SHL DUP3 MSTORE PUSH1 0x4 DUP3 ADD MSTORE REVERT JUMPDEST PUSH1 0x44 SWAP2 MLOAD SWAP1 PUSH4 0x177E802F PUSH1 0xE0 SHL DUP3 MSTORE CALLER PUSH1 0x4 DUP4 ADD MSTORE PUSH1 0x24 DUP3 ADD MSTORE REVERT JUMPDEST POP CALLER DUP8 EQ DUP1 ISZERO PUSH2 0x1BCB JUMPI JUMPDEST DUP1 PUSH2 0x1B5D JUMPI POP DUP6 DUP3 MSTORE PUSH1 0x4 DUP2 MSTORE CALLER DUP6 DUP10 DUP5 KECCAK256 SLOAD AND EQ PUSH2 0x1B5D JUMP JUMPDEST POP DUP7 DUP3 MSTORE PUSH1 0x5 DUP2 MSTORE DUP8 DUP3 KECCAK256 CALLER DUP4 MSTORE DUP2 MSTORE PUSH1 0xFF DUP9 DUP4 KECCAK256 SLOAD AND PUSH2 0x1BB1 JUMP JUMPDEST PUSH1 0x0 DUP2 DUP2 MSTORE PUSH1 0x2 PUSH1 0x20 MSTORE PUSH1 0x40 SWAP1 KECCAK256 SLOAD PUSH1 0x1 PUSH1 0x1 PUSH1 0xA0 SHL SUB AND SWAP1 DUP2 ISZERO PUSH2 0x1C0A JUMPI POP SWAP1 JUMP JUMPDEST PUSH1 0x24 SWAP1 PUSH1 0x40 MLOAD SWAP1 PUSH4 0x7E273289 PUSH1 0xE0 SHL DUP3 MSTORE PUSH1 0x4 DUP3 ADD MSTORE REVERT JUMPDEST SWAP1 SWAP4 SWAP2 SWAP3 DUP4 EXTCODESIZE PUSH2 0x1C34 JUMPI JUMPDEST POP POP POP POP POP JUMP JUMPDEST PUSH1 0x40 MLOAD PUSH4 0xA85BD01 PUSH1 0xE1 SHL DUP1 DUP3 MSTORE PUSH1 0x1 PUSH1 0x1 PUSH1 0xA0 SHL SUB SWAP4 DUP5 AND PUSH1 0x4 DUP4 ADD MSTORE SWAP6 DUP4 AND PUSH1 0x24 DUP3 ADD MSTORE PUSH1 0x44 DUP2 ADD SWAP2 SWAP1 SWAP2 MSTORE PUSH1 0x80 PUSH1 0x64 DUP3 ADD MSTORE SWAP5 SWAP3 AND SWAP3 PUSH1 0x20 SWAP3 SWAP2 DUP6 SWAP1 PUSH2 0x1C81 SWAP1 PUSH1 0x84 DUP4 ADD SWAP1 PUSH2 0x17CA JUMP JUMPDEST SUB SWAP5 DUP4 DUP2 PUSH1 0x0 SWAP8 DUP2 DUP10 DUP10 GAS CALL DUP7 SWAP2 DUP2 PUSH2 0x1D2C JUMPI JUMPDEST POP PUSH2 0x1CF6 JUMPI POP POP POP RETURNDATASIZE PUSH1 0x0 EQ PUSH2 0x1CED JUMPI RETURNDATASIZE PUSH2 0x1CAF DUP2 PUSH2 0x19B6 JUMP JUMPDEST SWAP1 PUSH2 0x1CBD PUSH1 0x40 MLOAD SWAP3 DUP4 PUSH2 0x188C JUMP JUMPDEST DUP2 MSTORE DUP1 SWAP4 DUP3 RETURNDATASIZE SWAP3 ADD RETURNDATACOPY JUMPDEST DUP3 MLOAD SWAP3 DUP4 PUSH2 0x1CE8 JUMPI PUSH1 0x40 MLOAD PUSH4 0x32505749 PUSH1 0xE1 SHL DUP2 MSTORE PUSH1 0x4 DUP2 ADD DUP5 SWAP1 MSTORE PUSH1 0x24 SWAP1 REVERT JUMPDEST ADD SWAP1 POP REVERT JUMPDEST PUSH1 0x60 SWAP3 POP PUSH2 0x1CC7 JUMP JUMPDEST SWAP2 SWAP5 POP SWAP2 POP PUSH4 0xFFFFFFFF PUSH1 0xE0 SHL AND SUB PUSH2 0x1D14 JUMPI POP CODESIZE DUP1 DUP1 DUP1 DUP1 PUSH2 0x1C2D JUMP JUMPDEST PUSH1 0x24 SWAP1 PUSH1 0x40 MLOAD SWAP1 PUSH4 0x32505749 PUSH1 0xE1 SHL DUP3 MSTORE PUSH1 0x4 DUP3 ADD MSTORE REVERT JUMPDEST SWAP1 SWAP2 POP DUP5 DUP2 DUP2 RETURNDATASIZE DUP4 GT PUSH2 0x1D69 JUMPI JUMPDEST PUSH2 0x1D44 DUP2 DUP4 PUSH2 0x188C JUMP JUMPDEST DUP2 ADD SUB SLT PUSH2 0x1D65 JUMPI MLOAD PUSH1 0x1 PUSH1 0x1 PUSH1 0xE0 SHL SUB NOT DUP2 AND DUP2 SUB PUSH2 0x1D65 JUMPI SWAP1 CODESIZE PUSH2 0x1C95 JUMP JUMPDEST DUP7 DUP1 REVERT JUMPDEST POP RETURNDATASIZE PUSH2 0x1D3A JUMP JUMPDEST PUSH1 0x0 NOT DUP2 EQ PUSH2 0x213 JUMPI PUSH1 0x1 ADD SWAP1 JUMP JUMPDEST ISZERO PUSH2 0x1D86 JUMPI JUMP JUMPDEST PUSH1 0x40 MLOAD PUSH3 0x461BCD PUSH1 0xE5 SHL DUP2 MSTORE PUSH1 0x20 PUSH1 0x4 DUP3 ADD MSTORE PUSH1 0x14 PUSH1 0x24 DUP3 ADD MSTORE PUSH20 0x151BDAD95B88191BD95CC81B9BDD08195E1A5CDD PUSH1 0x62 SHL PUSH1 0x44 DUP3 ADD MSTORE PUSH1 0x64 SWAP1 REVERT INVALID LOG2 PUSH5 0x6970667358 0x22 SLT KECCAK256 0x26 0xDE ADDMOD 0xCA 0xC DUP12 GASLIMIT 0xCC LOG1 0x5E SMOD CALLER 0xC0 NUMBER PUSH28 0x905CB5C3B6842C80EE18A2CA927ABB7FC764736F6C63430008140033 "},"methodIdentifiers":{"addCitation(uint256)":"f9202f00","approve(address,uint256)":"095ea7b3","balanceOf(address)":"70a08231","getApproved(uint256)":"081812fc","getResearchNFT(uint256)":"9a60f5be","getResearcherNFTs(address)":"2bc6c4e3","getTotalNFTs()":"30bdb351","isApprovedForAll(address,address)":"e985e9c5","mintResearchNFT(address,string,string,string,string)":"4f7a3a75","name()":"06fdde03","owner()":"8da5cb5b","ownerOf(uint256)":"6352211e","renounceOwnership()":"715018a6","researchNFTs(uint256)":"20a2b3a0","researcherNFTs(address,uint256)":"2ef706ab","safeTransferFrom(address,address,uint256)":"42842e0e","safeTransferFrom(address,address,uint256,bytes)":"b88d4fde","setApprovalForAll(address,bool)":"a22cb465","supportsInterface(bytes4)":"01ffc9a7","symbol()":"95d89b41","titleToTokenId(string)":"9e6b3f42","tokenURI(uint256)":"c87b56dd","transferFrom(address,address,uint256)":"23b872dd","transferOwnership(address)":"f2fde38b","verifyResearch(uint256,bool)":"507d34a5"}}}}}