{"contracts/ZKProof.sol":{"ZKProof":{"abi":[{"inputs":[],"stateMutability":"nonpayable","type":"constructor"},{"inputs":[{"internalType":"address","name":"owner","type":"address"}],"name":"OwnableInvalidOwner","type":"error"},{"inputs":[{"internalType":"address","name":"account","type":"address"}],"name":"OwnableUnauthorizedAccount","type":"error"},{"inputs":[],"name":"ReentrancyGuardReentrantCall","type":"error"},{"anonymous":false,"inputs":[{"indexed":true,"internalType":"address","name":"previousOwner","type":"address"},{"indexed":true,"internalType":"address","name":"newOwner","type":"address"}],"name":"OwnershipTransferred","type":"event"},{"anonymous":false,"inputs":[{"indexed":true,"internalType":"uint256","name":"proofId","type":"uint256"},{"indexed":true,"internalType":"address","name":"submitter","type":"address"},{"indexed":false,"internalType":"string","name":"proofType","type":"string"},{"indexed":false,"internalType":"string","name":"metadataHash","type":"string"}],"name":"ProofSubmitted","type":"event"},{"anonymous":false,"inputs":[{"indexed":false,"internalType":"string","name":"proofType","type":"string"},{"indexed":false,"internalType":"address","name":"verifierContract","type":"address"}],"name":"ProofTypeAdded","type":"event"},{"anonymous":false,"inputs":[{"indexed":false,"internalType":"string","name":"proofType","type":"string"},{"indexed":false,"internalType":"bool","name":"isActive","type":"bool"}],"name":"ProofTypeUpdated","type":"event"},{"anonymous":false,"inputs":[{"indexed":true,"internalType":"uint256","name":"proofId","type":"uint256"},{"indexed":false,"internalType":"bool","name":"isValid","type":"bool"},{"indexed":true,"internalType":"address","name":"verifier","type":"address"}],"name":"ProofVerified","type":"event"},{"inputs":[{"internalType":"string","name":"_proofType","type":"string"},{"internalType":"address","name":"_verifierContract","type":"address"},{"internalType":"uint256","name":"_minReputation","type":"uint256"}],"name":"addProofType","outputs":[],"stateMutability":"nonpayable","type":"function"},{"inputs":[{"internalType":"uint256","name":"_proofId","type":"uint256"}],"name":"getProof","outputs":[{"components":[{"internalType":"address","name":"submitter","type":"address"},{"internalType":"string","name":"proofType","type":"string"},{"internalType":"uint256[8]","name":"proof","type":"uint256[8]"},{"internalType":"uint256[2]","name":"publicInputs","type":"uint256[2]"},{"internalType":"bool","name":"isVerified","type":"bool"},{"internalType":"uint256","name":"submittedAt","type":"uint256"},{"internalType":"uint256","name":"verifiedAt","type":"uint256"},{"internalType":"string","name":"metadataHash","type":"string"}],"internalType":"struct ZKProof.Proof","name":"","type":"tuple"}],"stateMutability":"view","type":"function"},{"inputs":[{"internalType":"string","name":"_proofType","type":"string"}],"name":"getProofType","outputs":[{"components":[{"internalType":"string","name":"name","type":"string"},{"internalType":"bool","name":"isActive","type":"bool"},{"internalType":"address","name":"verifierContract","type":"address"},{"internalType":"uint256","name":"minReputation","type":"uint256"}],"internalType":"struct ZKProof.ProofType","name":"","type":"tuple"}],"stateMutability":"view","type":"function"},{"inputs":[],"name":"getSupportedProofTypes","outputs":[{"internalType":"string[]","name":"","type":"string[]"}],"stateMutability":"view","type":"function"},{"inputs":[],"name":"getTotalProofs","outputs":[{"internalType":"uint256","name":"","type":"uint256"}],"stateMutability":"view","type":"function"},{"inputs":[{"internalType":"address","name":"_user","type":"address"}],"name":"getUserProofs","outputs":[{"internalType":"uint256[]","name":"","type":"uint256[]"}],"stateMutability":"view","type":"function"},{"inputs":[{"internalType":"uint256","name":"_proofId","type":"uint256"}],"name":"isProofVerified","outputs":[{"internalType":"bool","name":"","type":"bool"}],"stateMutability":"view","type":"function"},{"inputs":[],"name":"nextProofId","outputs":[{"internalType":"uint256","name":"","type":"uint256"}],"stateMutability":"view","type":"function"},{"inputs":[],"name":"owner","outputs":[{"internalType":"address","name":"","type":"address"}],"stateMutability":"view","type":"function"},{"inputs":[{"internalType":"string","name":"","type":"string"}],"name":"proofTypes","outputs":[{"internalType":"string","name":"name","type":"string"},{"internalType":"bool","name":"isActive","type":"bool"},{"internalType":"address","name":"verifierContract","type":"address"},{"internalType":"uint256","name":"minReputation","type":"uint256"}],"stateMutability":"view","type":"function"},{"inputs":[{"internalType":"uint256","name":"","type":"uint256"}],"name":"proofs","outputs":[{"internalType":"address","name":"submitter","type":"address"},{"internalType":"string","name":"proofType","type":"string"},{"internalType":"bool","name":"isVerified","type":"bool"},{"internalType":"uint256","name":"submittedAt","type":"uint256"},{"internalType":"uint256","name":"verifiedAt","type":"uint256"},{"internalType":"string","name":"metadataHash","type":"string"}],"stateMutability":"view","type":"function"},{"inputs":[],"name":"renounceOwnership","outputs":[],"stateMutability":"nonpayable","type":"function"},{"inputs":[{"internalType":"string","name":"_proofType","type":"string"},{"internalType":"uint256[8]","name":"_proof","type":"uint256[8]"},{"internalType":"uint256[2]","name":"_publicInputs","type":"uint256[2]"},{"internalType":"string","name":"_metadataHash","type":"string"}],"name":"submitProof","outputs":[{"internalType":"uint256","name":"","type":"uint256"}],"stateMutability":"nonpayable","type":"function"},{"inputs":[{"internalType":"uint256","name":"","type":"uint256"}],"name":"supportedProofTypes","outputs":[{"internalType":"string","name":"","type":"string"}],"stateMutability":"view","type":"function"},{"inputs":[{"internalType":"address","name":"newOwner","type":"address"}],"name":"transferOwnership","outputs":[],"stateMutability":"nonpayable","type":"function"},{"inputs":[{"internalType":"string","name":"_proofType","type":"string"},{"internalType":"bool","name":"_isActive","type":"bool"}],"name":"updateProofType","outputs":[],"stateMutability":"nonpayable","type":"function"},{"inputs":[{"internalType":"address","name":"","type":"address"},{"internalType":"uint256","name":"","type":"uint256"}],"name":"userProofs","outputs":[{"internalType":"uint256","name":"","type":"uint256"}],"stateMutability":"view","type":"function"},{"inputs":[{"internalType":"uint256","name":"_proofId","type":"uint256"},{"internalType":"bool","name":"_isValid","type":"bool"}],"name":"verifyProof","outputs":[],"stateMutability":"nonpayable","type":"function"}],"evm":{"bytecode":{"linkReferences":{},"object":"608060409080825234620006bf573315620006a9575060008054336001600160a01b0319821681178355919291906001600160a01b03167f8be0079c531659141344cd1fd0a4f28419497f9722a3daafe3b4186f6b6457e08480a36001808055806005556200006d620006fa565b60158152602090818101907f6964656e746974795f766572696669636174696f6e00000000000000000000008252845193620000aa85846200071a565b60356003958660158201528260ff928392200154166200067657620000ce620006c4565b9583875285870191838352888801918a83526060988981018c81528b518a81808c8c518092620000fe9262000742565b810186815203019020915162000115908362000767565b945186820180549551610100600160a81b0360089190911b811692151586166001600160a81b031997881617929092179055945160029091015560068054680100000000000000009891979190898110156200066257878101808a558110156200064e5791620001b98d8f93620001a18f9e9c9a98968590601f9f9d9b99978f908e8152200162000767565b81519e8f948386525194858094820152019062000742565b8d898d01528b8b7fc5136ee9cbcdfae0f750e383ed3d0d7a24bbcd260f0b5ff469aa6b4a84d274329d8e938d199d8e9101168101030190a1620001fb620006fa565b601581528c838760358c8501937f72657365617263685f61757468656e74696369747900000000000000000000008552516200023881866200071a565b86601582015220015416620005fd578b8f8f89600292620002988f6200025d620006c4565b96898852818801948552858801938452870194603286525190818a516200028681838d62000742565b81018c81520301902095518662000767565b8b850191511515908a8a8d8554935160081b16931691161717905551910155875489811015620005e857878101808a55811015620005d3578f928f928f948f93918f92918f620002f38f601f95889185528385200162000767565b62000311885198899781895251948580928a01528989019062000742565b85015201168101030190a18c8c8984886200032b620006fa565b9486600e808852858801966d646174615f696e7465677269747960901b88525192955b818710620006305750820152602e90200154169050620005fd578b8f8f89600292620003a78f6200037e620006c4565b96898852818801948552858801938452870194601986525190818a516200028681838d62000742565b8b850191511515908a8a8d8554935160081b16931691161717905551910155875489811015620005e857878101808a55811015620005d357938f978f9c9b999795988f8f8f908f976a706565725f72657669657760a81b9f9d988f879d9b998f601f926200041f868d9f8c9485528385200162000767565b6200043d885198899781895251948580928a01528989019062000742565b85015201168101030190a18a62000453620006fa565b600b81528181019d8e529e51918f5b600b8210620005ba575050508084600b602b9301522001541662000587578b938f8f9394600295620004da8f8d8f8c98620004c893620004a1620006c4565b9d8e8281528581019c8d528d81019a8b52019b60648d525194859384925192839162000742565b82019081520301902098518962000767565b88880194511515938554935160081b16931691161717905551910155815492831015620005735782018082558210156200055f57916200052c868b93601f9695620005469b9c9d528385200162000767565b89519788968b8852518094818d8a01528989019062000742565b85015201168101030190a1516115be9081620008b68239f35b634e487b7160e01b8a52603260045260248afd5b634e487b7160e01b8b52604160045260248bfd5b8d5162461bcd60e51b8152600481018990526019602482015260008051602062001e748339815191526044820152606490fd5b8101820151838201528694508993508c91018f62000462565b50634e487b7160e01b8f52603260045260248ffd5b50634e487b7160e01b8f52604160045260248ffd5b8d5162461bcd60e51b8152600481018b90526019602482015260008051602062001e748339815191526044820152606490fd5b93509350509281818701015181850152019189908688938f6200034e565b634e487b7160e01b8e52603260045260248efd5b634e487b7160e01b8e52604160045260248efd5b865162461bcd60e51b8152600481018690526019602482015260008051602062001e748339815191526044820152606490fd5b631e4fbdf760e01b815260006004820152602490fd5b600080fd5b60405190608082016001600160401b03811183821017620006e457604052565b634e487b7160e01b600052604160045260246000fd5b60408051919082016001600160401b03811183821017620006e457604052565b60005b601581106200073157505060156000910152565b81810151838201526020016200071d565b60005b838110620007565750506000910152565b818101518382015260200162000745565b81519091906001600160401b038111620006e457825460019283821691841c8215620008ac575b602092838210146200089657601f811162000848575b5081601f8411600114620007e15750928293918392600094620007d5575b50501b916000199060031b1c1916179055565b015192503880620007c2565b919083601f1981168760005284600020946000905b888383106200082d575050501062000813575b505050811b019055565b015160001960f88460031b161c1916905538808062000809565b858701518855909601959485019487935090810190620007f6565b8560005282600020601f850160051c8101918486106200088b575b601f0160051c019085905b8281106200087e575050620007a4565b600081550185906200086e565b909150819062000863565b634e487b7160e01b600052602260045260246000fd5b607f166200078e56fe608080604052600436101561001357600080fd5b60003560e01c90816308ac8d22146111475750806311149ada14610f285780631acbce1414610bf75780632eb4a65e146109e0578063373b58e61461098857806341c7ce2e1461092757806346bdfb801461087357806356ef9cb5146106db57806366b92f9e14610635578063715018a6146105dc57806374235369146104d25780638129cd071461039b5780638da5cb5b146103725780639b1bc0c9146103315780639ddaf5aa14610294578063bf6618f9146101a0578063e96f88ea146101785763f2fde38b146100e557600080fd5b34610173576020366003190112610173576100fe611278565b6101066113e2565b6001600160a01b0390811690811561015a57600054826bffffffffffffffffffffffff60a01b821617600055167f8be0079c531659141344cd1fd0a4f28419497f9722a3daafe3b4186f6b6457e0600080a3005b604051631e4fbdf760e01b815260006004820152602490fd5b600080fd5b34610173576020366003190112610173576020610196600435611561565b6040519015158152f35b3461017357602080600319360112610173576004359067ffffffffffffffff82116101735761020c816101d96080943690600401611221565b600060606040516101e9816111c7565b818152828582015282604082015201528160405193828580945193849201611162565b8101600381520301902060405191610223836111c7565b61022c8261132d565b835260018201548184019260ff82161515845261027a6002604087019260018060a01b03809560081c16845201549360608701948552604051978897828952519188015260a0870190611185565b935115156040860152511660608401525160808301520390f35b3461017357602036600319011261017357600435600090815260026020526040902080546001600160a01b031661032d6102d06001840161132d565b9260ff600c8201541690600d810154906102f1600f600e830154920161132d565b9161030e604051978897885260c0602089015260c0880190611185565b93151560408701526060860152608085015283820360a0850152611185565b0390f35b3461017357600036600319011261017357600554600019810190811161035c57602090604051908152f35b634e487b7160e01b600052601160045260246000fd5b34610173576000366003190112610173576000546040516001600160a01b039091168152602090f35b346101735760403660031901126101735760043567ffffffffffffffff8111610173576103cc903690600401611221565b6103d46113d3565b906103dd6113e2565b60405190610409815192602081818501956103f9818389611162565b81016003815203019020546112f3565b1561048d578261046c7fd91fb3ad497a5eac04e08baacaa347b1eef608d1b43bcd4f35a7ed25ea5e8c25946001610450602061048097604051809381928a51928391611162565b81016003815203019020019060ff801983541691151516179055565b604051928392604084526040840190611185565b90151560208301520390a1005b60405162461bcd60e51b815260206004820152601960248201527f50726f6f66207479706520646f6573206e6f74206578697374000000000000006044820152606490fd5b346101735760003660031901126101735760065467ffffffffffffffff81116105c6576040519060209061050b828260051b01846111ff565b808352818301908160066000527ff652222313e28459528d920b65115c16c04f3efc82aaedc97be59f3f377c0d3f6000915b8383106105a45750505050604051918083019381845251809452604083019360408160051b85010192916000955b8287106105785785850386f35b909192938280610594600193603f198a82030186528851611185565b960192019601959291909261056b565b60018681926105b5859a999a61132d565b81520192019201919095949561053d565b634e487b7160e01b600052604160045260246000fd5b34610173576000366003190112610173576105f56113e2565b600080546001600160a01b0319811682556001600160a01b03167f8be0079c531659141344cd1fd0a4f28419497f9722a3daafe3b4186f6b6457e08280a3005b346101735760203660031901126101735760043567ffffffffffffffff811161017357610681602061066e6106b3933690600401611221565b8160405193828580945193849201611162565b810160038152030190206106948161132d565b9060026001820154910154604051938493608085526080850190611185565b60ff83161515602085015260089290921c6001600160a01b0316604084015260608301520390f35b34610173576040366003190112610173576004356106f76113d3565b9080600052602060028152610712600160406000200161132d565b600054336001600160a01b0391821614918390831561083c575b505050156107e757610741600554831061151e565b816000526002815260ff600c60406000200154166107aa577f70c9579a34961b8e4495afea0520b52edc90522592e0784a023d52983abe2b169082600052600281526040600020600c8101600160ff19825416179055600e4291015560405193151584523393a3005b6064906040519062461bcd60e51b825260048201526016602482015275141c9bdbd988185b1c9958591e481d995c9a599a595960521b6044820152fd5b6084906040519062461bcd60e51b82526004820152602860248201527f4e6f7420617574686f72697a656420746f2076657269667920746869732070726044820152676f6f66207479706560c01b6064820152fd5b600192935090610859918160405193828580945193849201611162565b81016003815203019020015460081c16331484828161072c565b3461017357602080600319360112610173576001600160a01b03610895611278565b1660005260048152604060002060405190818382549182815201908192600052846000209060005b868282106109135786866108d3828803836111ff565b604051928392818401908285525180915260408401929160005b8281106108fc57505050500390f35b8351855286955093810193928101926001016108ed565b8354855290930192600192830192016108bd565b34610173576020366003190112610173576004356006548110156101735761094e9061128e565b6109725761095e61032d9161132d565b604051918291602083526020830190611185565b634e487b7160e01b600052600060045260246000fd5b34610173576040366003190112610173576109a1611278565b6001600160a01b0316600090815260046020526040902080546024359190821015610173576020916109d2916112db565b90546040519160031b1c8152f35b346101735760603660031901126101735760043567ffffffffffffffff811161017357610a11903690600401611221565b6024356001600160a01b038116919082900361017357610a2f6113e2565b805115610bb25760405190805160ff6001602094858181870195610a54818389611162565b81016003815203019020015416610b6d57600260405191610a74836111c7565b8383528483016001815260408401878152610ab9610aa78860608801956044358752604051809381928c51928391611162565b8101600381520301902095518661140e565b610ad66001860192511515839060ff801983541691151516179055565b518154610100600160a81b03191660089190911b610100600160a81b031617905551910155600654600160401b8110156105c657806001610b1a920160065561128e565b929092610972577fc5136ee9cbcdfae0f750e383ed3d0d7a24bbcd260f0b5ff469aa6b4a84d2743293610b5083610b649561140e565b604051938493604085526040850190611185565b918301520390a1005b60405162461bcd60e51b815260048101849052601960248201527f50726f6f66207479706520616c726561647920657869737473000000000000006044820152606490fd5b60405162461bcd60e51b815260206004820152601a60248201527f50726f6f6620747970652063616e6e6f7420626520656d7074790000000000006044820152606490fd5b34610173576101803660031901126101735767ffffffffffffffff60043581811161017357610c2a903690600401611221565b90366043121561017357604051610c40816111aa565b6101249181368411610173576024905b848210610f185750503661014312156101735760405192610c70846111e3565b836101649136831161017357905b828210610f085750503590811161017357610c9d903690600401611221565b9060405160ff6001865192602081818a0195610cba818389611162565b8101600381520301902001541615610ec357600260015414610eb157610cf160039160026001556040519182918851938491611162565b015260055492600019841461035c576001840160055560405190610d14826111aa565b33825260208201928684526040830190815260608301918252600060808401524260a0840152600060c08401528460e0840152856000526002602052610d8360406000209460018060a01b038551166bffffffffffffffffffffffff60a01b875416178655516001860161140e565b5160005b60088110610e9a5750505160005b60028110610e8357505090600f60e083610dc76080610de49601511515600c86019060ff801983541691151516179055565b60a0810151600d85015560c0810151600e8501550151910161140e565b336000526004602052604060002092835493600160401b8510156105c657610e668492610e3a877fc0b04028e7b044e610e837c16aa829c3ac6eda886999b98be29a1449db09701494600160209a0181556112db565b81549060031b9086821b91600019901b1916179055610e74604051928392604084526040840190611185565b828103898401523396611185565b0390a360018055604051908152f35b60019060208351930192600a828701015501610d95565b600190602083519301926002828801015501610d87565b604051633ee5aeb560e01b8152600490fd5b60405162461bcd60e51b815260206004820152601e60248201527f496e76616c6964206f7220696e6163746976652070726f6f66207479706500006044820152606490fd5b8135815260209182019101610c7e565b8135815260209182019101610c50565b346101735760208060031936011261017357600435606060e0604051610f4d816111aa565b600081528285820152604051610f62816111aa565b6101003682376040820152604051610f79816111e3565b60403682378382015260006080820152600060a0820152600060c08201520152610fa6600554821061151e565b600052600280825260406000209160405190610fc1826111aa565b83546001600160a01b03908116835293600190610fdf81830161132d565b908385019182526040519384878301906000905b6008821061113457505050611007856111aa565b60408681019586525193600a83016000865b8a82106111215750505061102c856111e3565b6060870194855260ff600c8401541697608088019815158952600d8401549260a0890193845261106a600f600e8701549660c08c019788520161132d565b9560e08a019687526040519b8c9a838c525116828b0152519661109b610200988960408d01526102208c0190611185565b9851600060608c015b6008821061110b57505050516101608a01906000915b8483106110f55750505050505061032d95965115156101a0880152516101c0870152516101e08601525190601f198584030190850152611185565b815181528d9b50918501919083019083016110ba565b825181528e9c50918401919086019084016110a4565b8254815291830191908301908401611019565b8254815291860191908601908301610ff3565b34610173576000366003190112610173576020906005548152f35b60005b8381106111755750506000910152565b8181015183820152602001611165565b9060209161119e81518092818552858086019101611162565b601f01601f1916010190565b610100810190811067ffffffffffffffff8211176105c657604052565b6080810190811067ffffffffffffffff8211176105c657604052565b6040810190811067ffffffffffffffff8211176105c657604052565b90601f8019910116810190811067ffffffffffffffff8211176105c657604052565b81601f820112156101735780359067ffffffffffffffff82116105c65760405192611256601f8401601f1916602001856111ff565b8284526020838301011161017357816000926020809301838601378301015290565b600435906001600160a01b038216820361017357565b6006548110156112c55760066000527ff652222313e28459528d920b65115c16c04f3efc82aaedc97be59f3f377c0d3f0190600090565b634e487b7160e01b600052603260045260246000fd5b80548210156112c55760005260206000200190600090565b90600182811c92168015611323575b602083101461130d57565b634e487b7160e01b600052602260045260246000fd5b91607f1691611302565b9060405191826000825492611341846112f3565b9081845260019485811690816000146113b0575060011461136d575b505061136b925003836111ff565b565b9093915060005260209081600020936000915b81831061139857505061136b9350820101388061135d565b85548884018501529485019487945091830191611380565b91505061136b94506020925060ff191682840152151560051b820101388061135d565b60243590811515820361017357565b6000546001600160a01b031633036113f657565b60405163118cdaa760e01b8152336004820152602490fd5b919091825167ffffffffffffffff81116105c65761142c82546112f3565b601f81116114d6575b50602080601f8311600114611472575081929394600092611467575b50508160011b916000199060031b1c1916179055565b015190503880611451565b90601f198316958460005282600020926000905b8882106114be575050836001959697106114a5575b505050811b019055565b015160001960f88460031b161c1916905538808061149b565b80600185968294968601518155019501930190611486565b600083815260208120601f840160051c81019260208510611514575b601f0160051c01915b828110611509575050611435565b8181556001016114fb565b90925082906114f2565b1561152557565b60405162461bcd60e51b8152602060048201526014602482015273141c9bdbd988191bd95cc81b9bdd08195e1a5cdd60621b6044820152606490fd5b60055481101561158257600052600260205260ff600c604060002001541690565b5060009056fea2646970667358221220497bac1ec2de1ff953882c47a4682a1a8c3685b622ab222ec4e94972bb2860d364736f6c6343000814003350726f6f66207479706520616c72656164792065786973747300000000000000","opcodes":"PUSH1 0x80 PUSH1 0x40 SWAP1 DUP1 DUP3 MSTORE CALLVALUE PUSH3 0x6BF JUMPI CALLER ISZERO PUSH3 0x6A9 JUMPI POP PUSH1 0x0 DUP1 SLOAD CALLER PUSH1 0x1 PUSH1 0x1 PUSH1 0xA0 SHL SUB NOT DUP3 AND DUP2 OR DUP4 SSTORE SWAP2 SWAP3 SWAP2 SWAP1 PUSH1 0x1 PUSH1 0x1 PUSH1 0xA0 SHL SUB AND PUSH32 0x8BE0079C531659141344CD1FD0A4F28419497F9722A3DAAFE3B4186F6B6457E0 DUP5 DUP1 LOG3 PUSH1 0x1 DUP1 DUP1 SSTORE DUP1 PUSH1 0x5 SSTORE PUSH3 0x6D PUSH3 0x6FA JUMP JUMPDEST PUSH1 0x15 DUP2 MSTORE PUSH1 0x20 SWAP1 DUP2 DUP2 ADD SWAP1 PUSH32 0x6964656E746974795F766572696669636174696F6E0000000000000000000000 DUP3 MSTORE DUP5 MLOAD SWAP4 PUSH3 0xAA DUP6 DUP5 PUSH3 0x71A JUMP JUMPDEST PUSH1 0x35 PUSH1 0x3 SWAP6 DUP7 PUSH1 0x15 DUP3 ADD MSTORE DUP3 PUSH1 0xFF SWAP3 DUP4 SWAP3 KECCAK256 ADD SLOAD AND PUSH3 0x676 JUMPI PUSH3 0xCE PUSH3 0x6C4 JUMP JUMPDEST SWAP6 DUP4 DUP8 MSTORE DUP6 DUP8 ADD SWAP2 DUP4 DUP4 MSTORE DUP9 DUP9 ADD SWAP2 DUP11 DUP4 MSTORE PUSH1 0x60 SWAP9 DUP10 DUP2 ADD DUP13 DUP2 MSTORE DUP12 MLOAD DUP11 DUP2 DUP1 DUP13 DUP13 MLOAD DUP1 SWAP3 PUSH3 0xFE SWAP3 PUSH3 0x742 JUMP JUMPDEST DUP2 ADD DUP7 DUP2 MSTORE SUB ADD SWAP1 KECCAK256 SWAP2 MLOAD PUSH3 0x115 SWAP1 DUP4 PUSH3 0x767 JUMP JUMPDEST SWAP5 MLOAD DUP7 DUP3 ADD DUP1 SLOAD SWAP6 MLOAD PUSH2 0x100 PUSH1 0x1 PUSH1 0xA8 SHL SUB PUSH1 0x8 SWAP2 SWAP1 SWAP2 SHL DUP2 AND SWAP3 ISZERO ISZERO DUP7 AND PUSH1 0x1 PUSH1 0x1 PUSH1 0xA8 SHL SUB NOT SWAP8 DUP9 AND OR SWAP3 SWAP1 SWAP3 OR SWAP1 SSTORE SWAP5 MLOAD PUSH1 0x2 SWAP1 SWAP2 ADD SSTORE PUSH1 0x6 DUP1 SLOAD PUSH9 0x10000000000000000 SWAP9 SWAP2 SWAP8 SWAP2 SWAP1 DUP10 DUP2 LT ISZERO PUSH3 0x662 JUMPI DUP8 DUP2 ADD DUP1 DUP11 SSTORE DUP2 LT ISZERO PUSH3 0x64E JUMPI SWAP2 PUSH3 0x1B9 DUP14 DUP16 SWAP4 PUSH3 0x1A1 DUP16 SWAP15 SWAP13 SWAP11 SWAP9 SWAP7 DUP6 SWAP1 PUSH1 0x1F SWAP16 SWAP14 SWAP12 SWAP10 SWAP8 DUP16 SWAP1 DUP15 DUP2 MSTORE KECCAK256 ADD PUSH3 0x767 JUMP JUMPDEST DUP2 MLOAD SWAP15 DUP16 SWAP5 DUP4 DUP7 MSTORE MLOAD SWAP5 DUP6 DUP1 SWAP5 DUP3 ADD MSTORE ADD SWAP1 PUSH3 0x742 JUMP JUMPDEST DUP14 DUP10 DUP14 ADD MSTORE DUP12 DUP12 PUSH32 0xC5136EE9CBCDFAE0F750E383ED3D0D7A24BBCD260F0B5FF469AA6B4A84D27432 SWAP14 DUP15 SWAP4 DUP14 NOT SWAP14 DUP15 SWAP2 ADD AND DUP2 ADD SUB ADD SWAP1 LOG1 PUSH3 0x1FB PUSH3 0x6FA JUMP JUMPDEST PUSH1 0x15 DUP2 MSTORE DUP13 DUP4 DUP8 PUSH1 0x35 DUP13 DUP6 ADD SWAP4 PUSH32 0x72657365617263685F61757468656E7469636974790000000000000000000000 DUP6 MSTORE MLOAD PUSH3 0x238 DUP2 DUP7 PUSH3 0x71A JUMP JUMPDEST DUP7 PUSH1 0x15 DUP3 ADD MSTORE KECCAK256 ADD SLOAD AND PUSH3 0x5FD JUMPI DUP12 DUP16 DUP16 DUP10 PUSH1 0x2 SWAP3 PUSH3 0x298 DUP16 PUSH3 0x25D PUSH3 0x6C4 JUMP JUMPDEST SWAP7 DUP10 DUP9 MSTORE DUP2 DUP9 ADD SWAP5 DUP6 MSTORE DUP6 DUP9 ADD SWAP4 DUP5 MSTORE DUP8 ADD SWAP5 PUSH1 0x32 DUP7 MSTORE MLOAD SWAP1 DUP2 DUP11 MLOAD PUSH3 0x286 DUP2 DUP4 DUP14 PUSH3 0x742 JUMP JUMPDEST DUP2 ADD DUP13 DUP2 MSTORE SUB ADD SWAP1 KECCAK256 SWAP6 MLOAD DUP7 PUSH3 0x767 JUMP JUMPDEST DUP12 DUP6 ADD SWAP2 MLOAD ISZERO ISZERO SWAP1 DUP11 DUP11 DUP14 DUP6 SLOAD SWAP4 MLOAD PUSH1 0x8 SHL AND SWAP4 AND SWAP2 AND OR OR SWAP1 SSTORE MLOAD SWAP2 ADD SSTORE DUP8 SLOAD DUP10 DUP2 LT ISZERO PUSH3 0x5E8 JUMPI DUP8 DUP2 ADD DUP1 DUP11 SSTORE DUP2 LT ISZERO PUSH3 0x5D3 JUMPI DUP16 SWAP3 DUP16 SWAP3 DUP16 SWAP5 DUP16 SWAP4 SWAP2 DUP16 SWAP3 SWAP2 DUP16 PUSH3 0x2F3 DUP16 PUSH1 0x1F SWAP6 DUP9 SWAP2 DUP6 MSTORE DUP4 DUP6 KECCAK256 ADD PUSH3 0x767 JUMP JUMPDEST PUSH3 0x311 DUP9 MLOAD SWAP9 DUP10 SWAP8 DUP2 DUP10 MSTORE MLOAD SWAP5 DUP6 DUP1 SWAP3 DUP11 ADD MSTORE DUP10 DUP10 ADD SWAP1 PUSH3 0x742 JUMP JUMPDEST DUP6 ADD MSTORE ADD AND DUP2 ADD SUB ADD SWAP1 LOG1 DUP13 DUP13 DUP10 DUP5 DUP9 PUSH3 0x32B PUSH3 0x6FA JUMP JUMPDEST SWAP5 DUP7 PUSH1 0xE DUP1 DUP9 MSTORE DUP6 DUP9 ADD SWAP7 PUSH14 0x646174615F696E74656772697479 PUSH1 0x90 SHL DUP9 MSTORE MLOAD SWAP3 SWAP6 JUMPDEST DUP2 DUP8 LT PUSH3 0x630 JUMPI POP DUP3 ADD MSTORE PUSH1 0x2E SWAP1 KECCAK256 ADD SLOAD AND SWAP1 POP PUSH3 0x5FD JUMPI DUP12 DUP16 DUP16 DUP10 PUSH1 0x2 SWAP3 PUSH3 0x3A7 DUP16 PUSH3 0x37E PUSH3 0x6C4 JUMP JUMPDEST SWAP7 DUP10 DUP9 MSTORE DUP2 DUP9 ADD SWAP5 DUP6 MSTORE DUP6 DUP9 ADD SWAP4 DUP5 MSTORE DUP8 ADD SWAP5 PUSH1 0x19 DUP7 MSTORE MLOAD SWAP1 DUP2 DUP11 MLOAD PUSH3 0x286 DUP2 DUP4 DUP14 PUSH3 0x742 JUMP JUMPDEST DUP12 DUP6 ADD SWAP2 MLOAD ISZERO ISZERO SWAP1 DUP11 DUP11 DUP14 DUP6 SLOAD SWAP4 MLOAD PUSH1 0x8 SHL AND SWAP4 AND SWAP2 AND OR OR SWAP1 SSTORE MLOAD SWAP2 ADD SSTORE DUP8 SLOAD DUP10 DUP2 LT ISZERO PUSH3 0x5E8 JUMPI DUP8 DUP2 ADD DUP1 DUP11 SSTORE DUP2 LT ISZERO PUSH3 0x5D3 JUMPI SWAP4 DUP16 SWAP8 DUP16 SWAP13 SWAP12 SWAP10 SWAP8 SWAP6 SWAP9 DUP16 DUP16 DUP16 SWAP1 DUP16 SWAP8 PUSH11 0x706565725F726576696577 PUSH1 0xA8 SHL SWAP16 SWAP14 SWAP9 DUP16 DUP8 SWAP14 SWAP12 SWAP10 DUP16 PUSH1 0x1F SWAP3 PUSH3 0x41F DUP7 DUP14 SWAP16 DUP13 SWAP5 DUP6 MSTORE DUP4 DUP6 KECCAK256 ADD PUSH3 0x767 JUMP JUMPDEST PUSH3 0x43D DUP9 MLOAD SWAP9 DUP10 SWAP8 DUP2 DUP10 MSTORE MLOAD SWAP5 DUP6 DUP1 SWAP3 DUP11 ADD MSTORE DUP10 DUP10 ADD SWAP1 PUSH3 0x742 JUMP JUMPDEST DUP6 ADD MSTORE ADD AND DUP2 ADD SUB ADD SWAP1 LOG1 DUP11 PUSH3 0x453 PUSH3 0x6FA JUMP JUMPDEST PUSH1 0xB DUP2 MSTORE DUP2 DUP2 ADD SWAP14 DUP15 MSTORE SWAP15 MLOAD SWAP2 DUP16 JUMPDEST PUSH1 0xB DUP3 LT PUSH3 0x5BA JUMPI POP POP POP DUP1 DUP5 PUSH1 0xB PUSH1 0x2B SWAP4 ADD MSTORE KECCAK256 ADD SLOAD AND PUSH3 0x587 JUMPI DUP12 SWAP4 DUP16 DUP16 SWAP4 SWAP5 PUSH1 0x2 SWAP6 PUSH3 0x4DA DUP16 DUP14 DUP16 DUP13 SWAP9 PUSH3 0x4C8 SWAP4 PUSH3 0x4A1 PUSH3 0x6C4 JUMP JUMPDEST SWAP14 DUP15 DUP3 DUP2 MSTORE DUP6 DUP2 ADD SWAP13 DUP14 MSTORE DUP14 DUP2 ADD SWAP11 DUP12 MSTORE ADD SWAP12 PUSH1 0x64 DUP14 MSTORE MLOAD SWAP5 DUP6 SWAP4 DUP5 SWAP3 MLOAD SWAP3 DUP4 SWAP2 PUSH3 0x742 JUMP JUMPDEST DUP3 ADD SWAP1 DUP2 MSTORE SUB ADD SWAP1 KECCAK256 SWAP9 MLOAD DUP10 PUSH3 0x767 JUMP JUMPDEST DUP9 DUP9 ADD SWAP5 MLOAD ISZERO ISZERO SWAP4 DUP6 SLOAD SWAP4 MLOAD PUSH1 0x8 SHL AND SWAP4 AND SWAP2 AND OR OR SWAP1 SSTORE MLOAD SWAP2 ADD SSTORE DUP2 SLOAD SWAP3 DUP4 LT ISZERO PUSH3 0x573 JUMPI DUP3 ADD DUP1 DUP3 SSTORE DUP3 LT ISZERO PUSH3 0x55F JUMPI SWAP2 PUSH3 0x52C DUP7 DUP12 SWAP4 PUSH1 0x1F SWAP7 SWAP6 PUSH3 0x546 SWAP12 SWAP13 SWAP14 MSTORE DUP4 DUP6 KECCAK256 ADD PUSH3 0x767 JUMP JUMPDEST DUP10 MLOAD SWAP8 DUP9 SWAP7 DUP12 DUP9 MSTORE MLOAD DUP1 SWAP5 DUP2 DUP14 DUP11 ADD MSTORE DUP10 DUP10 ADD SWAP1 PUSH3 0x742 JUMP JUMPDEST DUP6 ADD MSTORE ADD AND DUP2 ADD SUB ADD SWAP1 LOG1 MLOAD PUSH2 0x15BE SWAP1 DUP2 PUSH3 0x8B6 DUP3 CODECOPY RETURN JUMPDEST PUSH4 0x4E487B71 PUSH1 0xE0 SHL DUP11 MSTORE PUSH1 0x32 PUSH1 0x4 MSTORE PUSH1 0x24 DUP11 REVERT JUMPDEST PUSH4 0x4E487B71 PUSH1 0xE0 SHL DUP12 MSTORE PUSH1 0x41 PUSH1 0x4 MSTORE PUSH1 0x24 DUP12 REVERT JUMPDEST DUP14 MLOAD PUSH3 0x461BCD PUSH1 0xE5 SHL DUP2 MSTORE PUSH1 0x4 DUP2 ADD DUP10 SWAP1 MSTORE PUSH1 0x19 PUSH1 0x24 DUP3 ADD MSTORE PUSH1 0x0 DUP1 MLOAD PUSH1 0x20 PUSH3 0x1E74 DUP4 CODECOPY DUP2 MLOAD SWAP2 MSTORE PUSH1 0x44 DUP3 ADD MSTORE PUSH1 0x64 SWAP1 REVERT JUMPDEST DUP2 ADD DUP3 ADD MLOAD DUP4 DUP3 ADD MSTORE DUP7 SWAP5 POP DUP10 SWAP4 POP DUP13 SWAP2 ADD DUP16 PUSH3 0x462 JUMP JUMPDEST POP PUSH4 0x4E487B71 PUSH1 0xE0 SHL DUP16 MSTORE PUSH1 0x32 PUSH1 0x4 MSTORE PUSH1 0x24 DUP16 REVERT JUMPDEST POP PUSH4 0x4E487B71 PUSH1 0xE0 SHL DUP16 MSTORE PUSH1 0x41 PUSH1 0x4 MSTORE PUSH1 0x24 DUP16 REVERT JUMPDEST DUP14 MLOAD PUSH3 0x461BCD PUSH1 0xE5 SHL DUP2 MSTORE PUSH1 0x4 DUP2 ADD DUP12 SWAP1 MSTORE PUSH1 0x19 PUSH1 0x24 DUP3 ADD MSTORE PUSH1 0x0 DUP1 MLOAD PUSH1 0x20 PUSH3 0x1E74 DUP4 CODECOPY DUP2 MLOAD SWAP2 MSTORE PUSH1 0x44 DUP3 ADD MSTORE PUSH1 0x64 SWAP1 REVERT JUMPDEST SWAP4 POP SWAP4 POP POP SWAP3 DUP2 DUP2 DUP8 ADD ADD MLOAD DUP2 DUP6 ADD MSTORE ADD SWAP2 DUP10 SWAP1 DUP7 DUP9 SWAP4 DUP16 PUSH3 0x34E JUMP JUMPDEST PUSH4 0x4E487B71 PUSH1 0xE0 SHL DUP15 MSTORE PUSH1 0x32 PUSH1 0x4 MSTORE PUSH1 0x24 DUP15 REVERT JUMPDEST PUSH4 0x4E487B71 PUSH1 0xE0 SHL DUP15 MSTORE PUSH1 0x41 PUSH1 0x4 MSTORE PUSH1 0x24 DUP15 REVERT JUMPDEST DUP7 MLOAD PUSH3 0x461BCD PUSH1 0xE5 SHL DUP2 MSTORE PUSH1 0x4 DUP2 ADD DUP7 SWAP1 MSTORE PUSH1 0x19 PUSH1 0x24 DUP3 ADD MSTORE PUSH1 0x0 DUP1 MLOAD PUSH1 0x20 PUSH3 0x1E74 DUP4 CODECOPY DUP2 MLOAD SWAP2 MSTORE PUSH1 0x44 DUP3 ADD MSTORE PUSH1 0x64 SWAP1 REVERT JUMPDEST PUSH4 0x1E4FBDF7 PUSH1 0xE0 SHL DUP2 MSTORE PUSH1 0x0 PUSH1 0x4 DUP3 ADD MSTORE PUSH1 0x24 SWAP1 REVERT JUMPDEST PUSH1 0x0 DUP1 REVERT JUMPDEST PUSH1 0x40 MLOAD SWAP1 PUSH1 0x80 DUP3 ADD PUSH1 0x1 PUSH1 0x1 PUSH1 0x40 SHL SUB DUP2 GT DUP4 DUP3 LT OR PUSH3 0x6E4 JUMPI PUSH1 0x40 MSTORE JUMP JUMPDEST PUSH4 0x4E487B71 PUSH1 0xE0 SHL PUSH1 0x0 MSTORE PUSH1 0x41 PUSH1 0x4 MSTORE PUSH1 0x24 PUSH1 0x0 REVERT JUMPDEST PUSH1 0x40 DUP1 MLOAD SWAP2 SWAP1 DUP3 ADD PUSH1 0x1 PUSH1 0x1 PUSH1 0x40 SHL SUB DUP2 GT DUP4 DUP3 LT OR PUSH3 0x6E4 JUMPI PUSH1 0x40 MSTORE JUMP JUMPDEST PUSH1 0x0 JUMPDEST PUSH1 0x15 DUP2 LT PUSH3 0x731 JUMPI POP POP PUSH1 0x15 PUSH1 0x0 SWAP2 ADD MSTORE JUMP JUMPDEST DUP2 DUP2 ADD MLOAD DUP4 DUP3 ADD MSTORE PUSH1 0x20 ADD PUSH3 0x71D JUMP JUMPDEST PUSH1 0x0 JUMPDEST DUP4 DUP2 LT PUSH3 0x756 JUMPI POP POP PUSH1 0x0 SWAP2 ADD MSTORE JUMP JUMPDEST DUP2 DUP2 ADD MLOAD DUP4 DUP3 ADD MSTORE PUSH1 0x20 ADD PUSH3 0x745 JUMP JUMPDEST DUP2 MLOAD SWAP1 SWAP2 SWAP1 PUSH1 0x1 PUSH1 0x1 PUSH1 0x40 SHL SUB DUP2 GT PUSH3 0x6E4 JUMPI DUP3 SLOAD PUSH1 0x1 SWAP3 DUP4 DUP3 AND SWAP2 DUP5 SHR DUP3 ISZERO PUSH3 0x8AC JUMPI JUMPDEST PUSH1 0x20 SWAP3 DUP4 DUP3 LT EQ PUSH3 0x896 JUMPI PUSH1 0x1F DUP2 GT PUSH3 0x848 JUMPI JUMPDEST POP DUP2 PUSH1 0x1F DUP5 GT PUSH1 0x1 EQ PUSH3 0x7E1 JUMPI POP SWAP3 DUP3 SWAP4 SWAP2 DUP4 SWAP3 PUSH1 0x0 SWAP5 PUSH3 0x7D5 JUMPI JUMPDEST POP POP SHL SWAP2 PUSH1 0x0 NOT SWAP1 PUSH1 0x3 SHL SHR NOT AND OR SWAP1 SSTORE JUMP JUMPDEST ADD MLOAD SWAP3 POP CODESIZE DUP1 PUSH3 0x7C2 JUMP JUMPDEST SWAP2 SWAP1 DUP4 PUSH1 0x1F NOT DUP2 AND DUP8 PUSH1 0x0 MSTORE DUP5 PUSH1 0x0 KECCAK256 SWAP5 PUSH1 0x0 SWAP1 JUMPDEST DUP9 DUP4 DUP4 LT PUSH3 0x82D JUMPI POP POP POP LT PUSH3 0x813 JUMPI JUMPDEST POP POP POP DUP2 SHL ADD SWAP1 SSTORE JUMP JUMPDEST ADD MLOAD PUSH1 0x0 NOT PUSH1 0xF8 DUP5 PUSH1 0x3 SHL AND SHR NOT AND SWAP1 SSTORE CODESIZE DUP1 DUP1 PUSH3 0x809 JUMP JUMPDEST DUP6 DUP8 ADD MLOAD DUP9 SSTORE SWAP1 SWAP7 ADD SWAP6 SWAP5 DUP6 ADD SWAP5 DUP8 SWAP4 POP SWAP1 DUP2 ADD SWAP1 PUSH3 0x7F6 JUMP JUMPDEST DUP6 PUSH1 0x0 MSTORE DUP3 PUSH1 0x0 KECCAK256 PUSH1 0x1F DUP6 ADD PUSH1 0x5 SHR DUP2 ADD SWAP2 DUP5 DUP7 LT PUSH3 0x88B JUMPI JUMPDEST PUSH1 0x1F ADD PUSH1 0x5 SHR ADD SWAP1 DUP6 SWAP1 JUMPDEST DUP3 DUP2 LT PUSH3 0x87E JUMPI POP POP PUSH3 0x7A4 JUMP JUMPDEST PUSH1 0x0 DUP2 SSTORE ADD DUP6 SWAP1 PUSH3 0x86E JUMP JUMPDEST SWAP1 SWAP2 POP DUP2 SWAP1 PUSH3 0x863 JUMP JUMPDEST PUSH4 0x4E487B71 PUSH1 0xE0 SHL PUSH1 0x0 MSTORE PUSH1 0x22 PUSH1 0x4 MSTORE PUSH1 0x24 PUSH1 0x0 REVERT JUMPDEST PUSH1 0x7F AND PUSH3 0x78E JUMP INVALID PUSH1 0x80 DUP1 PUSH1 0x40 MSTORE PUSH1 0x4 CALLDATASIZE LT ISZERO PUSH2 0x13 JUMPI PUSH1 0x0 DUP1 REVERT JUMPDEST PUSH1 0x0 CALLDATALOAD PUSH1 0xE0 SHR SWAP1 DUP2 PUSH4 0x8AC8D22 EQ PUSH2 0x1147 JUMPI POP DUP1 PUSH4 0x11149ADA EQ PUSH2 0xF28 JUMPI DUP1 PUSH4 0x1ACBCE14 EQ PUSH2 0xBF7 JUMPI DUP1 PUSH4 0x2EB4A65E EQ PUSH2 0x9E0 JUMPI DUP1 PUSH4 0x373B58E6 EQ PUSH2 0x988 JUMPI DUP1 PUSH4 0x41C7CE2E EQ PUSH2 0x927 JUMPI DUP1 PUSH4 0x46BDFB80 EQ PUSH2 0x873 JUMPI DUP1 PUSH4 0x56EF9CB5 EQ PUSH2 0x6DB JUMPI DUP1 PUSH4 0x66B92F9E EQ PUSH2 0x635 JUMPI DUP1 PUSH4 0x715018A6 EQ PUSH2 0x5DC JUMPI DUP1 PUSH4 0x74235369 EQ PUSH2 0x4D2 JUMPI DUP1 PUSH4 0x8129CD07 EQ PUSH2 0x39B JUMPI DUP1 PUSH4 0x8DA5CB5B EQ PUSH2 0x372 JUMPI DUP1 PUSH4 0x9B1BC0C9 EQ PUSH2 0x331 JUMPI DUP1 PUSH4 0x9DDAF5AA EQ PUSH2 0x294 JUMPI DUP1 PUSH4 0xBF6618F9 EQ PUSH2 0x1A0 JUMPI DUP1 PUSH4 0xE96F88EA EQ PUSH2 0x178 JUMPI PUSH4 0xF2FDE38B EQ PUSH2 0xE5 JUMPI PUSH1 0x0 DUP1 REVERT JUMPDEST CALLVALUE PUSH2 0x173 JUMPI PUSH1 0x20 CALLDATASIZE PUSH1 0x3 NOT ADD SLT PUSH2 0x173 JUMPI PUSH2 0xFE PUSH2 0x1278 JUMP JUMPDEST PUSH2 0x106 PUSH2 0x13E2 JUMP JUMPDEST PUSH1 0x1 PUSH1 0x1 PUSH1 0xA0 SHL SUB SWAP1 DUP2 AND SWAP1 DUP2 ISZERO PUSH2 0x15A JUMPI PUSH1 0x0 SLOAD DUP3 PUSH12 0xFFFFFFFFFFFFFFFFFFFFFFFF PUSH1 0xA0 SHL DUP3 AND OR PUSH1 0x0 SSTORE AND PUSH32 0x8BE0079C531659141344CD1FD0A4F28419497F9722A3DAAFE3B4186F6B6457E0 PUSH1 0x0 DUP1 LOG3 STOP JUMPDEST PUSH1 0x40 MLOAD PUSH4 0x1E4FBDF7 PUSH1 0xE0 SHL DUP2 MSTORE PUSH1 0x0 PUSH1 0x4 DUP3 ADD MSTORE PUSH1 0x24 SWAP1 REVERT JUMPDEST PUSH1 0x0 DUP1 REVERT JUMPDEST CALLVALUE PUSH2 0x173 JUMPI PUSH1 0x20 CALLDATASIZE PUSH1 0x3 NOT ADD SLT PUSH2 0x173 JUMPI PUSH1 0x20 PUSH2 0x196 PUSH1 0x4 CALLDATALOAD PUSH2 0x1561 JUMP JUMPDEST PUSH1 0x40 MLOAD SWAP1 ISZERO ISZERO DUP2 MSTORE RETURN JUMPDEST CALLVALUE PUSH2 0x173 JUMPI PUSH1 0x20 DUP1 PUSH1 0x3 NOT CALLDATASIZE ADD SLT PUSH2 0x173 JUMPI PUSH1 0x4 CALLDATALOAD SWAP1 PUSH8 0xFFFFFFFFFFFFFFFF DUP3 GT PUSH2 0x173 JUMPI PUSH2 0x20C DUP2 PUSH2 0x1D9 PUSH1 0x80 SWAP5 CALLDATASIZE SWAP1 PUSH1 0x4 ADD PUSH2 0x1221 JUMP JUMPDEST PUSH1 0x0 PUSH1 0x60 PUSH1 0x40 MLOAD PUSH2 0x1E9 DUP2 PUSH2 0x11C7 JUMP JUMPDEST DUP2 DUP2 MSTORE DUP3 DUP6 DUP3 ADD MSTORE DUP3 PUSH1 0x40 DUP3 ADD MSTORE ADD MSTORE DUP2 PUSH1 0x40 MLOAD SWAP4 DUP3 DUP6 DUP1 SWAP5 MLOAD SWAP4 DUP5 SWAP3 ADD PUSH2 0x1162 JUMP JUMPDEST DUP2 ADD PUSH1 0x3 DUP2 MSTORE SUB ADD SWAP1 KECCAK256 PUSH1 0x40 MLOAD SWAP2 PUSH2 0x223 DUP4 PUSH2 0x11C7 JUMP JUMPDEST PUSH2 0x22C DUP3 PUSH2 0x132D JUMP JUMPDEST DUP4 MSTORE PUSH1 0x1 DUP3 ADD SLOAD DUP2 DUP5 ADD SWAP3 PUSH1 0xFF DUP3 AND ISZERO ISZERO DUP5 MSTORE PUSH2 0x27A PUSH1 0x2 PUSH1 0x40 DUP8 ADD SWAP3 PUSH1 0x1 DUP1 PUSH1 0xA0 SHL SUB DUP1 SWAP6 PUSH1 0x8 SHR AND DUP5 MSTORE ADD SLOAD SWAP4 PUSH1 0x60 DUP8 ADD SWAP5 DUP6 MSTORE PUSH1 0x40 MLOAD SWAP8 DUP9 SWAP8 DUP3 DUP10 MSTORE MLOAD SWAP2 DUP9 ADD MSTORE PUSH1 0xA0 DUP8 ADD SWAP1 PUSH2 0x1185 JUMP JUMPDEST SWAP4 MLOAD ISZERO ISZERO PUSH1 0x40 DUP7 ADD MSTORE MLOAD AND PUSH1 0x60 DUP5 ADD MSTORE MLOAD PUSH1 0x80 DUP4 ADD MSTORE SUB SWAP1 RETURN JUMPDEST CALLVALUE PUSH2 0x173 JUMPI PUSH1 0x20 CALLDATASIZE PUSH1 0x3 NOT ADD SLT PUSH2 0x173 JUMPI PUSH1 0x4 CALLDATALOAD PUSH1 0x0 SWAP1 DUP2 MSTORE PUSH1 0x2 PUSH1 0x20 MSTORE PUSH1 0x40 SWAP1 KECCAK256 DUP1 SLOAD PUSH1 0x1 PUSH1 0x1 PUSH1 0xA0 SHL SUB AND PUSH2 0x32D PUSH2 0x2D0 PUSH1 0x1 DUP5 ADD PUSH2 0x132D JUMP JUMPDEST SWAP3 PUSH1 0xFF PUSH1 0xC DUP3 ADD SLOAD AND SWAP1 PUSH1 0xD DUP2 ADD SLOAD SWAP1 PUSH2 0x2F1 PUSH1 0xF PUSH1 0xE DUP4 ADD SLOAD SWAP3 ADD PUSH2 0x132D JUMP JUMPDEST SWAP2 PUSH2 0x30E PUSH1 0x40 MLOAD SWAP8 DUP9 SWAP8 DUP9 MSTORE PUSH1 0xC0 PUSH1 0x20 DUP10 ADD MSTORE PUSH1 0xC0 DUP9 ADD SWAP1 PUSH2 0x1185 JUMP JUMPDEST SWAP4 ISZERO ISZERO PUSH1 0x40 DUP8 ADD MSTORE PUSH1 0x60 DUP7 ADD MSTORE PUSH1 0x80 DUP6 ADD MSTORE DUP4 DUP3 SUB PUSH1 0xA0 DUP6 ADD MSTORE PUSH2 0x1185 JUMP JUMPDEST SUB SWAP1 RETURN JUMPDEST CALLVALUE PUSH2 0x173 JUMPI PUSH1 0x0 CALLDATASIZE PUSH1 0x3 NOT ADD SLT PUSH2 0x173 JUMPI PUSH1 0x5 SLOAD PUSH1 0x0 NOT DUP2 ADD SWAP1 DUP2 GT PUSH2 0x35C JUMPI PUSH1 0x20 SWAP1 PUSH1 0x40 MLOAD SWAP1 DUP2 MSTORE RETURN JUMPDEST PUSH4 0x4E487B71 PUSH1 0xE0 SHL PUSH1 0x0 MSTORE PUSH1 0x11 PUSH1 0x4 MSTORE PUSH1 0x24 PUSH1 0x0 REVERT JUMPDEST CALLVALUE PUSH2 0x173 JUMPI PUSH1 0x0 CALLDATASIZE PUSH1 0x3 NOT ADD SLT PUSH2 0x173 JUMPI PUSH1 0x0 SLOAD PUSH1 0x40 MLOAD PUSH1 0x1 PUSH1 0x1 PUSH1 0xA0 SHL SUB SWAP1 SWAP2 AND DUP2 MSTORE PUSH1 0x20 SWAP1 RETURN JUMPDEST CALLVALUE PUSH2 0x173 JUMPI PUSH1 0x40 CALLDATASIZE PUSH1 0x3 NOT ADD SLT PUSH2 0x173 JUMPI PUSH1 0x4 CALLDATALOAD PUSH8 0xFFFFFFFFFFFFFFFF DUP2 GT PUSH2 0x173 JUMPI PUSH2 0x3CC SWAP1 CALLDATASIZE SWAP1 PUSH1 0x4 ADD PUSH2 0x1221 JUMP JUMPDEST PUSH2 0x3D4 PUSH2 0x13D3 JUMP JUMPDEST SWAP1 PUSH2 0x3DD PUSH2 0x13E2 JUMP JUMPDEST PUSH1 0x40 MLOAD SWAP1 PUSH2 0x409 DUP2 MLOAD SWAP3 PUSH1 0x20 DUP2 DUP2 DUP6 ADD SWAP6 PUSH2 0x3F9 DUP2 DUP4 DUP10 PUSH2 0x1162 JUMP JUMPDEST DUP2 ADD PUSH1 0x3 DUP2 MSTORE SUB ADD SWAP1 KECCAK256 SLOAD PUSH2 0x12F3 JUMP JUMPDEST ISZERO PUSH2 0x48D JUMPI DUP3 PUSH2 0x46C PUSH32 0xD91FB3AD497A5EAC04E08BAACAA347B1EEF608D1B43BCD4F35A7ED25EA5E8C25 SWAP5 PUSH1 0x1 PUSH2 0x450 PUSH1 0x20 PUSH2 0x480 SWAP8 PUSH1 0x40 MLOAD DUP1 SWAP4 DUP2 SWAP3 DUP11 MLOAD SWAP3 DUP4 SWAP2 PUSH2 0x1162 JUMP JUMPDEST DUP2 ADD PUSH1 0x3 DUP2 MSTORE SUB ADD SWAP1 KECCAK256 ADD SWAP1 PUSH1 0xFF DUP1 NOT DUP4 SLOAD AND SWAP2 ISZERO ISZERO AND OR SWAP1 SSTORE JUMP JUMPDEST PUSH1 0x40 MLOAD SWAP3 DUP4 SWAP3 PUSH1 0x40 DUP5 MSTORE PUSH1 0x40 DUP5 ADD SWAP1 PUSH2 0x1185 JUMP JUMPDEST SWAP1 ISZERO ISZERO PUSH1 0x20 DUP4 ADD MSTORE SUB SWAP1 LOG1 STOP JUMPDEST PUSH1 0x40 MLOAD PUSH3 0x461BCD PUSH1 0xE5 SHL DUP2 MSTORE PUSH1 0x20 PUSH1 0x4 DUP3 ADD MSTORE PUSH1 0x19 PUSH1 0x24 DUP3 ADD MSTORE PUSH32 0x50726F6F66207479706520646F6573206E6F7420657869737400000000000000 PUSH1 0x44 DUP3 ADD MSTORE PUSH1 0x64 SWAP1 REVERT JUMPDEST CALLVALUE PUSH2 0x173 JUMPI PUSH1 0x0 CALLDATASIZE PUSH1 0x3 NOT ADD SLT PUSH2 0x173 JUMPI PUSH1 0x6 SLOAD PUSH8 0xFFFFFFFFFFFFFFFF DUP2 GT PUSH2 0x5C6 JUMPI PUSH1 0x40 MLOAD SWAP1 PUSH1 0x20 SWAP1 PUSH2 0x50B DUP3 DUP3 PUSH1 0x5 SHL ADD DUP5 PUSH2 0x11FF JUMP JUMPDEST DUP1 DUP4 MSTORE DUP2 DUP4 ADD SWAP1 DUP2 PUSH1 0x6 PUSH1 0x0 MSTORE PUSH32 0xF652222313E28459528D920B65115C16C04F3EFC82AAEDC97BE59F3F377C0D3F PUSH1 0x0 SWAP2 JUMPDEST DUP4 DUP4 LT PUSH2 0x5A4 JUMPI POP POP POP POP PUSH1 0x40 MLOAD SWAP2 DUP1 DUP4 ADD SWAP4 DUP2 DUP5 MSTORE MLOAD DUP1 SWAP5 MSTORE PUSH1 0x40 DUP4 ADD SWAP4 PUSH1 0x40 DUP2 PUSH1 0x5 SHL DUP6 ADD ADD SWAP3 SWAP2 PUSH1 0x0 SWAP6 JUMPDEST DUP3 DUP8 LT PUSH2 0x578 JUMPI DUP6 DUP6 SUB DUP7 RETURN JUMPDEST SWAP1 SWAP2 SWAP3 SWAP4 DUP3 DUP1 PUSH2 0x594 PUSH1 0x1 SWAP4 PUSH1 0x3F NOT DUP11 DUP3 SUB ADD DUP7 MSTORE DUP9 MLOAD PUSH2 0x1185 JUMP JUMPDEST SWAP7 ADD SWAP3 ADD SWAP7 ADD SWAP6 SWAP3 SWAP2 SWAP1 SWAP3 PUSH2 0x56B JUMP JUMPDEST PUSH1 0x1 DUP7 DUP2 SWAP3 PUSH2 0x5B5 DUP6 SWAP11 SWAP10 SWAP11 PUSH2 0x132D JUMP JUMPDEST DUP2 MSTORE ADD SWAP3 ADD SWAP3 ADD SWAP2 SWAP1 SWAP6 SWAP5 SWAP6 PUSH2 0x53D JUMP JUMPDEST PUSH4 0x4E487B71 PUSH1 0xE0 SHL PUSH1 0x0 MSTORE PUSH1 0x41 PUSH1 0x4 MSTORE PUSH1 0x24 PUSH1 0x0 REVERT JUMPDEST CALLVALUE PUSH2 0x173 JUMPI PUSH1 0x0 CALLDATASIZE PUSH1 0x3 NOT ADD SLT PUSH2 0x173 JUMPI PUSH2 0x5F5 PUSH2 0x13E2 JUMP JUMPDEST PUSH1 0x0 DUP1 SLOAD PUSH1 0x1 PUSH1 0x1 PUSH1 0xA0 SHL SUB NOT DUP2 AND DUP3 SSTORE PUSH1 0x1 PUSH1 0x1 PUSH1 0xA0 SHL SUB AND PUSH32 0x8BE0079C531659141344CD1FD0A4F28419497F9722A3DAAFE3B4186F6B6457E0 DUP3 DUP1 LOG3 STOP JUMPDEST CALLVALUE PUSH2 0x173 JUMPI PUSH1 0x20 CALLDATASIZE PUSH1 0x3 NOT ADD SLT PUSH2 0x173 JUMPI PUSH1 0x4 CALLDATALOAD PUSH8 0xFFFFFFFFFFFFFFFF DUP2 GT PUSH2 0x173 JUMPI PUSH2 0x681 PUSH1 0x20 PUSH2 0x66E PUSH2 0x6B3 SWAP4 CALLDATASIZE SWAP1 PUSH1 0x4 ADD PUSH2 0x1221 JUMP JUMPDEST DUP2 PUSH1 0x40 MLOAD SWAP4 DUP3 DUP6 DUP1 SWAP5 MLOAD SWAP4 DUP5 SWAP3 ADD PUSH2 0x1162 JUMP JUMPDEST DUP2 ADD PUSH1 0x3 DUP2 MSTORE SUB ADD SWAP1 KECCAK256 PUSH2 0x694 DUP2 PUSH2 0x132D JUMP JUMPDEST SWAP1 PUSH1 0x2 PUSH1 0x1 DUP3 ADD SLOAD SWAP2 ADD SLOAD PUSH1 0x40 MLOAD SWAP4 DUP5 SWAP4 PUSH1 0x80 DUP6 MSTORE PUSH1 0x80 DUP6 ADD SWAP1 PUSH2 0x1185 JUMP JUMPDEST PUSH1 0xFF DUP4 AND ISZERO ISZERO PUSH1 0x20 DUP6 ADD MSTORE PUSH1 0x8 SWAP3 SWAP1 SWAP3 SHR PUSH1 0x1 PUSH1 0x1 PUSH1 0xA0 SHL SUB AND PUSH1 0x40 DUP5 ADD MSTORE PUSH1 0x60 DUP4 ADD MSTORE SUB SWAP1 RETURN JUMPDEST CALLVALUE PUSH2 0x173 JUMPI PUSH1 0x40 CALLDATASIZE PUSH1 0x3 NOT ADD SLT PUSH2 0x173 JUMPI PUSH1 0x4 CALLDATALOAD PUSH2 0x6F7 PUSH2 0x13D3 JUMP JUMPDEST SWAP1 DUP1 PUSH1 0x0 MSTORE PUSH1 0x20 PUSH1 0x2 DUP2 MSTORE PUSH2 0x712 PUSH1 0x1 PUSH1 0x40 PUSH1 0x0 KECCAK256 ADD PUSH2 0x132D JUMP JUMPDEST PUSH1 0x0 SLOAD CALLER PUSH1 0x1 PUSH1 0x1 PUSH1 0xA0 SHL SUB SWAP2 DUP3 AND EQ SWAP2 DUP4 SWAP1 DUP4 ISZERO PUSH2 0x83C JUMPI JUMPDEST POP POP POP ISZERO PUSH2 0x7E7 JUMPI PUSH2 0x741 PUSH1 0x5 SLOAD DUP4 LT PUSH2 0x151E JUMP JUMPDEST DUP2 PUSH1 0x0 MSTORE PUSH1 0x2 DUP2 MSTORE PUSH1 0xFF PUSH1 0xC PUSH1 0x40 PUSH1 0x0 KECCAK256 ADD SLOAD AND PUSH2 0x7AA JUMPI PUSH32 0x70C9579A34961B8E4495AFEA0520B52EDC90522592E0784A023D52983ABE2B16 SWAP1 DUP3 PUSH1 0x0 MSTORE PUSH1 0x2 DUP2 MSTORE PUSH1 0x40 PUSH1 0x0 KECCAK256 PUSH1 0xC DUP2 ADD PUSH1 0x1 PUSH1 0xFF NOT DUP3 SLOAD AND OR SWAP1 SSTORE PUSH1 0xE TIMESTAMP SWAP2 ADD SSTORE PUSH1 0x40 MLOAD SWAP4 ISZERO ISZERO DUP5 MSTORE CALLER SWAP4 LOG3 STOP JUMPDEST PUSH1 0x64 SWAP1 PUSH1 0x40 MLOAD SWAP1 PUSH3 0x461BCD PUSH1 0xE5 SHL DUP3 MSTORE PUSH1 0x4 DUP3 ADD MSTORE PUSH1 0x16 PUSH1 0x24 DUP3 ADD MSTORE PUSH22 0x141C9BDBD988185B1C9958591E481D995C9A599A5959 PUSH1 0x52 SHL PUSH1 0x44 DUP3 ADD MSTORE REVERT JUMPDEST PUSH1 0x84 SWAP1 PUSH1 0x40 MLOAD SWAP1 PUSH3 0x461BCD PUSH1 0xE5 SHL DUP3 MSTORE PUSH1 0x4 DUP3 ADD MSTORE PUSH1 0x28 PUSH1 0x24 DUP3 ADD MSTORE PUSH32 0x4E6F7420617574686F72697A656420746F207665726966792074686973207072 PUSH1 0x44 DUP3 ADD MSTORE PUSH8 0x6F6F662074797065 PUSH1 0xC0 SHL PUSH1 0x64 DUP3 ADD MSTORE REVERT JUMPDEST PUSH1 0x1 SWAP3 SWAP4 POP SWAP1 PUSH2 0x859 SWAP2 DUP2 PUSH1 0x40 MLOAD SWAP4 DUP3 DUP6 DUP1 SWAP5 MLOAD SWAP4 DUP5 SWAP3 ADD PUSH2 0x1162 JUMP JUMPDEST DUP2 ADD PUSH1 0x3 DUP2 MSTORE SUB ADD SWAP1 KECCAK256 ADD SLOAD PUSH1 0x8 SHR AND CALLER EQ DUP5 DUP3 DUP2 PUSH2 0x72C JUMP JUMPDEST CALLVALUE PUSH2 0x173 JUMPI PUSH1 0x20 DUP1 PUSH1 0x3 NOT CALLDATASIZE ADD SLT PUSH2 0x173 JUMPI PUSH1 0x1 PUSH1 0x1 PUSH1 0xA0 SHL SUB PUSH2 0x895 PUSH2 0x1278 JUMP JUMPDEST AND PUSH1 0x0 MSTORE PUSH1 0x4 DUP2 MSTORE PUSH1 0x40 PUSH1 0x0 KECCAK256 PUSH1 0x40 MLOAD SWAP1 DUP2 DUP4 DUP3 SLOAD SWAP2 DUP3 DUP2 MSTORE ADD SWAP1 DUP2 SWAP3 PUSH1 0x0 MSTORE DUP5 PUSH1 0x0 KECCAK256 SWAP1 PUSH1 0x0 JUMPDEST DUP7 DUP3 DUP3 LT PUSH2 0x913 JUMPI DUP7 DUP7 PUSH2 0x8D3 DUP3 DUP9 SUB DUP4 PUSH2 0x11FF JUMP JUMPDEST PUSH1 0x40 MLOAD SWAP3 DUP4 SWAP3 DUP2 DUP5 ADD SWAP1 DUP3 DUP6 MSTORE MLOAD DUP1 SWAP2 MSTORE PUSH1 0x40 DUP5 ADD SWAP3 SWAP2 PUSH1 0x0 JUMPDEST DUP3 DUP2 LT PUSH2 0x8FC JUMPI POP POP POP POP SUB SWAP1 RETURN JUMPDEST DUP4 MLOAD DUP6 MSTORE DUP7 SWAP6 POP SWAP4 DUP2 ADD SWAP4 SWAP3 DUP2 ADD SWAP3 PUSH1 0x1 ADD PUSH2 0x8ED JUMP JUMPDEST DUP4 SLOAD DUP6 MSTORE SWAP1 SWAP4 ADD SWAP3 PUSH1 0x1 SWAP3 DUP4 ADD SWAP3 ADD PUSH2 0x8BD JUMP JUMPDEST CALLVALUE PUSH2 0x173 JUMPI PUSH1 0x20 CALLDATASIZE PUSH1 0x3 NOT ADD SLT PUSH2 0x173 JUMPI PUSH1 0x4 CALLDATALOAD PUSH1 0x6 SLOAD DUP2 LT ISZERO PUSH2 0x173 JUMPI PUSH2 0x94E SWAP1 PUSH2 0x128E JUMP JUMPDEST PUSH2 0x972 JUMPI PUSH2 0x95E PUSH2 0x32D SWAP2 PUSH2 0x132D JUMP JUMPDEST PUSH1 0x40 MLOAD SWAP2 DUP3 SWAP2 PUSH1 0x20 DUP4 MSTORE PUSH1 0x20 DUP4 ADD SWAP1 PUSH2 0x1185 JUMP JUMPDEST PUSH4 0x4E487B71 PUSH1 0xE0 SHL PUSH1 0x0 MSTORE PUSH1 0x0 PUSH1 0x4 MSTORE PUSH1 0x24 PUSH1 0x0 REVERT JUMPDEST CALLVALUE PUSH2 0x173 JUMPI PUSH1 0x40 CALLDATASIZE PUSH1 0x3 NOT ADD SLT PUSH2 0x173 JUMPI PUSH2 0x9A1 PUSH2 0x1278 JUMP JUMPDEST PUSH1 0x1 PUSH1 0x1 PUSH1 0xA0 SHL SUB AND PUSH1 0x0 SWAP1 DUP2 MSTORE PUSH1 0x4 PUSH1 0x20 MSTORE PUSH1 0x40 SWAP1 KECCAK256 DUP1 SLOAD PUSH1 0x24 CALLDATALOAD SWAP2 SWAP1 DUP3 LT ISZERO PUSH2 0x173 JUMPI PUSH1 0x20 SWAP2 PUSH2 0x9D2 SWAP2 PUSH2 0x12DB JUMP JUMPDEST SWAP1 SLOAD PUSH1 0x40 MLOAD SWAP2 PUSH1 0x3 SHL SHR DUP2 MSTORE RETURN JUMPDEST CALLVALUE PUSH2 0x173 JUMPI PUSH1 0x60 CALLDATASIZE PUSH1 0x3 NOT ADD SLT PUSH2 0x173 JUMPI PUSH1 0x4 CALLDATALOAD PUSH8 0xFFFFFFFFFFFFFFFF DUP2 GT PUSH2 0x173 JUMPI PUSH2 0xA11 SWAP1 CALLDATASIZE SWAP1 PUSH1 0x4 ADD PUSH2 0x1221 JUMP JUMPDEST PUSH1 0x24 CALLDATALOAD PUSH1 0x1 PUSH1 0x1 PUSH1 0xA0 SHL SUB DUP2 AND SWAP2 SWAP1 DUP3 SWAP1 SUB PUSH2 0x173 JUMPI PUSH2 0xA2F PUSH2 0x13E2 JUMP JUMPDEST DUP1 MLOAD ISZERO PUSH2 0xBB2 JUMPI PUSH1 0x40 MLOAD SWAP1 DUP1 MLOAD PUSH1 0xFF PUSH1 0x1 PUSH1 0x20 SWAP5 DUP6 DUP2 DUP2 DUP8 ADD SWAP6 PUSH2 0xA54 DUP2 DUP4 DUP10 PUSH2 0x1162 JUMP JUMPDEST DUP2 ADD PUSH1 0x3 DUP2 MSTORE SUB ADD SWAP1 KECCAK256 ADD SLOAD AND PUSH2 0xB6D JUMPI PUSH1 0x2 PUSH1 0x40 MLOAD SWAP2 PUSH2 0xA74 DUP4 PUSH2 0x11C7 JUMP JUMPDEST DUP4 DUP4 MSTORE DUP5 DUP4 ADD PUSH1 0x1 DUP2 MSTORE PUSH1 0x40 DUP5 ADD DUP8 DUP2 MSTORE PUSH2 0xAB9 PUSH2 0xAA7 DUP9 PUSH1 0x60 DUP9 ADD SWAP6 PUSH1 0x44 CALLDATALOAD DUP8 MSTORE PUSH1 0x40 MLOAD DUP1 SWAP4 DUP2 SWAP3 DUP13 MLOAD SWAP3 DUP4 SWAP2 PUSH2 0x1162 JUMP JUMPDEST DUP2 ADD PUSH1 0x3 DUP2 MSTORE SUB ADD SWAP1 KECCAK256 SWAP6 MLOAD DUP7 PUSH2 0x140E JUMP JUMPDEST PUSH2 0xAD6 PUSH1 0x1 DUP7 ADD SWAP3 MLOAD ISZERO ISZERO DUP4 SWAP1 PUSH1 0xFF DUP1 NOT DUP4 SLOAD AND SWAP2 ISZERO ISZERO AND OR SWAP1 SSTORE JUMP JUMPDEST MLOAD DUP2 SLOAD PUSH2 0x100 PUSH1 0x1 PUSH1 0xA8 SHL SUB NOT AND PUSH1 0x8 SWAP2 SWAP1 SWAP2 SHL PUSH2 0x100 PUSH1 0x1 PUSH1 0xA8 SHL SUB AND OR SWAP1 SSTORE MLOAD SWAP2 ADD SSTORE PUSH1 0x6 SLOAD PUSH1 0x1 PUSH1 0x40 SHL DUP2 LT ISZERO PUSH2 0x5C6 JUMPI DUP1 PUSH1 0x1 PUSH2 0xB1A SWAP3 ADD PUSH1 0x6 SSTORE PUSH2 0x128E JUMP JUMPDEST SWAP3 SWAP1 SWAP3 PUSH2 0x972 JUMPI PUSH32 0xC5136EE9CBCDFAE0F750E383ED3D0D7A24BBCD260F0B5FF469AA6B4A84D27432 SWAP4 PUSH2 0xB50 DUP4 PUSH2 0xB64 SWAP6 PUSH2 0x140E JUMP JUMPDEST PUSH1 0x40 MLOAD SWAP4 DUP5 SWAP4 PUSH1 0x40 DUP6 MSTORE PUSH1 0x40 DUP6 ADD SWAP1 PUSH2 0x1185 JUMP JUMPDEST SWAP2 DUP4 ADD MSTORE SUB SWAP1 LOG1 STOP JUMPDEST PUSH1 0x40 MLOAD PUSH3 0x461BCD PUSH1 0xE5 SHL DUP2 MSTORE PUSH1 0x4 DUP2 ADD DUP5 SWAP1 MSTORE PUSH1 0x19 PUSH1 0x24 DUP3 ADD MSTORE PUSH32 0x50726F6F66207479706520616C72656164792065786973747300000000000000 PUSH1 0x44 DUP3 ADD MSTORE PUSH1 0x64 SWAP1 REVERT JUMPDEST PUSH1 0x40 MLOAD PUSH3 0x461BCD PUSH1 0xE5 SHL DUP2 MSTORE PUSH1 0x20 PUSH1 0x4 DUP3 ADD MSTORE PUSH1 0x1A PUSH1 0x24 DUP3 ADD MSTORE PUSH32 0x50726F6F6620747970652063616E6E6F7420626520656D707479000000000000 PUSH1 0x44 DUP3 ADD MSTORE PUSH1 0x64 SWAP1 REVERT JUMPDEST CALLVALUE PUSH2 0x173 JUMPI PUSH2 0x180 CALLDATASIZE PUSH1 0x3 NOT ADD SLT PUSH2 0x173 JUMPI PUSH8 0xFFFFFFFFFFFFFFFF PUSH1 0x4 CALLDATALOAD DUP2 DUP2 GT PUSH2 0x173 JUMPI PUSH2 0xC2A SWAP1 CALLDATASIZE SWAP1 PUSH1 0x4 ADD PUSH2 0x1221 JUMP JUMPDEST SWAP1 CALLDATASIZE PUSH1 0x43 SLT ISZERO PUSH2 0x173 JUMPI PUSH1 0x40 MLOAD PUSH2 0xC40 DUP2 PUSH2 0x11AA JUMP JUMPDEST PUSH2 0x124 SWAP2 DUP2 CALLDATASIZE DUP5 GT PUSH2 0x173 JUMPI PUSH1 0x24 SWAP1 JUMPDEST DUP5 DUP3 LT PUSH2 0xF18 JUMPI POP POP CALLDATASIZE PUSH2 0x143 SLT ISZERO PUSH2 0x173 JUMPI PUSH1 0x40 MLOAD SWAP3 PUSH2 0xC70 DUP5 PUSH2 0x11E3 JUMP JUMPDEST DUP4 PUSH2 0x164 SWAP2 CALLDATASIZE DUP4 GT PUSH2 0x173 JUMPI SWAP1 JUMPDEST DUP3 DUP3 LT PUSH2 0xF08 JUMPI POP POP CALLDATALOAD SWAP1 DUP2 GT PUSH2 0x173 JUMPI PUSH2 0xC9D SWAP1 CALLDATASIZE SWAP1 PUSH1 0x4 ADD PUSH2 0x1221 JUMP JUMPDEST SWAP1 PUSH1 0x40 MLOAD PUSH1 0xFF PUSH1 0x1 DUP7 MLOAD SWAP3 PUSH1 0x20 DUP2 DUP2 DUP11 ADD SWAP6 PUSH2 0xCBA DUP2 DUP4 DUP10 PUSH2 0x1162 JUMP JUMPDEST DUP2 ADD PUSH1 0x3 DUP2 MSTORE SUB ADD SWAP1 KECCAK256 ADD SLOAD AND ISZERO PUSH2 0xEC3 JUMPI PUSH1 0x2 PUSH1 0x1 SLOAD EQ PUSH2 0xEB1 JUMPI PUSH2 0xCF1 PUSH1 0x3 SWAP2 PUSH1 0x2 PUSH1 0x1 SSTORE PUSH1 0x40 MLOAD SWAP2 DUP3 SWAP2 DUP9 MLOAD SWAP4 DUP5 SWAP2 PUSH2 0x1162 JUMP JUMPDEST ADD MSTORE PUSH1 0x5 SLOAD SWAP3 PUSH1 0x0 NOT DUP5 EQ PUSH2 0x35C JUMPI PUSH1 0x1 DUP5 ADD PUSH1 0x5 SSTORE PUSH1 0x40 MLOAD SWAP1 PUSH2 0xD14 DUP3 PUSH2 0x11AA JUMP JUMPDEST CALLER DUP3 MSTORE PUSH1 0x20 DUP3 ADD SWAP3 DUP7 DUP5 MSTORE PUSH1 0x40 DUP4 ADD SWAP1 DUP2 MSTORE PUSH1 0x60 DUP4 ADD SWAP2 DUP3 MSTORE PUSH1 0x0 PUSH1 0x80 DUP5 ADD MSTORE TIMESTAMP PUSH1 0xA0 DUP5 ADD MSTORE PUSH1 0x0 PUSH1 0xC0 DUP5 ADD MSTORE DUP5 PUSH1 0xE0 DUP5 ADD MSTORE DUP6 PUSH1 0x0 MSTORE PUSH1 0x2 PUSH1 0x20 MSTORE PUSH2 0xD83 PUSH1 0x40 PUSH1 0x0 KECCAK256 SWAP5 PUSH1 0x1 DUP1 PUSH1 0xA0 SHL SUB DUP6 MLOAD AND PUSH12 0xFFFFFFFFFFFFFFFFFFFFFFFF PUSH1 0xA0 SHL DUP8 SLOAD AND OR DUP7 SSTORE MLOAD PUSH1 0x1 DUP7 ADD PUSH2 0x140E JUMP JUMPDEST MLOAD PUSH1 0x0 JUMPDEST PUSH1 0x8 DUP2 LT PUSH2 0xE9A JUMPI POP POP MLOAD PUSH1 0x0 JUMPDEST PUSH1 0x2 DUP2 LT PUSH2 0xE83 JUMPI POP POP SWAP1 PUSH1 0xF PUSH1 0xE0 DUP4 PUSH2 0xDC7 PUSH1 0x80 PUSH2 0xDE4 SWAP7 ADD MLOAD ISZERO ISZERO PUSH1 0xC DUP7 ADD SWAP1 PUSH1 0xFF DUP1 NOT DUP4 SLOAD AND SWAP2 ISZERO ISZERO AND OR SWAP1 SSTORE JUMP JUMPDEST PUSH1 0xA0 DUP2 ADD MLOAD PUSH1 0xD DUP6 ADD SSTORE PUSH1 0xC0 DUP2 ADD MLOAD PUSH1 0xE DUP6 ADD SSTORE ADD MLOAD SWAP2 ADD PUSH2 0x140E JUMP JUMPDEST CALLER PUSH1 0x0 MSTORE PUSH1 0x4 PUSH1 0x20 MSTORE PUSH1 0x40 PUSH1 0x0 KECCAK256 SWAP3 DUP4 SLOAD SWAP4 PUSH1 0x1 PUSH1 0x40 SHL DUP6 LT ISZERO PUSH2 0x5C6 JUMPI PUSH2 0xE66 DUP5 SWAP3 PUSH2 0xE3A DUP8 PUSH32 0xC0B04028E7B044E610E837C16AA829C3AC6EDA886999B98BE29A1449DB097014 SWAP5 PUSH1 0x1 PUSH1 0x20 SWAP11 ADD DUP2 SSTORE PUSH2 0x12DB JUMP JUMPDEST DUP2 SLOAD SWAP1 PUSH1 0x3 SHL SWAP1 DUP7 DUP3 SHL SWAP2 PUSH1 0x0 NOT SWAP1 SHL NOT AND OR SWAP1 SSTORE PUSH2 0xE74 PUSH1 0x40 MLOAD SWAP3 DUP4 SWAP3 PUSH1 0x40 DUP5 MSTORE PUSH1 0x40 DUP5 ADD SWAP1 PUSH2 0x1185 JUMP JUMPDEST DUP3 DUP2 SUB DUP10 DUP5 ADD MSTORE CALLER SWAP7 PUSH2 0x1185 JUMP JUMPDEST SUB SWAP1 LOG3 PUSH1 0x1 DUP1 SSTORE PUSH1 0x40 MLOAD SWAP1 DUP2 MSTORE RETURN JUMPDEST PUSH1 0x1 SWAP1 PUSH1 0x20 DUP4 MLOAD SWAP4 ADD SWAP3 PUSH1 0xA DUP3 DUP8 ADD ADD SSTORE ADD PUSH2 0xD95 JUMP JUMPDEST PUSH1 0x1 SWAP1 PUSH1 0x20 DUP4 MLOAD SWAP4 ADD SWAP3 PUSH1 0x2 DUP3 DUP9 ADD ADD SSTORE ADD PUSH2 0xD87 JUMP JUMPDEST PUSH1 0x40 MLOAD PUSH4 0x3EE5AEB5 PUSH1 0xE0 SHL DUP2 MSTORE PUSH1 0x4 SWAP1 REVERT JUMPDEST PUSH1 0x40 MLOAD PUSH3 0x461BCD PUSH1 0xE5 SHL DUP2 MSTORE PUSH1 0x20 PUSH1 0x4 DUP3 ADD MSTORE PUSH1 0x1E PUSH1 0x24 DUP3 ADD MSTORE PUSH32 0x496E76616C6964206F7220696E6163746976652070726F6F6620747970650000 PUSH1 0x44 DUP3 ADD MSTORE PUSH1 0x64 SWAP1 REVERT JUMPDEST DUP2 CALLDATALOAD DUP2 MSTORE PUSH1 0x20 SWAP2 DUP3 ADD SWAP2 ADD PUSH2 0xC7E JUMP JUMPDEST DUP2 CALLDATALOAD DUP2 MSTORE PUSH1 0x20 SWAP2 DUP3 ADD SWAP2 ADD PUSH2 0xC50 JUMP JUMPDEST CALLVALUE PUSH2 0x173 JUMPI PUSH1 0x20 DUP1 PUSH1 0x3 NOT CALLDATASIZE ADD SLT PUSH2 0x173 JUMPI PUSH1 0x4 CALLDATALOAD PUSH1 0x60 PUSH1 0xE0 PUSH1 0x40 MLOAD PUSH2 0xF4D DUP2 PUSH2 0x11AA JUMP JUMPDEST PUSH1 0x0 DUP2 MSTORE DUP3 DUP6 DUP3 ADD MSTORE PUSH1 0x40 MLOAD PUSH2 0xF62 DUP2 PUSH2 0x11AA JUMP JUMPDEST PUSH2 0x100 CALLDATASIZE DUP3 CALLDATACOPY PUSH1 0x40 DUP3 ADD MSTORE PUSH1 0x40 MLOAD PUSH2 0xF79 DUP2 PUSH2 0x11E3 JUMP JUMPDEST PUSH1 0x40 CALLDATASIZE DUP3 CALLDATACOPY DUP4 DUP3 ADD MSTORE PUSH1 0x0 PUSH1 0x80 DUP3 ADD MSTORE PUSH1 0x0 PUSH1 0xA0 DUP3 ADD MSTORE PUSH1 0x0 PUSH1 0xC0 DUP3 ADD MSTORE ADD MSTORE PUSH2 0xFA6 PUSH1 0x5 SLOAD DUP3 LT PUSH2 0x151E JUMP JUMPDEST PUSH1 0x0 MSTORE PUSH1 0x2 DUP1 DUP3 MSTORE PUSH1 0x40 PUSH1 0x0 KECCAK256 SWAP2 PUSH1 0x40 MLOAD SWAP1 PUSH2 0xFC1 DUP3 PUSH2 0x11AA JUMP JUMPDEST DUP4 SLOAD PUSH1 0x1 PUSH1 0x1 PUSH1 0xA0 SHL SUB SWAP1 DUP2 AND DUP4 MSTORE SWAP4 PUSH1 0x1 SWAP1 PUSH2 0xFDF DUP2 DUP4 ADD PUSH2 0x132D JUMP JUMPDEST SWAP1 DUP4 DUP6 ADD SWAP2 DUP3 MSTORE PUSH1 0x40 MLOAD SWAP4 DUP5 DUP8 DUP4 ADD SWAP1 PUSH1 0x0 SWAP1 JUMPDEST PUSH1 0x8 DUP3 LT PUSH2 0x1134 JUMPI POP POP POP PUSH2 0x1007 DUP6 PUSH2 0x11AA JUMP JUMPDEST PUSH1 0x40 DUP7 DUP2 ADD SWAP6 DUP7 MSTORE MLOAD SWAP4 PUSH1 0xA DUP4 ADD PUSH1 0x0 DUP7 JUMPDEST DUP11 DUP3 LT PUSH2 0x1121 JUMPI POP POP POP PUSH2 0x102C DUP6 PUSH2 0x11E3 JUMP JUMPDEST PUSH1 0x60 DUP8 ADD SWAP5 DUP6 MSTORE PUSH1 0xFF PUSH1 0xC DUP5 ADD SLOAD AND SWAP8 PUSH1 0x80 DUP9 ADD SWAP9 ISZERO ISZERO DUP10 MSTORE PUSH1 0xD DUP5 ADD SLOAD SWAP3 PUSH1 0xA0 DUP10 ADD SWAP4 DUP5 MSTORE PUSH2 0x106A PUSH1 0xF PUSH1 0xE DUP8 ADD SLOAD SWAP7 PUSH1 0xC0 DUP13 ADD SWAP8 DUP9 MSTORE ADD PUSH2 0x132D JUMP JUMPDEST SWAP6 PUSH1 0xE0 DUP11 ADD SWAP7 DUP8 MSTORE PUSH1 0x40 MLOAD SWAP12 DUP13 SWAP11 DUP4 DUP13 MSTORE MLOAD AND DUP3 DUP12 ADD MSTORE MLOAD SWAP7 PUSH2 0x109B PUSH2 0x200 SWAP9 DUP10 PUSH1 0x40 DUP14 ADD MSTORE PUSH2 0x220 DUP13 ADD SWAP1 PUSH2 0x1185 JUMP JUMPDEST SWAP9 MLOAD PUSH1 0x0 PUSH1 0x60 DUP13 ADD JUMPDEST PUSH1 0x8 DUP3 LT PUSH2 0x110B JUMPI POP POP POP MLOAD PUSH2 0x160 DUP11 ADD SWAP1 PUSH1 0x0 SWAP2 JUMPDEST DUP5 DUP4 LT PUSH2 0x10F5 JUMPI POP POP POP POP POP POP PUSH2 0x32D SWAP6 SWAP7 MLOAD ISZERO ISZERO PUSH2 0x1A0 DUP9 ADD MSTORE MLOAD PUSH2 0x1C0 DUP8 ADD MSTORE MLOAD PUSH2 0x1E0 DUP7 ADD MSTORE MLOAD SWAP1 PUSH1 0x1F NOT DUP6 DUP5 SUB ADD SWAP1 DUP6 ADD MSTORE PUSH2 0x1185 JUMP JUMPDEST DUP2 MLOAD DUP2 MSTORE DUP14 SWAP12 POP SWAP2 DUP6 ADD SWAP2 SWAP1 DUP4 ADD SWAP1 DUP4 ADD PUSH2 0x10BA JUMP JUMPDEST DUP3 MLOAD DUP2 MSTORE DUP15 SWAP13 POP SWAP2 DUP5 ADD SWAP2 SWAP1 DUP7 ADD SWAP1 DUP5 ADD PUSH2 0x10A4 JUMP JUMPDEST DUP3 SLOAD DUP2 MSTORE SWAP2 DUP4 ADD SWAP2 SWAP1 DUP4 ADD SWAP1 DUP5 ADD PUSH2 0x1019 JUMP JUMPDEST DUP3 SLOAD DUP2 MSTORE SWAP2 DUP7 ADD SWAP2 SWAP1 DUP7 ADD SWAP1 DUP4 ADD PUSH2 0xFF3 JUMP JUMPDEST CALLVALUE PUSH2 0x173 JUMPI PUSH1 0x0 CALLDATASIZE PUSH1 0x3 NOT ADD SLT PUSH2 0x173 JUMPI PUSH1 0x20 SWAP1 PUSH1 0x5 SLOAD DUP2 MSTORE RETURN JUMPDEST PUSH1 0x0 JUMPDEST DUP4 DUP2 LT PUSH2 0x1175 JUMPI POP POP PUSH1 0x0 SWAP2 ADD MSTORE JUMP JUMPDEST DUP2 DUP2 ADD MLOAD DUP4 DUP3 ADD MSTORE PUSH1 0x20 ADD PUSH2 0x1165 JUMP JUMPDEST SWAP1 PUSH1 0x20 SWAP2 PUSH2 0x119E DUP2 MLOAD DUP1 SWAP3 DUP2 DUP6 MSTORE DUP6 DUP1 DUP7 ADD SWAP2 ADD PUSH2 0x1162 JUMP JUMPDEST PUSH1 0x1F ADD PUSH1 0x1F NOT AND ADD ADD SWAP1 JUMP JUMPDEST PUSH2 0x100 DUP2 ADD SWAP1 DUP2 LT PUSH8 0xFFFFFFFFFFFFFFFF DUP3 GT OR PUSH2 0x5C6 JUMPI PUSH1 0x40 MSTORE JUMP JUMPDEST PUSH1 0x80 DUP2 ADD SWAP1 DUP2 LT PUSH8 0xFFFFFFFFFFFFFFFF DUP3 GT OR PUSH2 0x5C6 JUMPI PUSH1 0x40 MSTORE JUMP JUMPDEST PUSH1 0x40 DUP2 ADD SWAP1 DUP2 LT PUSH8 0xFFFFFFFFFFFFFFFF DUP3 GT OR PUSH2 0x5C6 JUMPI PUSH1 0x40 MSTORE JUMP JUMPDEST SWAP1 PUSH1 0x1F DUP1 NOT SWAP2 ADD AND DUP2 ADD SWAP1 DUP2 LT PUSH8 0xFFFFFFFFFFFFFFFF DUP3 GT OR PUSH2 0x5C6 JUMPI PUSH1 0x40 MSTORE JUMP JUMPDEST DUP2 PUSH1 0x1F DUP3 ADD SLT ISZERO PUSH2 0x173 JUMPI DUP1 CALLDATALOAD SWAP1 PUSH8 0xFFFFFFFFFFFFFFFF DUP3 GT PUSH2 0x5C6 JUMPI PUSH1 0x40 MLOAD SWAP3 PUSH2 0x1256 PUSH1 0x1F DUP5 ADD PUSH1 0x1F NOT AND PUSH1 0x20 ADD DUP6 PUSH2 0x11FF JUMP JUMPDEST DUP3 DUP5 MSTORE PUSH1 0x20 DUP4 DUP4 ADD ADD GT PUSH2 0x173 JUMPI DUP2 PUSH1 0x0 SWAP3 PUSH1 0x20 DUP1 SWAP4 ADD DUP4 DUP7 ADD CALLDATACOPY DUP4 ADD ADD MSTORE SWAP1 JUMP JUMPDEST PUSH1 0x4 CALLDATALOAD SWAP1 PUSH1 0x1 PUSH1 0x1 PUSH1 0xA0 SHL SUB DUP3 AND DUP3 SUB PUSH2 0x173 JUMPI JUMP JUMPDEST PUSH1 0x6 SLOAD DUP2 LT ISZERO PUSH2 0x12C5 JUMPI PUSH1 0x6 PUSH1 0x0 MSTORE PUSH32 0xF652222313E28459528D920B65115C16C04F3EFC82AAEDC97BE59F3F377C0D3F ADD SWAP1 PUSH1 0x0 SWAP1 JUMP JUMPDEST PUSH4 0x4E487B71 PUSH1 0xE0 SHL PUSH1 0x0 MSTORE PUSH1 0x32 PUSH1 0x4 MSTORE PUSH1 0x24 PUSH1 0x0 REVERT JUMPDEST DUP1 SLOAD DUP3 LT ISZERO PUSH2 0x12C5 JUMPI PUSH1 0x0 MSTORE PUSH1 0x20 PUSH1 0x0 KECCAK256 ADD SWAP1 PUSH1 0x0 SWAP1 JUMP JUMPDEST SWAP1 PUSH1 0x1 DUP3 DUP2 SHR SWAP3 AND DUP1 ISZERO PUSH2 0x1323 JUMPI JUMPDEST PUSH1 0x20 DUP4 LT EQ PUSH2 0x130D JUMPI JUMP JUMPDEST PUSH4 0x4E487B71 PUSH1 0xE0 SHL PUSH1 0x0 MSTORE PUSH1 0x22 PUSH1 0x4 MSTORE PUSH1 0x24 PUSH1 0x0 REVERT JUMPDEST SWAP2 PUSH1 0x7F AND SWAP2 PUSH2 0x1302 JUMP JUMPDEST SWAP1 PUSH1 0x40 MLOAD SWAP2 DUP3 PUSH1 0x0 DUP3 SLOAD SWAP3 PUSH2 0x1341 DUP5 PUSH2 0x12F3 JUMP JUMPDEST SWAP1 DUP2 DUP5 MSTORE PUSH1 0x1 SWAP5 DUP6 DUP2 AND SWAP1 DUP2 PUSH1 0x0 EQ PUSH2 0x13B0 JUMPI POP PUSH1 0x1 EQ PUSH2 0x136D JUMPI JUMPDEST POP POP PUSH2 0x136B SWAP3 POP SUB DUP4 PUSH2 0x11FF JUMP JUMPDEST JUMP JUMPDEST SWAP1 SWAP4 SWAP2 POP PUSH1 0x0 MSTORE PUSH1 0x20 SWAP1 DUP2 PUSH1 0x0 KECCAK256 SWAP4 PUSH1 0x0 SWAP2 JUMPDEST DUP2 DUP4 LT PUSH2 0x1398 JUMPI POP POP PUSH2 0x136B SWAP4 POP DUP3 ADD ADD CODESIZE DUP1 PUSH2 0x135D JUMP JUMPDEST DUP6 SLOAD DUP9 DUP5 ADD DUP6 ADD MSTORE SWAP5 DUP6 ADD SWAP5 DUP8 SWAP5 POP SWAP2 DUP4 ADD SWAP2 PUSH2 0x1380 JUMP JUMPDEST SWAP2 POP POP PUSH2 0x136B SWAP5 POP PUSH1 0x20 SWAP3 POP PUSH1 0xFF NOT AND DUP3 DUP5 ADD MSTORE ISZERO ISZERO PUSH1 0x5 SHL DUP3 ADD ADD CODESIZE DUP1 PUSH2 0x135D JUMP JUMPDEST PUSH1 0x24 CALLDATALOAD SWAP1 DUP2 ISZERO ISZERO DUP3 SUB PUSH2 0x173 JUMPI JUMP JUMPDEST PUSH1 0x0 SLOAD PUSH1 0x1 PUSH1 0x1 PUSH1 0xA0 SHL SUB AND CALLER SUB PUSH2 0x13F6 JUMPI JUMP JUMPDEST PUSH1 0x40 MLOAD PUSH4 0x118CDAA7 PUSH1 0xE0 SHL DUP2 MSTORE CALLER PUSH1 0x4 DUP3 ADD MSTORE PUSH1 0x24 SWAP1 REVERT JUMPDEST SWAP2 SWAP1 SWAP2 DUP3 MLOAD PUSH8 0xFFFFFFFFFFFFFFFF DUP2 GT PUSH2 0x5C6 JUMPI PUSH2 0x142C DUP3 SLOAD PUSH2 0x12F3 JUMP JUMPDEST PUSH1 0x1F DUP2 GT PUSH2 0x14D6 JUMPI JUMPDEST POP PUSH1 0x20 DUP1 PUSH1 0x1F DUP4 GT PUSH1 0x1 EQ PUSH2 0x1472 JUMPI POP DUP2 SWAP3 SWAP4 SWAP5 PUSH1 0x0 SWAP3 PUSH2 0x1467 JUMPI JUMPDEST POP POP DUP2 PUSH1 0x1 SHL SWAP2 PUSH1 0x0 NOT SWAP1 PUSH1 0x3 SHL SHR NOT AND OR SWAP1 SSTORE JUMP JUMPDEST ADD MLOAD SWAP1 POP CODESIZE DUP1 PUSH2 0x1451 JUMP JUMPDEST SWAP1 PUSH1 0x1F NOT DUP4 AND SWAP6 DUP5 PUSH1 0x0 MSTORE DUP3 PUSH1 0x0 KECCAK256 SWAP3 PUSH1 0x0 SWAP1 JUMPDEST DUP9 DUP3 LT PUSH2 0x14BE JUMPI POP POP DUP4 PUSH1 0x1 SWAP6 SWAP7 SWAP8 LT PUSH2 0x14A5 JUMPI JUMPDEST POP POP POP DUP2 SHL ADD SWAP1 SSTORE JUMP JUMPDEST ADD MLOAD PUSH1 0x0 NOT PUSH1 0xF8 DUP5 PUSH1 0x3 SHL AND SHR NOT AND SWAP1 SSTORE CODESIZE DUP1 DUP1 PUSH2 0x149B JUMP JUMPDEST DUP1 PUSH1 0x1 DUP6 SWAP7 DUP3 SWAP5 SWAP7 DUP7 ADD MLOAD DUP2 SSTORE ADD SWAP6 ADD SWAP4 ADD SWAP1 PUSH2 0x1486 JUMP JUMPDEST PUSH1 0x0 DUP4 DUP2 MSTORE PUSH1 0x20 DUP2 KECCAK256 PUSH1 0x1F DUP5 ADD PUSH1 0x5 SHR DUP2 ADD SWAP3 PUSH1 0x20 DUP6 LT PUSH2 0x1514 JUMPI JUMPDEST PUSH1 0x1F ADD PUSH1 0x5 SHR ADD SWAP2 JUMPDEST DUP3 DUP2 LT PUSH2 0x1509 JUMPI POP POP PUSH2 0x1435 JUMP JUMPDEST DUP2 DUP2 SSTORE PUSH1 0x1 ADD PUSH2 0x14FB JUMP JUMPDEST SWAP1 SWAP3 POP DUP3 SWAP1 PUSH2 0x14F2 JUMP JUMPDEST ISZERO PUSH2 0x1525 JUMPI JUMP JUMPDEST PUSH1 0x40 MLOAD PUSH3 0x461BCD PUSH1 0xE5 SHL DUP2 MSTORE PUSH1 0x20 PUSH1 0x4 DUP3 ADD MSTORE PUSH1 0x14 PUSH1 0x24 DUP3 ADD MSTORE PUSH20 0x141C9BDBD988191BD95CC81B9BDD08195E1A5CDD PUSH1 0x62 SHL PUSH1 0x44 DUP3 ADD MSTORE PUSH1 0x64 SWAP1 REVERT JUMPDEST PUSH1 0x5 SLOAD DUP2 LT ISZERO PUSH2 0x1582 JUMPI PUSH1 0x0 MSTORE PUSH1 0x2 PUSH1 0x20 MSTORE PUSH1 0xFF PUSH1 0xC PUSH1 0x40 PUSH1 0x0 KECCAK256 ADD SLOAD AND SWAP1 JUMP JUMPDEST POP PUSH1 0x0 SWAP1 JUMP INVALID LOG2 PUSH5 0x6970667358 0x22 SLT KECCAK256 0x49 PUSH28 0xAC1EC2DE1FF953882C47A4682A1A8C3685B622AB222EC4E94972BB28 PUSH1 0xD3 PUSH5 0x736F6C6343 STOP ADDMOD EQ STOP CALLER POP PUSH19 0x6F6F66207479706520616C7265616479206578 PUSH10 0x73747300000000000000 "},"methodIdentifiers":{"addProofType(string,address,uint256)":"2eb4a65e","getProof(uint256)":"11149ada","getProofType(string)":"bf6618f9","getSupportedProofTypes()":"74235369","getTotalProofs()":"9b1bc0c9","getUserProofs(address)":"46bdfb80","isProofVerified(uint256)":"e96f88ea","nextProofId()":"08ac8d22","owner()":"8da5cb5b","proofTypes(string)":"66b92f9e","proofs(uint256)":"9ddaf5aa","renounceOwnership()":"715018a6","submitProof(string,uint256[8],uint256[2],string)":"1acbce14","supportedProofTypes(uint256)":"41c7ce2e","transferOwnership(address)":"f2fde38b","updateProofType(string,bool)":"8129cd07","userProofs(address,uint256)":"373b58e6","verifyProof(uint256,bool)":"56ef9cb5"}}}}}