{
  "_format": "hh-sol-artifact-1",
  "contractName": "DeSciPlatform",
  "sourceName": "contracts/DeSciPlatform.sol",
  "abi": [
    {
      "inputs": [
        {
          "internalType": "address",
          "name": "_userProfileContract",
          "type": "address"
        },
        {
          "internalType": "address",
          "name": "_zkProofContract",
          "type": "address"
        },
        {
          "internalType": "address",
          "name": "_nftContract",
          "type": "address"
        },
        {
          "internalType": "address",
          "name": "_datasetContract",
          "type": "address"
        }
      ],
      "stateMutability": "nonpayable",
      "type": "constructor"
    },
    {
      "inputs": [
        {
          "internalType": "address",
          "name": "owner",
          "type": "address"
        }
      ],
      "name": "OwnableInvalidOwner",
      "type": "error"
    },
    {
      "inputs": [
        {
          "internalType": "address",
          "name": "account",
          "type": "address"
        }
      ],
      "name": "OwnableUnauthorizedAccount",
      "type": "error"
    },
    {
      "inputs": [],
      "name": "ReentrancyGuardReentrantCall",
      "type": "error"
    },
    {
      "anonymous": false,
      "inputs": [
        {
          "indexed": true,
          "internalType": "address",
          "name": "previousOwner",
          "type": "address"
        },
        {
          "indexed": true,
          "internalType": "address",
          "name": "newOwner",
          "type": "address"
        }
      ],
      "name": "OwnershipTransferred",
      "type": "event"
    },
    {
      "anonymous": false,
      "inputs": [
        {
          "indexed": true,
          "internalType": "uint256",
          "name": "researchId",
          "type": "uint256"
        },
        {
          "indexed": true,
          "internalType": "address",
          "name": "reviewer",
          "type": "address"
        },
        {
          "indexed": false,
          "internalType": "uint256",
          "name": "rating",
          "type": "uint256"
        }
      ],
      "name": "PeerReviewSubmitted",
      "type": "event"
    },
    {
      "anonymous": false,
      "inputs": [
        {
          "indexed": true,
          "internalType": "uint256",
          "name": "researchId",
          "type": "uint256"
        },
        {
          "indexed": true,
          "internalType": "uint256",
          "name": "nftTokenId",
          "type": "uint256"
        },
        {
          "indexed": true,
          "internalType": "address",
          "name": "researcher",
          "type": "address"
        }
      ],
      "name": "ResearchPublished",
      "type": "event"
    },
    {
      "anonymous": false,
      "inputs": [
        {
          "indexed": true,
          "internalType": "uint256",
          "name": "researchId",
          "type": "uint256"
        },
        {
          "indexed": false,
          "internalType": "enum DeSciPlatform.ResearchStatus",
          "name": "oldStatus",
          "type": "uint8"
        },
        {
          "indexed": false,
          "internalType": "enum DeSciPlatform.ResearchStatus",
          "name": "newStatus",
          "type": "uint8"
        }
      ],
      "name": "ResearchStatusChanged",
      "type": "event"
    },
    {
      "anonymous": false,
      "inputs": [
        {
          "indexed": true,
          "internalType": "uint256",
          "name": "researchId",
          "type": "uint256"
        },
        {
          "indexed": true,
          "internalType": "address",
          "name": "researcher",
          "type": "address"
        },
        {
          "indexed": false,
          "internalType": "string",
          "name": "title",
          "type": "string"
        },
        {
          "indexed": false,
          "internalType": "uint256",
          "name": "datasetId",
          "type": "uint256"
        }
      ],
      "name": "ResearchSubmitted",
      "type": "event"
    },
    {
      "inputs": [
        {
          "internalType": "uint256",
          "name": "",
          "type": "uint256"
        }
      ],
      "name": "allResearches",
      "outputs": [
        {
          "internalType": "uint256",
          "name": "",
          "type": "uint256"
        }
      ],
      "stateMutability": "view",
      "type": "function"
    },
    {
      "inputs": [],
      "name": "datasetContract",
      "outputs": [
        {
          "internalType": "contract Dataset",
          "name": "",
          "type": "address"
        }
      ],
      "stateMutability": "view",
      "type": "function"
    },
    {
      "inputs": [],
      "name": "fundReviewRewards",
      "outputs": [],
      "stateMutability": "payable",
      "type": "function"
    },
    {
      "inputs": [],
      "name": "getAllResearches",
      "outputs": [
        {
          "internalType": "uint256[]",
          "name": "",
          "type": "uint256[]"
        }
      ],
      "stateMutability": "view",
      "type": "function"
    },
    {
      "inputs": [
        {
          "internalType": "uint256",
          "name": "_researchId",
          "type": "uint256"
        }
      ],
      "name": "getPeerReviews",
      "outputs": [
        {
          "components": [
            {
              "internalType": "uint256",
              "name": "researchId",
              "type": "uint256"
            },
            {
              "internalType": "address",
              "name": "reviewer",
              "type": "address"
            },
            {
              "internalType": "uint256",
              "name": "rating",
              "type": "uint256"
            },
            {
              "internalType": "string",
              "name": "comments",
              "type": "string"
            },
            {
              "internalType": "string",
              "name": "ipfsHash",
              "type": "string"
            },
            {
              "internalType": "uint256",
              "name": "reviewedAt",
              "type": "uint256"
            },
            {
              "internalType": "bool",
              "name": "isVerified",
              "type": "bool"
            }
          ],
          "internalType": "struct DeSciPlatform.PeerReview[]",
          "name": "",
          "type": "tuple[]"
        }
      ],
      "stateMutability": "view",
      "type": "function"
    },
    {
      "inputs": [
        {
          "internalType": "uint256",
          "name": "_researchId",
          "type": "uint256"
        }
      ],
      "name": "getResearch",
      "outputs": [
        {
          "components": [
            {
              "internalType": "uint256",
              "name": "id",
              "type": "uint256"
            },
            {
              "internalType": "string",
              "name": "title",
              "type": "string"
            },
            {
              "internalType": "string",
              "name": "description",
              "type": "string"
            },
            {
              "internalType": "address",
              "name": "researcher",
              "type": "address"
            },
            {
              "internalType": "uint256",
              "name": "datasetId",
              "type": "uint256"
            },
            {
              "internalType": "uint256",
              "name": "nftTokenId",
              "type": "uint256"
            },
            {
              "internalType": "uint256[]",
              "name": "zkProofIds",
              "type": "uint256[]"
            },
            {
              "internalType": "string",
              "name": "metadataHash",
              "type": "string"
            },
            {
              "internalType": "uint256",
              "name": "publishedAt",
              "type": "uint256"
            },
            {
              "internalType": "enum DeSciPlatform.ResearchStatus",
              "name": "status",
              "type": "uint8"
            },
            {
              "internalType": "uint256",
              "name": "peerReviewCount",
              "type": "uint256"
            },
            {
              "internalType": "uint256",
              "name": "averageRating",
              "type": "uint256"
            }
          ],
          "internalType": "struct DeSciPlatform.Research",
          "name": "",
          "type": "tuple"
        }
      ],
      "stateMutability": "view",
      "type": "function"
    },
    {
      "inputs": [
        {
          "internalType": "address",
          "name": "_researcher",
          "type": "address"
        }
      ],
      "name": "getResearcherPublications",
      "outputs": [
        {
          "internalType": "uint256[]",
          "name": "",
          "type": "uint256[]"
        }
      ],
      "stateMutability": "view",
      "type": "function"
    },
    {
      "inputs": [],
      "name": "getTotalResearches",
      "outputs": [
        {
          "internalType": "uint256",
          "name": "",
          "type": "uint256"
        }
      ],
      "stateMutability": "view",
      "type": "function"
    },
    {
      "inputs": [
        {
          "internalType": "uint256",
          "name": "",
          "type": "uint256"
        },
        {
          "internalType": "address",
          "name": "",
          "type": "address"
        }
      ],
      "name": "hasReviewed",
      "outputs": [
        {
          "internalType": "bool",
          "name": "",
          "type": "bool"
        }
      ],
      "stateMutability": "view",
      "type": "function"
    },
    {
      "inputs": [
        {
          "internalType": "uint256",
          "name": "_researchId",
          "type": "uint256"
        }
      ],
      "name": "manuallyPublishResearch",
      "outputs": [],
      "stateMutability": "nonpayable",
      "type": "function"
    },
    {
      "inputs": [],
      "name": "minimumReputationToReview",
      "outputs": [
        {
          "internalType": "uint256",
          "name": "",
          "type": "uint256"
        }
      ],
      "stateMutability": "view",
      "type": "function"
    },
    {
      "inputs": [],
      "name": "minimumReviewsToPublish",
      "outputs": [
        {
          "internalType": "uint256",
          "name": "",
          "type": "uint256"
        }
      ],
      "stateMutability": "view",
      "type": "function"
    },
    {
      "inputs": [],
      "name": "nextResearchId",
      "outputs": [
        {
          "internalType": "uint256",
          "name": "",
          "type": "uint256"
        }
      ],
      "stateMutability": "view",
      "type": "function"
    },
    {
      "inputs": [],
      "name": "nftContract",
      "outputs": [
        {
          "internalType": "contract DeSciNFTSimple",
          "name": "",
          "type": "address"
        }
      ],
      "stateMutability": "view",
      "type": "function"
    },
    {
      "inputs": [],
      "name": "owner",
      "outputs": [
        {
          "internalType": "address",
          "name": "",
          "type": "address"
        }
      ],
      "stateMutability": "view",
      "type": "function"
    },
    {
      "inputs": [
        {
          "internalType": "uint256",
          "name": "",
          "type": "uint256"
        },
        {
          "internalType": "uint256",
          "name": "",
          "type": "uint256"
        }
      ],
      "name": "peerReviews",
      "outputs": [
        {
          "internalType": "uint256",
          "name": "researchId",
          "type": "uint256"
        },
        {
          "internalType": "address",
          "name": "reviewer",
          "type": "address"
        },
        {
          "internalType": "uint256",
          "name": "rating",
          "type": "uint256"
        },
        {
          "internalType": "string",
          "name": "comments",
          "type": "string"
        },
        {
          "internalType": "string",
          "name": "ipfsHash",
          "type": "string"
        },
        {
          "internalType": "uint256",
          "name": "reviewedAt",
          "type": "uint256"
        },
        {
          "internalType": "bool",
          "name": "isVerified",
          "type": "bool"
        }
      ],
      "stateMutability": "view",
      "type": "function"
    },
    {
      "inputs": [
        {
          "internalType": "string",
          "name": "_title",
          "type": "string"
        },
        {
          "internalType": "string",
          "name": "_description",
          "type": "string"
        },
        {
          "internalType": "string",
          "name": "_datasetName",
          "type": "string"
        },
        {
          "internalType": "string",
          "name": "_datasetDescription",
          "type": "string"
        },
        {
          "internalType": "string",
          "name": "_datasetHash",
          "type": "string"
        },
        {
          "internalType": "string",
          "name": "_metadataHash",
          "type": "string"
        },
        {
          "internalType": "uint256[]",
          "name": "_zkProofIds",
          "type": "uint256[]"
        },
        {
          "internalType": "bool",
          "name": "_isDatasetPublic",
          "type": "bool"
        },
        {
          "internalType": "uint256",
          "name": "_datasetAccessPrice",
          "type": "uint256"
        }
      ],
      "name": "publishResearch",
      "outputs": [
        {
          "internalType": "uint256",
          "name": "",
          "type": "uint256"
        }
      ],
      "stateMutability": "nonpayable",
      "type": "function"
    },
    {
      "inputs": [],
      "name": "renounceOwnership",
      "outputs": [],
      "stateMutability": "nonpayable",
      "type": "function"
    },
    {
      "inputs": [
        {
          "internalType": "address",
          "name": "",
          "type": "address"
        },
        {
          "internalType": "uint256",
          "name": "",
          "type": "uint256"
        }
      ],
      "name": "researcherPublications",
      "outputs": [
        {
          "internalType": "uint256",
          "name": "",
          "type": "uint256"
        }
      ],
      "stateMutability": "view",
      "type": "function"
    },
    {
      "inputs": [
        {
          "internalType": "uint256",
          "name": "",
          "type": "uint256"
        }
      ],
      "name": "researches",
      "outputs": [
        {
          "internalType": "uint256",
          "name": "id",
          "type": "uint256"
        },
        {
          "internalType": "string",
          "name": "title",
          "type": "string"
        },
        {
          "internalType": "string",
          "name": "description",
          "type": "string"
        },
        {
          "internalType": "address",
          "name": "researcher",
          "type": "address"
        },
        {
          "internalType": "uint256",
          "name": "datasetId",
          "type": "uint256"
        },
        {
          "internalType": "uint256",
          "name": "nftTokenId",
          "type": "uint256"
        },
        {
          "internalType": "string",
          "name": "metadataHash",
          "type": "string"
        },
        {
          "internalType": "uint256",
          "name": "publishedAt",
          "type": "uint256"
        },
        {
          "internalType": "enum DeSciPlatform.ResearchStatus",
          "name": "status",
          "type": "uint8"
        },
        {
          "internalType": "uint256",
          "name": "peerReviewCount",
          "type": "uint256"
        },
        {
          "internalType": "uint256",
          "name": "averageRating",
          "type": "uint256"
        }
      ],
      "stateMutability": "view",
      "type": "function"
    },
    {
      "inputs": [],
      "name": "reviewReward",
      "outputs": [
        {
          "internalType": "uint256",
          "name": "",
          "type": "uint256"
        }
      ],
      "stateMutability": "view",
      "type": "function"
    },
    {
      "inputs": [
        {
          "internalType": "uint256",
          "name": "_researchId",
          "type": "uint256"
        },
        {
          "internalType": "uint256",
          "name": "_rating",
          "type": "uint256"
        },
        {
          "internalType": "string",
          "name": "_comments",
          "type": "string"
        },
        {
          "internalType": "string",
          "name": "_ipfsHash",
          "type": "string"
        }
      ],
      "name": "submitPeerReview",
      "outputs": [],
      "stateMutability": "nonpayable",
      "type": "function"
    },
    {
      "inputs": [
        {
          "internalType": "address",
          "name": "newOwner",
          "type": "address"
        }
      ],
      "name": "transferOwnership",
      "outputs": [],
      "stateMutability": "nonpayable",
      "type": "function"
    },
    {
      "inputs": [
        {
          "internalType": "address",
          "name": "_userProfileContract",
          "type": "address"
        },
        {
          "internalType": "address",
          "name": "_zkProofContract",
          "type": "address"
        },
        {
          "internalType": "address",
          "name": "_nftContract",
          "type": "address"
        },
        {
          "internalType": "address",
          "name": "_datasetContract",
          "type": "address"
        }
      ],
      "name": "updateContractAddresses",
      "outputs": [],
      "stateMutability": "nonpayable",
      "type": "function"
    },
    {
      "inputs": [
        {
          "internalType": "uint256",
          "name": "_minimumReputationToReview",
          "type": "uint256"
        },
        {
          "internalType": "uint256",
          "name": "_minimumReviewsToPublish",
          "type": "uint256"
        },
        {
          "internalType": "uint256",
          "name": "_reviewReward",
          "type": "uint256"
        }
      ],
      "name": "updatePlatformSettings",
      "outputs": [],
      "stateMutability": "nonpayable",
      "type": "function"
    },
    {
      "inputs": [],
      "name": "userProfileContract",
      "outputs": [
        {
          "internalType": "contract UserProfile",
          "name": "",
          "type": "address"
        }
      ],
      "stateMutability": "view",
      "type": "function"
    },
    {
      "inputs": [],
      "name": "withdraw",
      "outputs": [],
      "stateMutability": "nonpayable",
      "type": "function"
    },
    {
      "inputs": [],
      "name": "zkProofContract",
      "outputs": [
        {
          "internalType": "contract ZKProof",
          "name": "",
          "type": "address"
        }
      ],
      "stateMutability": "view",
      "type": "function"
    }
  ],
  "bytecode": "0x6080346200013a57601f62002c5238819003918201601f19168301916001600160401b038311848410176200013f578084926080946040528339810103126200013a576200004d8162000155565b906200005c6020820162000155565b620000786060620000706040850162000155565b930162000155565b331562000121576000549360018060a01b03199333858716176000556040519560018060a01b03948580948193823391167f8be0079c531659141344cd1fd0a4f28419497f9722a3daafe3b4186f6b6457e0600080a3600180556032600c556002600d55662386f26fc10000600e55168760025416176002551685600354161760035516836004541617600455169060055416176005556001600a55612ae790816200016b8239f35b604051631e4fbdf760e01b815260006004820152602490fd5b600080fd5b634e487b7160e01b600052604160045260246000fd5b51906001600160a01b03821682036200013a5756fe608080604052600436101561001357600080fd5b60003560e01c9081630699b9d41461221e575080631c5f3099146121f55780632f3f4b921461217a5780633ccfd60b1461213357806347d0fa76146121155780634dd8eb1c146120c457806353d263801461209357806355018530146120495780635f7d070414611f43578063715018a614611eea5780637788bc6c14611ec15780637c7198cc14611e745780638a61809c14611def5780638da5cb5b14611dc65780638fa37b4614611d855780639423d32114611d67578063b0c8226614611d3e578063b8f02b301461153a578063c1ecfefa146107b0578063cecd8306146106dd578063d56d229d146106b4578063d6f13d541461065c578063e07bc5921461063e578063e3e02ba7146103d2578063ea41608a14610224578063eb2093e01461020e578063f2fde38b146101855763ff4385521461015357600080fd5b346101805760603660031901126101805761016c6124e5565b600435600c55602435600d55604435600e55005b600080fd5b346101805760203660031901126101805761019e61228c565b6101a66124e5565b6001600160a01b039081169081156101f557600054826001600160601b0360a01b821617600055167f8be0079c531659141344cd1fd0a4f28419497f9722a3daafe3b4186f6b6457e0600080a3005b604051631e4fbdf760e01b815260006004820152602490fd5b6000366003190112610180576102226124e5565b005b346101805760208060031936011261018057600435610246600a54821061260f565b6000526007908181526040600020805461025f816124b2565b9361026d60405195866123da565b8185528385018093600052846000206000915b84831061033e57604080518881528951818a01819052600092600582901b83018101918a918c9085015b8287106102b75785850386f35b909192938280600192603f1989820301855287519081518152848060a01b0383830151168382015260408201516040820152610318610305606060e0818601519185015260e084019061241e565b608080850151908483039085015261241e565b9160a0808201519083015260c080910151151591015296019201960195929190926102aa565b838760019260409a999a5161035281612388565b85548152848060a01b038587015416838201526002860154604082015260405161038a816103838160038b016122f2565b03826123da565b60608201526040516103a3816103838160048b016122f2565b6080820152600586015460a082015260ff600687015416151560c0820152815201920192019190969596610280565b346101805760203660031901126101805760043560006101606040516103f7816123a3565b82815260606020820152606060408201528260608201528260808201528260a0820152606060c0820152606060e0820152826101008201528261012082015282610140820152015261044c600a54821061260f565b6000526006602052604060002060405190610466826123a3565b8054825260405161047e8161038381600186016122f2565b60208301526040516104978161038381600286016122f2565b604083015260038101546001600160a01b0316606083015260048101546080830152600581015460a08301526104cf60068201612a60565b60c08301526040516104e88161038381600786016122f2565b60e0830152600881015461010083015260ff60098201541690600582101561062857600b91610120840152600a8101546101408401520154610160820152604051602081528151602082015261054f602083015161018060408401526101a083019061241e565b9161056c604082015193601f19948585830301606086015261241e565b9260018060a01b036060830151166080840152608082015160a084015260a082015160c084015260c082015193818482030160e08501526020808651928381520195019060005b818110610612575050506105db83946101609260e0850151908683030161010087015261241e565b916101008101516101208501526105fc610120820151610140860190612443565b6101408101518285015201516101808301520390f35b82518752602096870196909201916001016105b3565b634e487b7160e01b600052602160045260246000fd5b34610180576000366003190112610180576020600e54604051908152f35b346101805760403660031901126101805761067561228c565b6001600160a01b0316600090815260086020526040902080546024359190821015610180576020916106a691612274565b90546040519160031b1c8152f35b34610180576000366003190112610180576004546040516001600160a01b039091168152602090f35b34610180576040366003190112610180576024356004356000526007602052604060002090815481101561018057610714916124c9565b50805460018060a01b0360018301541691600281015461079f6040516107418161038381600388016122f2565b61079160405191610760836107598160048a016122f2565b03846123da565b60ff60066005880154970154169460405198899889526020890152604088015260e0606088015260e087019061241e565b90858203608087015261241e565b9160a0840152151560c08301520390f35b3461018057610120366003190112610180576004356001600160401b038111610180576107e190369060040161246b565b6024356001600160401b0381116101805761080090369060040161246b565b906044356001600160401b0381116101805761082090369060040161246b565b916064356001600160401b0381116101805761084090369060040161246b565b6084356001600160401b0381116101805761085f90369060040161246b565b9260a4356001600160401b0381116101805761087f90369060040161246b565b926001600160401b0360c435116101805736602360c435011215610180576108ac60c435600401356124b2565b936108ba60405195866123da565b60c4356004013585526020850136602460c4356004013560051b60c43501011161018057602460c43501905b602460c4356004013560051b60c4350101821061152a57505060e4359687151588036101805760025460405163a787c80b60e01b815233600482015290602090829060249082906001600160a01b03165afa8015610c72576000906114ef575b610950915061251e565b6109586125ec565b8351156114b25760025460405163056720bf60e51b815233600482015290602090829060249082906001600160a01b03165afa908115610c7257600091611478575b501561143b5760035496976001600160a01b039097169660005b8751811015610cf0576109c7818961257c565b51604051906374b7c47560e11b825260048201526020816024818d5afa908115610c7257600091610cb6575b5015610c7e57610a03818961257c565b516040519063088a4d6d60e11b825260048201526000816024818d5afa908115610c7257600091610a94575b5051336001600160a01b0390911603610a5057610a4b90612560565b6109b4565b606460405162461bcd60e51b815260206004820152602060248201527f5a4b2070726f6f66206e6f74206f776e656420627920726573656172636865726044820152fd5b90503d806000833e610aa681836123da565b6020828281010312610180578151916001600160401b0383116101805761020083820183830103126101805760405192836101008101106001600160401b0361010086011117610c5c576101008401604052818101516001600160a01b0381168103610180578452602081830101516001600160401b03811161018057610b34908484019083850101612590565b6020850152828201605f82840101121561018057604051806101008101106001600160401b0361010083011117610c5c57610100810160405280848401610140848601011161018057604083850101905b610140848601018210610c4c575050604085015282820161015f82840101121561018057604051610bb5816123bf565b8084840161018084860101116101805761014083850101905b610180848601018210610c3c5750506060850152610bf161018082840101612511565b60808501528181016101a081015160a08601526101c081015160c08601526101e00151906001600160401b03821161018057610c31938301920101612590565b60e08201528b610a2f565b8151815260209182019101610bce565b8151815260209182019101610b85565b634e487b7160e01b600052604160045260246000fd5b6040513d6000823e3d90fd5b60405162461bcd60e51b815260206004820152601060248201526f24b73b30b634b2102d2590383937b7b360811b6044820152606490fd5b90506020813d602011610ce8575b81610cd1602093836123da565b8101031261018057610ce290612511565b8b6109f3565b3d9150610cc4565b50604051969495919089610d03896123bf565b6001895260005b60208110611428575090610dc1610daf610d8b98999a93604051610d2d816123bf565b60088152670e4cae6cac2e4c6d60c31b6020820152610d4b8661256f565b52610d558561256f565b506005546040516344bc6d2560e01b815260e060048201529a6001600160a01b03909116978b97610d9d929060e48a019061241e565b8881036003190160248a01529061241e565b8681036003190160448801529061241e565b8481036003190160648601528661241e565b90151560848401526101043560a48401526003198382030160c4840152815180825260208201916020808360051b8301019401926000915b8383106113f7575050505050918160008160209503925af1928315610c72576000936113c3575b50600a5493610e2e85612560565b600a5560405192610e3e846123a3565b8584528660208501526040840152336060840152836080840152600060a084015260c083015260e082015260006101008201526001610120820152600061014082015260006101608201528260005260066020526040600020908051825560208101518051906001600160401b038211610c5c578190610ec160018601546122b8565b601f811161138e575b50602090601f831160011461131c57600092611311575b50508160011b916000199060031b1c19161760018301555b60408101518051906001600160401b038211610c5c578190610f1e60028601546122b8565b601f81116112dc575b50602090601f831160011461126a5760009261125f575b50508160011b916000199060031b1c19161760028301555b6003820160018060a01b036060830151166001600160601b0360a01b8254161790556080810151600483015560a0810151600583015560c08101518051906001600160401b038211610c5c57600160401b8211610c5c57602090600685015483600687015580841061123f575b500160068401600052602060002060005b83811061122b575050505060e08101518051906001600160401b038211610c5c57819061100460078601546122b8565b601f81116111eb575b50602090601f83116001146111795760009261116e575b50508160011b916000199060031b1c19161760078301555b61010081015160088301556101208101516009830191600582101561062857600b926101609260ff80198354169116179055610140810151600a850155015191015533600052600860205260406000208054600160401b811015610c5c576110a991600182018155612274565b81549060031b9084821b91600019901b1916179055600b5492600160401b841015610c5c576001840180600b55841015611158577f7a4ae4a41033f0aa82dc3cc2d18817fcaa2691062e3b16227b5381250e038399839182602096600b6000527f0175b7a638427703f0dbe7bb9bbf987a2551717b34e79f33b5b1008d1fa01db901556111416040519160408352604083019061241e565b93868201528033940390a360018055604051908152f35b634e487b7160e01b600052603260045260246000fd5b015190508780611024565b9250600785016000526020600020906000935b601f19841685106111d0576001945083601f198116106111b7575b505050811b01600783015561103c565b015160001960f88460031b161c191690558780806111a7565b8181015183556020948501946001909301929091019061118c565b61121b90600787016000526020600020601f850160051c81019160208610611221575b601f0160051c01906125d5565b8861100d565b909150819061120e565b600190602084519401938184015501610fd4565b6112599060068701600052848460002091820191016125d5565b88610fc3565b015190508780610f3e565b9250600285016000526020600020906000935b601f19841685106112c1576001945083601f198116106112a8575b505050811b016002830155610f56565b015160001960f88460031b161c19169055878080611298565b8181015183556020948501946001909301929091019061127d565b61130b90600287016000526020600020601f850160051c8101916020861061122157601f0160051c01906125d5565b88610f27565b015190508780610ee1565b9250600185016000526020600020906000935b601f1984168510611373576001945083601f1981161061135a575b505050811b016001830155610ef9565b015160001960f88460031b161c1916905587808061134a565b8181015183556020948501946001909301929091019061132f565b6113bd90600187016000526020600020601f850160051c8101916020861061122157601f0160051c01906125d5565b88610eca565b9092506020813d6020116113ef575b816113df602093836123da565b8101031261018057519185610e20565b3d91506113d2565b919395509193602080611416600193601f19868203018752895161241e565b97019301930190928995949293610df9565b60606020828c0181019190915201610d0a565b60405162461bcd60e51b8152602060048201526015602482015274155cd95c881b5d5cdd081899481d995c9a599a5959605a1b6044820152606490fd5b90506020813d6020116114aa575b81611493602093836123da565b81010312610180576114a490612511565b8961099a565b3d9150611486565b60405162461bcd60e51b81526020600482015260156024820152745469746c652063616e6e6f7420626520656d70747960581b6044820152606490fd5b506020813d602011611522575b81611509602093836123da565b810103126101805761151d61095091612511565b610946565b3d91506114fc565b81358152602091820191016108e6565b34610180576080366003190112610180576044356001600160401b0381116101805761156a90369060040161246b565b6064356001600160401b0381116101805761158990369060040161246b565b60025460405163a787c80b60e01b815233600482015290602090829060249082906001600160a01b03165afa8015610c7257600090611d03575b6115cd915061251e565b6115dc600a546004351061260f565b6115e46125ec565b600435600052600660205260406000209060ff60098301541660058110156106285760018114908115611cf8575b5015611ca95760038201546001600160a01b03163314611c6457600435600052600960205260406000203360005260205260ff60406000205416611c1f576001602435101580611c12575b15611bcd5760025460405163baccbfdb60e01b81523360048201526001600160a01b039091169190602081602481865afa908115610c7257600091611b9b575b50600c5411611b4c57602490600435600052600760205260206040600020936040519384809263056720bf60e51b82523360048301525afa918215610c7257600092611b10575b50604051946116f286612388565b60043586523360208701526024356040870152606086015260808501524260a0850152151560c08401528054600160401b811015610c5c57611739916001820181556124c9565b929092611afa57805183556001830160018060a01b036020830151166001600160601b0360a01b8254161790556040810151600284015560608101519283516001600160401b038111610c5c5761179360038301546122b8565b601f8111611ac5575b506020601f8211600114611a56578192939495600092611a4b575b50508160011b916000199060031b1c19161760038201555b60808201518051906001600160401b038211610c5c576117f260048401546122b8565b601f8111611a16575b50602090601f83116001146119a157918060c09492600694600092611996575b50508160011b916000199060031b1c19161760048201555b60a084015160058201550191015115159060ff199160ff83835416911617905560043560005260096020526040600020336000526020526040600020600182825416179055600a8201906118878254612560565b825560098301549060ff821660058110156106285760011461194f575b50506118b160043561298c565b47600e548091101561192a575b50604051602435815233907fc365c5f538389984d687768c80d5d858622fa9f66a9290efdc9defca6b0c973a602060043592a354600d541115908161191a575b5061190a575b60018055005b611915600435612668565b611904565b60079150600b01541015816118fe565b600080808093818115611946575b3390f115610c7257826118be565b506108fc611938565b6002911617600983015560405160018152600260208201527f0bf769e221fd48094869eacdbf9de22b6870f4f9fdf03fd35d6ab5cf72ede70d604060043592a282806118a4565b01519050878061181b565b906004840160005260206000209160005b601f19851681106119fe57509260c0949260019260069583601f198116106119e5575b505050811b016004820155611833565b015160001960f88460031b161c191690558780806119d5565b919260206001819286850151815501940192016119b2565b611a4590600485016000526020600020601f850160051c8101916020861061122157601f0160051c01906125d5565b856117fb565b0151905085806117b7565b6003830160005260206000209060005b601f1984168110611aad575060019394959683601f19811610611a94575b505050811b0160038201556117cf565b015160001960f88460031b161c19169055858080611a84565b9091602060018192858b015181550193019101611a66565b611af490600384016000526020600020601f840160051c8101916020851061122157601f0160051c01906125d5565b8561179c565b634e487b7160e01b600052600060045260246000fd5b9091506020813d602011611b44575b81611b2c602093836123da565b8101031261018057611b3d90612511565b90856116e4565b3d9150611b1f565b60405162461bcd60e51b815260206004820152602160248201527f496e73756666696369656e742072657075746174696f6e20746f2072657669656044820152607760f81b6064820152608490fd5b90506020813d602011611bc5575b81611bb6602093836123da565b8101031261018057518561169d565b3d9150611ba9565b60405162461bcd60e51b815260206004820152601b60248201527f526174696e67206d757374206265206265747765656e20312d313000000000006044820152606490fd5b50600a602435111561165d565b60405162461bcd60e51b815260206004820152601e60248201527f416c7265616479207265766965776564207468697320726573656172636800006044820152606490fd5b60405162461bcd60e51b815260206004820152601a60248201527f43616e6e6f7420726576696577206f776e2072657365617263680000000000006044820152606490fd5b60405162461bcd60e51b815260206004820152602160248201527f5265736561726368206e6f7420617661696c61626c6520666f722072657669656044820152607760f81b6064820152608490fd5b600291501484611612565b506020813d602011611d36575b81611d1d602093836123da565b8101031261018057611d316115cd91612511565b6115c3565b3d9150611d10565b34610180576000366003190112610180576005546040516001600160a01b039091168152602090f35b34610180576000366003190112610180576020600a54604051908152f35b3461018057600036600319011261018057600a546000198101908111611db057602090604051908152f35b634e487b7160e01b600052601160045260246000fd5b34610180576000366003190112610180576000546040516001600160a01b039091168152602090f35b3461018057608036600319011261018057611e0861228c565b611e106122a2565b906044356001600160a01b0381811691829003610180576064359381851680950361018057611e3d6124e5565b816001600160601b0360a01b9416846002541617600255168260035416176003558160045416176004556005541617600555600080f35b3461018057604036600319011261018057611e8d6122a2565b600435600052600960205260406000209060018060a01b0316600052602052602060ff604060002054166040519015158152f35b34610180576000366003190112610180576003546040516001600160a01b039091168152602090f35b3461018057600036600319011261018057611f036124e5565b600080546001600160a01b0319811682556001600160a01b03167f8be0079c531659141344cd1fd0a4f28419497f9722a3daafe3b4186f6b6457e08280a3005b346101805760203660031901126101805760043560005260066020526040600020805460405191611f7b8361075981600185016122f2565b604051611f8f8161038381600286016122f2565b60018060a01b03600383015416916120396004820154612028600584015495604051611fc2816103838160078a016122f2565b60088601549760ff6009880154169461200b600b600a8a015499015499611ffd6040519e8f9e8f90815261016090816020820152019061241e565b8d810360408f01529061241e565b9360608c015260808b015260a08a015288820360c08a015261241e565b9460e0870152610100860190612443565b6101208401526101408301520390f35b34610180576020366003190112610180576001600160a01b0361206a61228c565b16600052600860205261208f6120836040600020612a60565b60405191829182612239565b0390f35b34610180576020366003190112610180576102226004356120b26124e5565b6120bf600a54821061260f565b612668565b3461018057602036600319011261018057600435600b5481101561018057602090600b6000527f0175b7a638427703f0dbe7bb9bbf987a2551717b34e79f33b5b1008d1fa01db90154604051908152f35b34610180576000366003190112610180576020600d54604051908152f35b346101805760003660031901126101805761214c6124e5565b6000805481908190819047906001600160a01b0316828215612171575bf115610c7257005b506108fc612169565b346101805760003660031901126101805760405180600b5491828152602080910192600b6000527f0175b7a638427703f0dbe7bb9bbf987a2551717b34e79f33b5b1008d1fa01db9916000905b8282106121de5761208f85612083818903826123da565b8354865294850194600193840193909101906121c7565b34610180576000366003190112610180576002546040516001600160a01b039091168152602090f35b3461018057600036600319011261018057602090600c548152f35b6020908160408183019282815285518094520193019160005b828110612260575050505090565b835185529381019392810192600101612252565b80548210156111585760005260206000200190600090565b600435906001600160a01b038216820361018057565b602435906001600160a01b038216820361018057565b90600182811c921680156122e8575b60208310146122d257565b634e487b7160e01b600052602260045260246000fd5b91607f16916122c7565b9060009291805491612303836122b8565b9182825260019384811690816000146123655750600114612325575b50505050565b90919394506000526020928360002092846000945b83861061235157505050500101903880808061231f565b80548587018301529401938590820161233a565b9294505050602093945060ff191683830152151560051b0101903880808061231f565b60e081019081106001600160401b03821117610c5c57604052565b61018081019081106001600160401b03821117610c5c57604052565b604081019081106001600160401b03821117610c5c57604052565b90601f801991011681019081106001600160401b03821117610c5c57604052565b60005b83811061240e5750506000910152565b81810151838201526020016123fe565b90602091612437815180928185528580860191016123fb565b601f01601f1916010190565b9060058210156106285752565b6001600160401b038111610c5c57601f01601f191660200190565b81601f820112156101805780359061248282612450565b9261249060405194856123da565b8284526020838301011161018057816000926020809301838601378301015290565b6001600160401b038111610c5c5760051b60200190565b8054821015611158576000526007602060002091020190600090565b6000546001600160a01b031633036124f957565b60405163118cdaa760e01b8152336004820152602490fd5b5190811515820361018057565b1561252557565b60405162461bcd60e51b8152602060048201526013602482015272155cd95c881b9bdd081c9959da5cdd195c9959606a1b6044820152606490fd5b6000198114611db05760010190565b8051156111585760200190565b80518210156111585760209160051b010190565b81601f820112156101805780516125a681612450565b926125b460405194856123da565b81845260208284010111610180576125d291602080850191016123fb565b90565b8181106125e0575050565b600081556001016125d5565b6002600154146125fd576002600155565b604051633ee5aeb560e01b8152600490fd5b1561261657565b60405162461bcd60e51b815260206004820152601760248201527f526573656172636820646f6573206e6f742065786973740000000000000000006044820152606490fd5b91908201809211611db057565b906000918083526020926006845260409081812094600986019560ff87541660058110156129785760020361292a5760018060a01b0360048181541692600381019985848c54168951968791634f7a3a7560e01b83528683015260a06024830152818a8c87643830b832b960d91b876127166127036126ed60a48901600187016122f2565b600260031996878b84030160448c0152016122f2565b8488820301606489015260078d016122f2565b868103938401608488015260058152015201925af19485156129205787956128ed575b5060058201859055426008830155805460ff191660031790556002548a54885163baccbfdb60e01b8152908516848201819052918516928782602481875afa9182156128e35789926128af575b50600b015490600a820291808304600a149015171561289c57906127a99161265b565b90823b15612898579060448892838b519586948593631eb9234160e31b85528985015260248401525af1801561288e5761283d575b505090600392917f0bf769e221fd48094869eacdbf9de22b6870f4f9fdf03fd35d6ab5cf72ede70d969798541690877fd8ce22afd7e21e21188ad06f8603f1d280d2c289bca98a7e29ccb17934c5bea487519680a460028352820152a2565b6001600160401b03819a96929a1161287b578652939750807f0bf769e221fd48094869eacdbf9de22b6870f4f9fdf03fd35d6ab5cf72ede70d6127de565b634e487b7160e01b825260418a52602482fd5b87513d88823e3d90fd5b8780fd5b634e487b7160e01b895260118552602489fd5b9091508781813d83116128dc575b6128c781836123da565b810103126128d8575190600b612786565b8880fd5b503d6128bd565b8a513d8b823e3d90fd5b9094508581813d8311612919575b61290581836123da565b8101031261291557519338612739565b8680fd5b503d6128fb565b88513d89823e3d90fd5b835162461bcd60e51b815260048101839052602160248201527f5265736561726368206e6f7420726561647920666f72207075626c697368696e6044820152606760f81b6064820152608490fd5b634e487b7160e01b84526021600452602484fd5b600090808252600760205260408220805490811561231f5783918491855b8281106129ed575050906129bd9161265b565b9182156129d95791604091600b93855260066020520492200155565b634e487b7160e01b84526012600452602484fd5b612a086129fa82846124c9565b50956002809701549061265b565b948560ff6006612a1885876124c9565b50015416612a31575b5050612a2c90612560565b6129aa565b612a2c929650612a44612a589296612560565b95612a4f88866124c9565b5001549061265b565b949038612a21565b9060405191828154918282526020928383019160005283600020936000905b828210612a9757505050612a95925003836123da565b565b855484526001958601958895509381019390910190612a7f56fea2646970667358221220476a2449d9e3ad41f37a67d25a8e2c5766cfbe84b9c7a5655e2afc28c4892df264736f6c63430008140033",
  "linkReferences": {},
  "deployedLinkReferences": {}
}