{
  "_format": "hh-sol-artifact-1",
  "contractName": "UserProfile",
  "sourceName": "contracts/UserProfile.sol",
  "abi": [
    {
      "inputs": [],
      "stateMutability": "nonpayable",
      "type": "constructor"
    },
    {
      "inputs": [
        {
          "internalType": "address",
          "name": "owner",
          "type": "address"
        }
      ],
      "name": "OwnableInvalidOwner",
      "type": "error"
    },
    {
      "inputs": [
        {
          "internalType": "address",
          "name": "account",
          "type": "address"
        }
      ],
      "name": "OwnableUnauthorizedAccount",
      "type": "error"
    },
    {
      "inputs": [],
      "name": "ReentrancyGuardReentrantCall",
      "type": "error"
    },
    {
      "anonymous": false,
      "inputs": [
        {
          "indexed": true,
          "internalType": "address",
          "name": "previousOwner",
          "type": "address"
        },
        {
          "indexed": true,
          "internalType": "address",
          "name": "newOwner",
          "type": "address"
        }
      ],
      "name": "OwnershipTransferred",
      "type": "event"
    },
    {
      "anonymous": false,
      "inputs": [
        {
          "indexed": true,
          "internalType": "address",
          "name": "user",
          "type": "address"
        },
        {
          "indexed": false,
          "internalType": "string",
          "name": "email",
          "type": "string"
        },
        {
          "indexed": false,
          "internalType": "string",
          "name": "ipfsHash",
          "type": "string"
        }
      ],
      "name": "ProfileCreated",
      "type": "event"
    },
    {
      "anonymous": false,
      "inputs": [
        {
          "indexed": true,
          "internalType": "address",
          "name": "user",
          "type": "address"
        },
        {
          "indexed": false,
          "internalType": "string",
          "name": "ipfsHash",
          "type": "string"
        }
      ],
      "name": "ProfileUpdated",
      "type": "event"
    },
    {
      "anonymous": false,
      "inputs": [
        {
          "indexed": true,
          "internalType": "address",
          "name": "user",
          "type": "address"
        },
        {
          "indexed": false,
          "internalType": "bool",
          "name": "verified",
          "type": "bool"
        }
      ],
      "name": "ProfileVerified",
      "type": "event"
    },
    {
      "anonymous": false,
      "inputs": [
        {
          "indexed": true,
          "internalType": "address",
          "name": "user",
          "type": "address"
        },
        {
          "indexed": false,
          "internalType": "uint256",
          "name": "newReputation",
          "type": "uint256"
        }
      ],
      "name": "ReputationUpdated",
      "type": "event"
    },
    {
      "inputs": [
        {
          "internalType": "uint256",
          "name": "",
          "type": "uint256"
        }
      ],
      "name": "allUsers",
      "outputs": [
        {
          "internalType": "address",
          "name": "",
          "type": "address"
        }
      ],
      "stateMutability": "view",
      "type": "function"
    },
    {
      "inputs": [
        {
          "internalType": "string",
          "name": "_fullName",
          "type": "string"
        },
        {
          "internalType": "uint256",
          "name": "_age",
          "type": "uint256"
        },
        {
          "internalType": "string",
          "name": "_email",
          "type": "string"
        },
        {
          "internalType": "string",
          "name": "_ipfsHash",
          "type": "string"
        }
      ],
      "name": "createProfile",
      "outputs": [],
      "stateMutability": "nonpayable",
      "type": "function"
    },
    {
      "inputs": [
        {
          "internalType": "string",
          "name": "",
          "type": "string"
        }
      ],
      "name": "emailToAddress",
      "outputs": [
        {
          "internalType": "address",
          "name": "",
          "type": "address"
        }
      ],
      "stateMutability": "view",
      "type": "function"
    },
    {
      "inputs": [
        {
          "internalType": "address",
          "name": "_user",
          "type": "address"
        }
      ],
      "name": "getProfile",
      "outputs": [
        {
          "components": [
            {
              "internalType": "string",
              "name": "fullName",
              "type": "string"
            },
            {
              "internalType": "uint256",
              "name": "age",
              "type": "uint256"
            },
            {
              "internalType": "string",
              "name": "email",
              "type": "string"
            },
            {
              "internalType": "string",
              "name": "ipfsHash",
              "type": "string"
            },
            {
              "internalType": "bool",
              "name": "isVerified",
              "type": "bool"
            },
            {
              "internalType": "uint256",
              "name": "createdAt",
              "type": "uint256"
            },
            {
              "internalType": "uint256",
              "name": "updatedAt",
              "type": "uint256"
            },
            {
              "internalType": "uint256",
              "name": "reputation",
              "type": "uint256"
            }
          ],
          "internalType": "struct UserProfile.Profile",
          "name": "",
          "type": "tuple"
        }
      ],
      "stateMutability": "view",
      "type": "function"
    },
    {
      "inputs": [],
      "name": "getTotalUsers",
      "outputs": [
        {
          "internalType": "uint256",
          "name": "",
          "type": "uint256"
        }
      ],
      "stateMutability": "view",
      "type": "function"
    },
    {
      "inputs": [
        {
          "internalType": "string",
          "name": "_email",
          "type": "string"
        }
      ],
      "name": "getUserByEmail",
      "outputs": [
        {
          "internalType": "address",
          "name": "",
          "type": "address"
        }
      ],
      "stateMutability": "view",
      "type": "function"
    },
    {
      "inputs": [
        {
          "internalType": "address",
          "name": "_user",
          "type": "address"
        }
      ],
      "name": "getUserReputation",
      "outputs": [
        {
          "internalType": "uint256",
          "name": "",
          "type": "uint256"
        }
      ],
      "stateMutability": "view",
      "type": "function"
    },
    {
      "inputs": [
        {
          "internalType": "address",
          "name": "",
          "type": "address"
        }
      ],
      "name": "hasProfile",
      "outputs": [
        {
          "internalType": "bool",
          "name": "",
          "type": "bool"
        }
      ],
      "stateMutability": "view",
      "type": "function"
    },
    {
      "inputs": [
        {
          "internalType": "address",
          "name": "_user",
          "type": "address"
        }
      ],
      "name": "isUserVerified",
      "outputs": [
        {
          "internalType": "bool",
          "name": "",
          "type": "bool"
        }
      ],
      "stateMutability": "view",
      "type": "function"
    },
    {
      "inputs": [],
      "name": "owner",
      "outputs": [
        {
          "internalType": "address",
          "name": "",
          "type": "address"
        }
      ],
      "stateMutability": "view",
      "type": "function"
    },
    {
      "inputs": [
        {
          "internalType": "address",
          "name": "",
          "type": "address"
        }
      ],
      "name": "profiles",
      "outputs": [
        {
          "internalType": "string",
          "name": "fullName",
          "type": "string"
        },
        {
          "internalType": "uint256",
          "name": "age",
          "type": "uint256"
        },
        {
          "internalType": "string",
          "name": "email",
          "type": "string"
        },
        {
          "internalType": "string",
          "name": "ipfsHash",
          "type": "string"
        },
        {
          "internalType": "bool",
          "name": "isVerified",
          "type": "bool"
        },
        {
          "internalType": "uint256",
          "name": "createdAt",
          "type": "uint256"
        },
        {
          "internalType": "uint256",
          "name": "updatedAt",
          "type": "uint256"
        },
        {
          "internalType": "uint256",
          "name": "reputation",
          "type": "uint256"
        }
      ],
      "stateMutability": "view",
      "type": "function"
    },
    {
      "inputs": [],
      "name": "renounceOwnership",
      "outputs": [],
      "stateMutability": "nonpayable",
      "type": "function"
    },
    {
      "inputs": [
        {
          "internalType": "address",
          "name": "newOwner",
          "type": "address"
        }
      ],
      "name": "transferOwnership",
      "outputs": [],
      "stateMutability": "nonpayable",
      "type": "function"
    },
    {
      "inputs": [
        {
          "internalType": "string",
          "name": "_fullName",
          "type": "string"
        },
        {
          "internalType": "uint256",
          "name": "_age",
          "type": "uint256"
        },
        {
          "internalType": "string",
          "name": "_ipfsHash",
          "type": "string"
        }
      ],
      "name": "updateProfile",
      "outputs": [],
      "stateMutability": "nonpayable",
      "type": "function"
    },
    {
      "inputs": [
        {
          "internalType": "address",
          "name": "_user",
          "type": "address"
        },
        {
          "internalType": "uint256",
          "name": "_reputation",
          "type": "uint256"
        }
      ],
      "name": "updateReputation",
      "outputs": [],
      "stateMutability": "nonpayable",
      "type": "function"
    },
    {
      "inputs": [
        {
          "internalType": "address",
          "name": "_user",
          "type": "address"
        },
        {
          "internalType": "uint256",
          "name": "_reputation",
          "type": "uint256"
        }
      ],
      "name": "updateReputationByContract",
      "outputs": [],
      "stateMutability": "nonpayable",
      "type": "function"
    },
    {
      "inputs": [
        {
          "internalType": "address",
          "name": "_user",
          "type": "address"
        },
        {
          "internalType": "bool",
          "name": "_verified",
          "type": "bool"
        }
      ],
      "name": "verifyProfile",
      "outputs": [],
      "stateMutability": "nonpayable",
      "type": "function"
    }
  ],
  "bytecode": "0x6080806040523461007e5733156100685760008054336001600160a01b03198216811783556040519290916001600160a01b0316907f8be0079c531659141344cd1fd0a4f28419497f9722a3daafe3b4186f6b6457e09080a36001805561146490816100848239f35b631e4fbdf760e01b815260006004820152602490fd5b600080fdfe6080604052600436101561001257600080fd5b60003560e01c80630d1b21fa146109bb5780630f53a4701461084557806318046ae1146101995780633b1275151461082957806356412d3a14610785578063715018a61461072c5780638da5cb5b146107035780639be572f6146106e5578063a2bdedf4146106a3578063a5fb1fb814610365578063a787c80b14610326578063ace417e0146102f9578063baccbfdb146102ce578063bbe1562714610202578063ea78dcbf14610199578063f2fde38b1461010b5763f5c91a08146100d757600080fd5b34610106576040366003190112610106576101046100f36110e7565b6100fb611272565b6024359061138c565b005b600080fd5b34610106576020366003190112610106576101246110e7565b61012c611272565b6001600160a01b0390811690811561018057600054826bffffffffffffffffffffffff60a01b821617600055167f8be0079c531659141344cd1fd0a4f28419497f9722a3daafe3b4186f6b6457e0600080a3005b604051631e4fbdf760e01b815260006004820152602490fd5b346101065760203660031901126101065760043567ffffffffffffffff8111610106576101cc6020913690600401611090565b816101e060405192838151938492016110fd565b600390820190815281900382019020546040516001600160a01b039091168152f35b34610106576020366003190112610106576001600160a01b036102236110e7565b166000526002602052610292604060002061023d816111cc565b90600181015490610250600282016111cc565b9061025d600382016111cc565b926102b360ff600484015416946102a560058501549360076006870154960154966040519a8b9a610100808d528c0190611120565b9160208b015289820360408b0152611120565b908782036060890152611120565b931515608086015260a085015260c084015260e08301520390f35b346101065760203660031901126101065760206102f16102ec6110e7565b611426565b604051908152f35b3461010657602036600319011261010657602061031c6103176110e7565b6113ed565b6040519015158152f35b34610106576020366003190112610106576001600160a01b036103476110e7565b166000526004602052602060ff604060002054166040519015158152f35b346101065760603660031901126101065767ffffffffffffffff60043581811161010657610397903690600401611090565b60243591604435818111610106576103b3903690600401611090565b9033600052602092600484526103d060ff60406000205416611347565b6103d8611324565b6103e48151151561129e565b84151580610699575b6103f6906112ea565b336000526002845260406000209181518181116105c457806104188554611192565b93601f9485811161064a575b5087908583116001146105e5576000926105da575b50508160011b916000199060031b1c19161783555b60019586840155600383019184519182116105c45761046d8354611192565b81811161057e575b50859082116001146104f15791816104df94927fdd635a4cd84864e37e4479dbfc2ec667acfa473c83c8422a8ac9d9d07599b01c96946000916104e6575b50600019600383901b1c191690881b1790555b6006429101556040519182918583523395830190611120565b0390a28055005b9050840151896104b3565b908691601f1982169084600052876000209160005b898282106105685750509183917fdd635a4cd84864e37e4479dbfc2ec667acfa473c83c8422a8ac9d9d07599b01c9896946104df9896941061054f575b5050811b0190556104c6565b86015160001960f88460031b161c191690558980610543565b838a015185558b96909401939283019201610506565b83600052866000208280850160051c8201928986106105bb575b0160051c019088905b8281106105af575050610475565b600081550188906105a1565b92508192610598565b634e487b7160e01b600052604160045260246000fd5b015190508880610439565b60008781528981209350601f198516905b8a82821061063457505090846001959493921061061b575b505050811b01835561044e565b015160001960f88460031b161c1916905588808061060e565b60018596829396860151815501950193016105f6565b90915085600052876000208580850160051c8201928a8610610690575b9085949392910160051c01905b8181106106815750610424565b60008155849350600101610674565b92508192610667565b50609685106103ed565b3461010657602036600319011261010657600435600554811015610106576106cc602091611145565b905460405160039290921b1c6001600160a01b03168152f35b34610106576000366003190112610106576020600554604051908152f35b34610106576000366003190112610106576000546040516001600160a01b039091168152602090f35b3461010657600036600319011261010657610745611272565b600080546001600160a01b0319811682556001600160a01b03167f8be0079c531659141344cd1fd0a4f28419497f9722a3daafe3b4186f6b6457e08280a3005b346101065760403660031901126101065761079e6110e7565b6024359081151590818303610106577f1a54de57409cde881501535c2cd15fafdcc1cfee166b0f7de867255b850c76d5916108206020926107dd611272565b60018060a01b03169485600052600484526107ff60ff60406000205416611347565b856000526002845260046040600020019060ff801983541691151516179055565b604051908152a2005b34610106576040366003190112610106576101046100fb6110e7565b346101065760208060031936011261010657610120906108636110e7565b6040519061087082611051565b600060e0606093848152828682015284604082015284808201528260808201528260a08201528260c0820152015260018060a01b031680600052600483526108bf60ff60406000205416611347565b60005260028252604060002091604051926108d984611051565b6108e2816111cc565b84526001810154908285019182526108fc600282016111cc565b916040860192835261099d610913600384016111cc565b86880190815260ff6004850154169660808901971515885261098c60058601549460a08b01958652600760068801549760c08d0198895201549760e08c01988952610972604051809e819e8d83525191610100809e8201520190611120565b915160408d015251601f1993848d840301908d0152611120565b9151908983030160808a0152611120565b9451151560a08701525160c08601525160e085015251908301520390f35b346101065760803660031901126101065760043567ffffffffffffffff8111610106576109ec903690600401611090565b60443567ffffffffffffffff811161010657610a0c903690600401611090565b60643567ffffffffffffffff811161010657610a2c903690600401611090565b916040518251610a408183602087016110fd565b60039082019081528190036020019020546001600160a01b031661100c57610a66611324565b33600052600460205260ff60406000205416610fce57610a888151151561129e565b60243580151580610fc4575b610a9d906112ea565b825115610f875760405191610ab183611051565b82526020820152816040820152826060820152600060808201524260a08201524260c0820152600060e0820152336000526002602052604060002090805180519067ffffffffffffffff82116105c4578190610b0d8554611192565b601f8111610f37575b50602090601f8311600114610ecb57600092610ec0575b50508160011b916000199060031b1c19161782555b60208101516001830155604081015180519067ffffffffffffffff82116105c4578190610b726002860154611192565b601f8111610e6d575b50602090601f8311600114610dfb57600092610df0575b50508160011b916000199060031b1c19161760028301555b606081015180519067ffffffffffffffff82116105c457610bce6003850154611192565b601f8111610da9575b50602090601f8311600114610d345791806007949260e094600092610d29575b50508160011b916000199060031b1c19161760038501555b610c2e60808201511515600486019060ff801983541691151516179055565b60a0810151600585015560c0810151600685015501519101556040516020818351610c5c81838588016110fd565b81016003815203019020336bffffffffffffffffffffffff60a01b8254161790553360005260046020526040600020600160ff19825416179055600554680100000000000000008110156105c4577f6b4494367229a908b0585b361e2871a21f8eb4cd852c02f55c9e06989f4bb2aa91610cdf826001610d119401600555611145565b81546001600160a01b0360039290921b91821b19163390911b17905560408051818152928392610d2092840190611120565b82810360208401523395611120565b0390a260018055005b015190508880610bf7565b906003850160005260206000209160005b601f1985168110610d915750926007949260019260e09583601f19811610610d78575b505050811b016003850155610c0f565b015160001960f88460031b161c19169055888080610d68565b91926020600181928685015181550194019201610d45565b600385016000526020600020601f840160051c810160208510610de9575b601f830160051c82018110610ddd575050610bd7565b60008155600101610dc7565b5080610dc7565b015190508680610b92565b9250600285016000526020600020906000935b601f1984168510610e52576001945083601f19811610610e39575b505050811b016002830155610baa565b015160001960f88460031b161c19169055868080610e29565b81810151835560209485019460019093019290910190610e0e565b909150600285016000526020600020601f840160051c810160208510610eb9575b90849392915b601f830160051c82018110610eaa575050610b7b565b60008155859450600101610e94565b5080610e8e565b015190508680610b2d565b9250846000526020600020906000935b601f1984168510610f1c576001945083601f19811610610f03575b505050811b018255610b42565b015160001960f88460031b161c19169055868080610ef6565b81810151835560209485019460019093019290910190610edb565b909150846000526020600020601f840160051c810160208510610f80575b90849392915b601f830160051c82018110610f71575050610b16565b60008155859450600101610f5b565b5080610f55565b60405162461bcd60e51b8152602060048201526015602482015274456d61696c2063616e6e6f7420626520656d70747960581b6044820152606490fd5b5060968110610a94565b60405162461bcd60e51b815260206004820152601660248201527550726f66696c6520616c72656164792065786973747360501b6044820152606490fd5b60405162461bcd60e51b815260206004820152601860248201527f456d61696c20616c7265616479207265676973746572656400000000000000006044820152606490fd5b610100810190811067ffffffffffffffff8211176105c457604052565b90601f8019910116810190811067ffffffffffffffff8211176105c457604052565b81601f820112156101065780359067ffffffffffffffff82116105c457604051926110c5601f8401601f19166020018561106e565b8284526020838301011161010657816000926020809301838601378301015290565b600435906001600160a01b038216820361010657565b60005b8381106111105750506000910152565b8181015183820152602001611100565b90602091611139815180928185528580860191016110fd565b601f01601f1916010190565b60055481101561117c5760056000527f036b6384b5eca791c62761152d0c79bb0604c104a5fb6f4eb0703f3154bb3db00190600090565b634e487b7160e01b600052603260045260246000fd5b90600182811c921680156111c2575b60208310146111ac57565b634e487b7160e01b600052602260045260246000fd5b91607f16916111a1565b90604051918260008254926111e084611192565b90818452600194858116908160001461124f575060011461120c575b505061120a9250038361106e565b565b9093915060005260209081600020936000915b81831061123757505061120a935082010138806111fc565b8554888401850152948501948794509183019161121f565b91505061120a94506020925060ff191682840152151560051b82010138806111fc565b6000546001600160a01b0316330361128657565b60405163118cdaa760e01b8152336004820152602490fd5b156112a557565b60405162461bcd60e51b815260206004820152601960248201527f46756c6c206e616d652063616e6e6f7420626520656d707479000000000000006044820152606490fd5b156112f157565b60405162461bcd60e51b815260206004820152600b60248201526a496e76616c69642061676560a81b6044820152606490fd5b600260015414611335576002600155565b604051633ee5aeb560e01b8152600490fd5b1561134e57565b60405162461bcd60e51b8152602060048201526016602482015275141c9bd99a5b1948191bd95cc81b9bdd08195e1a5cdd60521b6044820152606490fd5b60207ffc577563f1b9a0461e24abef1e1fcc0d33d3d881f20b5df6dda59de4aae2c8219160018060a01b03169283600052600482526113d260ff60406000205416611347565b836000526002825280600760406000200155604051908152a2565b6001600160a01b031660009081526004602052604090205460ff161561142157600260205260ff6004604060002001541690565b600090565b6001600160a01b031660009081526004602052604090205460ff16156114215760026020526007604060002001549056fea164736f6c6343000814000a",
  "linkReferences": {},
  "deployedLinkReferences": {}
}