{
  "_format": "hh-sol-artifact-1",
  "contractName": "UserProfile",
  "sourceName": "contracts/UserProfile.sol",
  "abi": [
    {
      "inputs": [],
      "stateMutability": "nonpayable",
      "type": "constructor"
    },
    {
      "inputs": [
        {
          "internalType": "address",
          "name": "owner",
          "type": "address"
        }
      ],
      "name": "OwnableInvalidOwner",
      "type": "error"
    },
    {
      "inputs": [
        {
          "internalType": "address",
          "name": "account",
          "type": "address"
        }
      ],
      "name": "OwnableUnauthorizedAccount",
      "type": "error"
    },
    {
      "inputs": [],
      "name": "ReentrancyGuardReentrantCall",
      "type": "error"
    },
    {
      "anonymous": false,
      "inputs": [
        {
          "indexed": true,
          "internalType": "address",
          "name": "previousOwner",
          "type": "address"
        },
        {
          "indexed": true,
          "internalType": "address",
          "name": "newOwner",
          "type": "address"
        }
      ],
      "name": "OwnershipTransferred",
      "type": "event"
    },
    {
      "anonymous": false,
      "inputs": [
        {
          "indexed": true,
          "internalType": "address",
          "name": "user",
          "type": "address"
        },
        {
          "indexed": false,
          "internalType": "string",
          "name": "email",
          "type": "string"
        },
        {
          "indexed": false,
          "internalType": "string",
          "name": "ipfsHash",
          "type": "string"
        }
      ],
      "name": "ProfileCreated",
      "type": "event"
    },
    {
      "anonymous": false,
      "inputs": [
        {
          "indexed": true,
          "internalType": "address",
          "name": "user",
          "type": "address"
        },
        {
          "indexed": false,
          "internalType": "string",
          "name": "ipfsHash",
          "type": "string"
        }
      ],
      "name": "ProfileUpdated",
      "type": "event"
    },
    {
      "anonymous": false,
      "inputs": [
        {
          "indexed": true,
          "internalType": "address",
          "name": "user",
          "type": "address"
        },
        {
          "indexed": false,
          "internalType": "bool",
          "name": "verified",
          "type": "bool"
        }
      ],
      "name": "ProfileVerified",
      "type": "event"
    },
    {
      "anonymous": false,
      "inputs": [
        {
          "indexed": true,
          "internalType": "address",
          "name": "user",
          "type": "address"
        },
        {
          "indexed": false,
          "internalType": "uint256",
          "name": "newReputation",
          "type": "uint256"
        }
      ],
      "name": "ReputationUpdated",
      "type": "event"
    },
    {
      "inputs": [
        {
          "internalType": "uint256",
          "name": "",
          "type": "uint256"
        }
      ],
      "name": "allUsers",
      "outputs": [
        {
          "internalType": "address",
          "name": "",
          "type": "address"
        }
      ],
      "stateMutability": "view",
      "type": "function"
    },
    {
      "inputs": [
        {
          "internalType": "string",
          "name": "_fullName",
          "type": "string"
        },
        {
          "internalType": "uint256",
          "name": "_age",
          "type": "uint256"
        },
        {
          "internalType": "string",
          "name": "_email",
          "type": "string"
        },
        {
          "internalType": "string",
          "name": "_ipfsHash",
          "type": "string"
        }
      ],
      "name": "createProfile",
      "outputs": [],
      "stateMutability": "nonpayable",
      "type": "function"
    },
    {
      "inputs": [
        {
          "internalType": "string",
          "name": "",
          "type": "string"
        }
      ],
      "name": "emailToAddress",
      "outputs": [
        {
          "internalType": "address",
          "name": "",
          "type": "address"
        }
      ],
      "stateMutability": "view",
      "type": "function"
    },
    {
      "inputs": [
        {
          "internalType": "address",
          "name": "_user",
          "type": "address"
        }
      ],
      "name": "getProfile",
      "outputs": [
        {
          "components": [
            {
              "internalType": "string",
              "name": "fullName",
              "type": "string"
            },
            {
              "internalType": "uint256",
              "name": "age",
              "type": "uint256"
            },
            {
              "internalType": "string",
              "name": "email",
              "type": "string"
            },
            {
              "internalType": "string",
              "name": "ipfsHash",
              "type": "string"
            },
            {
              "internalType": "bool",
              "name": "isVerified",
              "type": "bool"
            },
            {
              "internalType": "uint256",
              "name": "createdAt",
              "type": "uint256"
            },
            {
              "internalType": "uint256",
              "name": "updatedAt",
              "type": "uint256"
            },
            {
              "internalType": "uint256",
              "name": "reputation",
              "type": "uint256"
            }
          ],
          "internalType": "struct UserProfile.Profile",
          "name": "",
          "type": "tuple"
        }
      ],
      "stateMutability": "view",
      "type": "function"
    },
    {
      "inputs": [],
      "name": "getTotalUsers",
      "outputs": [
        {
          "internalType": "uint256",
          "name": "",
          "type": "uint256"
        }
      ],
      "stateMutability": "view",
      "type": "function"
    },
    {
      "inputs": [
        {
          "internalType": "string",
          "name": "_email",
          "type": "string"
        }
      ],
      "name": "getUserByEmail",
      "outputs": [
        {
          "internalType": "address",
          "name": "",
          "type": "address"
        }
      ],
      "stateMutability": "view",
      "type": "function"
    },
    {
      "inputs": [
        {
          "internalType": "address",
          "name": "_user",
          "type": "address"
        }
      ],
      "name": "getUserReputation",
      "outputs": [
        {
          "internalType": "uint256",
          "name": "",
          "type": "uint256"
        }
      ],
      "stateMutability": "view",
      "type": "function"
    },
    {
      "inputs": [
        {
          "internalType": "address",
          "name": "",
          "type": "address"
        }
      ],
      "name": "hasProfile",
      "outputs": [
        {
          "internalType": "bool",
          "name": "",
          "type": "bool"
        }
      ],
      "stateMutability": "view",
      "type": "function"
    },
    {
      "inputs": [
        {
          "internalType": "address",
          "name": "_user",
          "type": "address"
        }
      ],
      "name": "isUserVerified",
      "outputs": [
        {
          "internalType": "bool",
          "name": "",
          "type": "bool"
        }
      ],
      "stateMutability": "view",
      "type": "function"
    },
    {
      "inputs": [],
      "name": "owner",
      "outputs": [
        {
          "internalType": "address",
          "name": "",
          "type": "address"
        }
      ],
      "stateMutability": "view",
      "type": "function"
    },
    {
      "inputs": [
        {
          "internalType": "address",
          "name": "",
          "type": "address"
        }
      ],
      "name": "profiles",
      "outputs": [
        {
          "internalType": "string",
          "name": "fullName",
          "type": "string"
        },
        {
          "internalType": "uint256",
          "name": "age",
          "type": "uint256"
        },
        {
          "internalType": "string",
          "name": "email",
          "type": "string"
        },
        {
          "internalType": "string",
          "name": "ipfsHash",
          "type": "string"
        },
        {
          "internalType": "bool",
          "name": "isVerified",
          "type": "bool"
        },
        {
          "internalType": "uint256",
          "name": "createdAt",
          "type": "uint256"
        },
        {
          "internalType": "uint256",
          "name": "updatedAt",
          "type": "uint256"
        },
        {
          "internalType": "uint256",
          "name": "reputation",
          "type": "uint256"
        }
      ],
      "stateMutability": "view",
      "type": "function"
    },
    {
      "inputs": [],
      "name": "renounceOwnership",
      "outputs": [],
      "stateMutability": "nonpayable",
      "type": "function"
    },
    {
      "inputs": [
        {
          "internalType": "address",
          "name": "newOwner",
          "type": "address"
        }
      ],
      "name": "transferOwnership",
      "outputs": [],
      "stateMutability": "nonpayable",
      "type": "function"
    },
    {
      "inputs": [
        {
          "internalType": "string",
          "name": "_fullName",
          "type": "string"
        },
        {
          "internalType": "uint256",
          "name": "_age",
          "type": "uint256"
        },
        {
          "internalType": "string",
          "name": "_ipfsHash",
          "type": "string"
        }
      ],
      "name": "updateProfile",
      "outputs": [],
      "stateMutability": "nonpayable",
      "type": "function"
    },
    {
      "inputs": [
        {
          "internalType": "address",
          "name": "_user",
          "type": "address"
        },
        {
          "internalType": "uint256",
          "name": "_reputation",
          "type": "uint256"
        }
      ],
      "name": "updateReputation",
      "outputs": [],
      "stateMutability": "nonpayable",
      "type": "function"
    },
    {
      "inputs": [
        {
          "internalType": "address",
          "name": "_user",
          "type": "address"
        },
        {
          "internalType": "bool",
          "name": "_verified",
          "type": "bool"
        }
      ],
      "name": "verifyProfile",
      "outputs": [],
      "stateMutability": "nonpayable",
      "type": "function"
    }
  ],
  "bytecode": "0x6080806040523461007e5733156100685760008054336001600160a01b03198216811783556040519290916001600160a01b0316907f8be0079c531659141344cd1fd0a4f28419497f9722a3daafe3b4186f6b6457e09080a36001805561145b90816100848239f35b631e4fbdf760e01b815260006004820152602490fd5b600080fdfe6080604052600436101561001257600080fd5b60003560e01c80630d1b21fa146109ea5780630f53a4701461087457806318046ae1146101e457806356412d3a146107d0578063715018a6146107775780638da5cb5b1461074e5780639be572f614610730578063a2bdedf4146106ee578063a5fb1fb8146103b0578063a787c80b14610371578063ace417e014610344578063baccbfdb14610319578063bbe156271461024d578063ea78dcbf146101e4578063f2fde38b146101565763f5c91a08146100cc57600080fd5b34610151576040366003190112610151576100e5611116565b7ffc577563f1b9a0461e24abef1e1fcc0d33d3d881f20b5df6dda59de4aae2c8216020602435926101146112a1565b60018060a01b031692836000526004825261013660ff60406000205416611376565b836000526002825280600760406000200155604051908152a2005b600080fd5b346101515760203660031901126101515761016f611116565b6101776112a1565b6001600160a01b039081169081156101cb57600054826bffffffffffffffffffffffff60a01b821617600055167f8be0079c531659141344cd1fd0a4f28419497f9722a3daafe3b4186f6b6457e0600080a3005b604051631e4fbdf760e01b815260006004820152602490fd5b346101515760203660031901126101515760043567ffffffffffffffff81116101515761021760209136906004016110bf565b8161022b604051928381519384920161112c565b600390820190815281900382019020546040516001600160a01b039091168152f35b34610151576020366003190112610151576001600160a01b0361026e611116565b1660005260026020526102dd6040600020610288816111fb565b9060018101549061029b600282016111fb565b906102a8600382016111fb565b926102fe60ff600484015416946102f060058501549360076006870154960154966040519a8b9a610100808d528c019061114f565b9160208b015289820360408b015261114f565b90878203606089015261114f565b931515608086015260a085015260c084015260e08301520390f35b3461015157602036600319011261015157602061033c610337611116565b6113f4565b604051908152f35b34610151576020366003190112610151576020610367610362611116565b6113bb565b6040519015158152f35b34610151576020366003190112610151576001600160a01b03610392611116565b166000526004602052602060ff604060002054166040519015158152f35b346101515760603660031901126101515767ffffffffffffffff600435818111610151576103e29036906004016110bf565b60243591604435818111610151576103fe9036906004016110bf565b90336000526020926004845261041b60ff60406000205416611376565b610423611353565b61042f815115156112cd565b841515806106e4575b61044190611319565b3360005260028452604060002091815181811161060f578061046385546111c1565b93601f94858111610695575b50879085831160011461063057600092610625575b50508160011b916000199060031b1c19161783555b600195868401556003830191845191821161060f576104b883546111c1565b8181116105c9575b508590821160011461053c57918161052a94927fdd635a4cd84864e37e4479dbfc2ec667acfa473c83c8422a8ac9d9d07599b01c9694600091610531575b50600019600383901b1c191690881b1790555b600642910155604051918291858352339583019061114f565b0390a28055005b9050840151896104fe565b908691601f1982169084600052876000209160005b898282106105b35750509183917fdd635a4cd84864e37e4479dbfc2ec667acfa473c83c8422a8ac9d9d07599b01c98969461052a9896941061059a575b5050811b019055610511565b86015160001960f88460031b161c19169055898061058e565b838a015185558b96909401939283019201610551565b83600052866000208280850160051c820192898610610606575b0160051c019088905b8281106105fa5750506104c0565b600081550188906105ec565b925081926105e3565b634e487b7160e01b600052604160045260246000fd5b015190508880610484565b60008781528981209350601f198516905b8a82821061067f575050908460019594939210610666575b505050811b018355610499565b015160001960f88460031b161c19169055888080610659565b6001859682939686015181550195019301610641565b90915085600052876000208580850160051c8201928a86106106db575b9085949392910160051c01905b8181106106cc575061046f565b600081558493506001016106bf565b925081926106b2565b5060968510610438565b346101515760203660031901126101515760043560055481101561015157610717602091611174565b905460405160039290921b1c6001600160a01b03168152f35b34610151576000366003190112610151576020600554604051908152f35b34610151576000366003190112610151576000546040516001600160a01b039091168152602090f35b34610151576000366003190112610151576107906112a1565b600080546001600160a01b0319811682556001600160a01b03167f8be0079c531659141344cd1fd0a4f28419497f9722a3daafe3b4186f6b6457e08280a3005b34610151576040366003190112610151576107e9611116565b6024359081151590818303610151577f1a54de57409cde881501535c2cd15fafdcc1cfee166b0f7de867255b850c76d59161086b6020926108286112a1565b60018060a01b031694856000526004845261084a60ff60406000205416611376565b856000526002845260046040600020019060ff801983541691151516179055565b604051908152a2005b34610151576020806003193601126101515761012090610892611116565b6040519061089f82611080565b600060e0606093848152828682015284604082015284808201528260808201528260a08201528260c0820152015260018060a01b031680600052600483526108ee60ff60406000205416611376565b600052600282526040600020916040519261090884611080565b610911816111fb565b845260018101549082850191825261092b600282016111fb565b91604086019283526109cc610942600384016111fb565b86880190815260ff600485015416966080890197151588526109bb60058601549460a08b01958652600760068801549760c08d0198895201549760e08c019889526109a1604051809e819e8d83525191610100809e820152019061114f565b915160408d015251601f1993848d840301908d015261114f565b9151908983030160808a015261114f565b9451151560a08701525160c08601525160e085015251908301520390f35b346101515760803660031901126101515760043567ffffffffffffffff811161015157610a1b9036906004016110bf565b60443567ffffffffffffffff811161015157610a3b9036906004016110bf565b60643567ffffffffffffffff811161015157610a5b9036906004016110bf565b916040518251610a6f81836020870161112c565b60039082019081528190036020019020546001600160a01b031661103b57610a95611353565b33600052600460205260ff60406000205416610ffd57610ab7815115156112cd565b60243580151580610ff3575b610acc90611319565b825115610fb65760405191610ae083611080565b82526020820152816040820152826060820152600060808201524260a08201524260c0820152600060e0820152336000526002602052604060002090805180519067ffffffffffffffff821161060f578190610b3c85546111c1565b601f8111610f66575b50602090601f8311600114610efa57600092610eef575b50508160011b916000199060031b1c19161782555b60208101516001830155604081015180519067ffffffffffffffff821161060f578190610ba160028601546111c1565b601f8111610e9c575b50602090601f8311600114610e2a57600092610e1f575b50508160011b916000199060031b1c19161760028301555b606081015180519067ffffffffffffffff821161060f57610bfd60038501546111c1565b601f8111610dd8575b50602090601f8311600114610d635791806007949260e094600092610d58575b50508160011b916000199060031b1c19161760038501555b610c5d60808201511515600486019060ff801983541691151516179055565b60a0810151600585015560c0810151600685015501519101556040516020818351610c8b818385880161112c565b81016003815203019020336bffffffffffffffffffffffff60a01b8254161790553360005260046020526040600020600160ff198254161790556005546801000000000000000081101561060f577f6b4494367229a908b0585b361e2871a21f8eb4cd852c02f55c9e06989f4bb2aa91610d0e826001610d409401600555611174565b81546001600160a01b0360039290921b91821b19163390911b17905560408051818152928392610d4f9284019061114f565b8281036020840152339561114f565b0390a260018055005b015190508880610c26565b906003850160005260206000209160005b601f1985168110610dc05750926007949260019260e09583601f19811610610da7575b505050811b016003850155610c3e565b015160001960f88460031b161c19169055888080610d97565b91926020600181928685015181550194019201610d74565b600385016000526020600020601f840160051c810160208510610e18575b601f830160051c82018110610e0c575050610c06565b60008155600101610df6565b5080610df6565b015190508680610bc1565b9250600285016000526020600020906000935b601f1984168510610e81576001945083601f19811610610e68575b505050811b016002830155610bd9565b015160001960f88460031b161c19169055868080610e58565b81810151835560209485019460019093019290910190610e3d565b909150600285016000526020600020601f840160051c810160208510610ee8575b90849392915b601f830160051c82018110610ed9575050610baa565b60008155859450600101610ec3565b5080610ebd565b015190508680610b5c565b9250846000526020600020906000935b601f1984168510610f4b576001945083601f19811610610f32575b505050811b018255610b71565b015160001960f88460031b161c19169055868080610f25565b81810151835560209485019460019093019290910190610f0a565b909150846000526020600020601f840160051c810160208510610faf575b90849392915b601f830160051c82018110610fa0575050610b45565b60008155859450600101610f8a565b5080610f84565b60405162461bcd60e51b8152602060048201526015602482015274456d61696c2063616e6e6f7420626520656d70747960581b6044820152606490fd5b5060968110610ac3565b60405162461bcd60e51b815260206004820152601660248201527550726f66696c6520616c72656164792065786973747360501b6044820152606490fd5b60405162461bcd60e51b815260206004820152601860248201527f456d61696c20616c7265616479207265676973746572656400000000000000006044820152606490fd5b610100810190811067ffffffffffffffff82111761060f57604052565b90601f8019910116810190811067ffffffffffffffff82111761060f57604052565b81601f820112156101515780359067ffffffffffffffff821161060f57604051926110f4601f8401601f19166020018561109d565b8284526020838301011161015157816000926020809301838601378301015290565b600435906001600160a01b038216820361015157565b60005b83811061113f5750506000910152565b818101518382015260200161112f565b906020916111688151809281855285808601910161112c565b601f01601f1916010190565b6005548110156111ab5760056000527f036b6384b5eca791c62761152d0c79bb0604c104a5fb6f4eb0703f3154bb3db00190600090565b634e487b7160e01b600052603260045260246000fd5b90600182811c921680156111f1575b60208310146111db57565b634e487b7160e01b600052602260045260246000fd5b91607f16916111d0565b906040519182600082549261120f846111c1565b90818452600194858116908160001461127e575060011461123b575b50506112399250038361109d565b565b9093915060005260209081600020936000915b8183106112665750506112399350820101388061122b565b8554888401850152948501948794509183019161124e565b91505061123994506020925060ff191682840152151560051b820101388061122b565b6000546001600160a01b031633036112b557565b60405163118cdaa760e01b8152336004820152602490fd5b156112d457565b60405162461bcd60e51b815260206004820152601960248201527f46756c6c206e616d652063616e6e6f7420626520656d707479000000000000006044820152606490fd5b1561132057565b60405162461bcd60e51b815260206004820152600b60248201526a496e76616c69642061676560a81b6044820152606490fd5b600260015414611364576002600155565b604051633ee5aeb560e01b8152600490fd5b1561137d57565b60405162461bcd60e51b8152602060048201526016602482015275141c9bd99a5b1948191bd95cc81b9bdd08195e1a5cdd60521b6044820152606490fd5b6001600160a01b031660009081526004602052604090205460ff16156113ef57600260205260ff6004604060002001541690565b600090565b6001600160a01b031660009081526004602052604090205460ff16156113ef5760026020526007604060002001549056fea2646970667358221220b0413c0bb8a6b2e93cd0dc2720a93edc34bc7d985240c566f1f4e7d5bb6adb5b64736f6c63430008140033",
  "linkReferences": {},
  "deployedLinkReferences": {}
}