{
  "_format": "hh-sol-artifact-1",
  "contractName": "DeSciNFTSimple",
  "sourceName": "contracts/DeSciNFTSimple.sol",
  "abi": [
    {
      "inputs": [],
      "stateMutability": "nonpayable",
      "type": "constructor"
    },
    {
      "inputs": [
        {
          "internalType": "address",
          "name": "sender",
          "type": "address"
        },
        {
          "internalType": "uint256",
          "name": "tokenId",
          "type": "uint256"
        },
        {
          "internalType": "address",
          "name": "owner",
          "type": "address"
        }
      ],
      "name": "ERC721IncorrectOwner",
      "type": "error"
    },
    {
      "inputs": [
        {
          "internalType": "address",
          "name": "operator",
          "type": "address"
        },
        {
          "internalType": "uint256",
          "name": "tokenId",
          "type": "uint256"
        }
      ],
      "name": "ERC721InsufficientApproval",
      "type": "error"
    },
    {
      "inputs": [
        {
          "internalType": "address",
          "name": "approver",
          "type": "address"
        }
      ],
      "name": "ERC721InvalidApprover",
      "type": "error"
    },
    {
      "inputs": [
        {
          "internalType": "address",
          "name": "operator",
          "type": "address"
        }
      ],
      "name": "ERC721InvalidOperator",
      "type": "error"
    },
    {
      "inputs": [
        {
          "internalType": "address",
          "name": "owner",
          "type": "address"
        }
      ],
      "name": "ERC721InvalidOwner",
      "type": "error"
    },
    {
      "inputs": [
        {
          "internalType": "address",
          "name": "receiver",
          "type": "address"
        }
      ],
      "name": "ERC721InvalidReceiver",
      "type": "error"
    },
    {
      "inputs": [
        {
          "internalType": "address",
          "name": "sender",
          "type": "address"
        }
      ],
      "name": "ERC721InvalidSender",
      "type": "error"
    },
    {
      "inputs": [
        {
          "internalType": "uint256",
          "name": "tokenId",
          "type": "uint256"
        }
      ],
      "name": "ERC721NonexistentToken",
      "type": "error"
    },
    {
      "inputs": [
        {
          "internalType": "address",
          "name": "owner",
          "type": "address"
        }
      ],
      "name": "OwnableInvalidOwner",
      "type": "error"
    },
    {
      "inputs": [
        {
          "internalType": "address",
          "name": "account",
          "type": "address"
        }
      ],
      "name": "OwnableUnauthorizedAccount",
      "type": "error"
    },
    {
      "inputs": [],
      "name": "ReentrancyGuardReentrantCall",
      "type": "error"
    },
    {
      "anonymous": false,
      "inputs": [
        {
          "indexed": true,
          "internalType": "address",
          "name": "owner",
          "type": "address"
        },
        {
          "indexed": true,
          "internalType": "address",
          "name": "approved",
          "type": "address"
        },
        {
          "indexed": true,
          "internalType": "uint256",
          "name": "tokenId",
          "type": "uint256"
        }
      ],
      "name": "Approval",
      "type": "event"
    },
    {
      "anonymous": false,
      "inputs": [
        {
          "indexed": true,
          "internalType": "address",
          "name": "owner",
          "type": "address"
        },
        {
          "indexed": true,
          "internalType": "address",
          "name": "operator",
          "type": "address"
        },
        {
          "indexed": false,
          "internalType": "bool",
          "name": "approved",
          "type": "bool"
        }
      ],
      "name": "ApprovalForAll",
      "type": "event"
    },
    {
      "anonymous": false,
      "inputs": [
        {
          "indexed": false,
          "internalType": "uint256",
          "name": "_fromTokenId",
          "type": "uint256"
        },
        {
          "indexed": false,
          "internalType": "uint256",
          "name": "_toTokenId",
          "type": "uint256"
        }
      ],
      "name": "BatchMetadataUpdate",
      "type": "event"
    },
    {
      "anonymous": false,
      "inputs": [
        {
          "indexed": true,
          "internalType": "uint256",
          "name": "tokenId",
          "type": "uint256"
        },
        {
          "indexed": false,
          "internalType": "uint256",
          "name": "newCount",
          "type": "uint256"
        }
      ],
      "name": "CitationAdded",
      "type": "event"
    },
    {
      "anonymous": false,
      "inputs": [
        {
          "indexed": true,
          "internalType": "uint256",
          "name": "tokenId",
          "type": "uint256"
        },
        {
          "indexed": false,
          "internalType": "uint256",
          "name": "newScore",
          "type": "uint256"
        }
      ],
      "name": "ImpactScoreUpdated",
      "type": "event"
    },
    {
      "anonymous": false,
      "inputs": [
        {
          "indexed": false,
          "internalType": "uint256",
          "name": "_tokenId",
          "type": "uint256"
        }
      ],
      "name": "MetadataUpdate",
      "type": "event"
    },
    {
      "anonymous": false,
      "inputs": [
        {
          "indexed": true,
          "internalType": "uint256",
          "name": "tokenId",
          "type": "uint256"
        },
        {
          "indexed": false,
          "internalType": "bool",
          "name": "verified",
          "type": "bool"
        }
      ],
      "name": "NFTVerified",
      "type": "event"
    },
    {
      "anonymous": false,
      "inputs": [
        {
          "indexed": true,
          "internalType": "address",
          "name": "previousOwner",
          "type": "address"
        },
        {
          "indexed": true,
          "internalType": "address",
          "name": "newOwner",
          "type": "address"
        }
      ],
      "name": "OwnershipTransferred",
      "type": "event"
    },
    {
      "anonymous": false,
      "inputs": [
        {
          "indexed": true,
          "internalType": "uint256",
          "name": "tokenId",
          "type": "uint256"
        },
        {
          "indexed": true,
          "internalType": "address",
          "name": "researcher",
          "type": "address"
        },
        {
          "indexed": false,
          "internalType": "string",
          "name": "title",
          "type": "string"
        },
        {
          "indexed": false,
          "internalType": "string",
          "name": "researchType",
          "type": "string"
        }
      ],
      "name": "ResearchNFTMinted",
      "type": "event"
    },
    {
      "anonymous": false,
      "inputs": [
        {
          "indexed": true,
          "internalType": "address",
          "name": "from",
          "type": "address"
        },
        {
          "indexed": true,
          "internalType": "address",
          "name": "to",
          "type": "address"
        },
        {
          "indexed": true,
          "internalType": "uint256",
          "name": "tokenId",
          "type": "uint256"
        }
      ],
      "name": "Transfer",
      "type": "event"
    },
    {
      "inputs": [
        {
          "internalType": "uint256",
          "name": "tokenId",
          "type": "uint256"
        }
      ],
      "name": "addCitation",
      "outputs": [],
      "stateMutability": "nonpayable",
      "type": "function"
    },
    {
      "inputs": [
        {
          "internalType": "address",
          "name": "to",
          "type": "address"
        },
        {
          "internalType": "uint256",
          "name": "tokenId",
          "type": "uint256"
        }
      ],
      "name": "approve",
      "outputs": [],
      "stateMutability": "nonpayable",
      "type": "function"
    },
    {
      "inputs": [
        {
          "internalType": "address",
          "name": "owner",
          "type": "address"
        }
      ],
      "name": "balanceOf",
      "outputs": [
        {
          "internalType": "uint256",
          "name": "",
          "type": "uint256"
        }
      ],
      "stateMutability": "view",
      "type": "function"
    },
    {
      "inputs": [
        {
          "internalType": "uint256",
          "name": "tokenId",
          "type": "uint256"
        }
      ],
      "name": "getApproved",
      "outputs": [
        {
          "internalType": "address",
          "name": "",
          "type": "address"
        }
      ],
      "stateMutability": "view",
      "type": "function"
    },
    {
      "inputs": [
        {
          "internalType": "uint256",
          "name": "tokenId",
          "type": "uint256"
        }
      ],
      "name": "getResearchNFT",
      "outputs": [
        {
          "components": [
            {
              "internalType": "string",
              "name": "title",
              "type": "string"
            },
            {
              "internalType": "string",
              "name": "description",
              "type": "string"
            },
            {
              "internalType": "address",
              "name": "researcher",
              "type": "address"
            },
            {
              "internalType": "uint256",
              "name": "createdAt",
              "type": "uint256"
            },
            {
              "internalType": "string",
              "name": "researchType",
              "type": "string"
            },
            {
              "internalType": "uint256",
              "name": "citationCount",
              "type": "uint256"
            },
            {
              "internalType": "uint256",
              "name": "impactScore",
              "type": "uint256"
            },
            {
              "internalType": "bool",
              "name": "isVerified",
              "type": "bool"
            }
          ],
          "internalType": "struct DeSciNFTSimple.ResearchNFT",
          "name": "",
          "type": "tuple"
        }
      ],
      "stateMutability": "view",
      "type": "function"
    },
    {
      "inputs": [
        {
          "internalType": "address",
          "name": "researcher",
          "type": "address"
        }
      ],
      "name": "getResearcherNFTs",
      "outputs": [
        {
          "internalType": "uint256[]",
          "name": "",
          "type": "uint256[]"
        }
      ],
      "stateMutability": "view",
      "type": "function"
    },
    {
      "inputs": [],
      "name": "getTotalNFTs",
      "outputs": [
        {
          "internalType": "uint256",
          "name": "",
          "type": "uint256"
        }
      ],
      "stateMutability": "view",
      "type": "function"
    },
    {
      "inputs": [
        {
          "internalType": "address",
          "name": "owner",
          "type": "address"
        },
        {
          "internalType": "address",
          "name": "operator",
          "type": "address"
        }
      ],
      "name": "isApprovedForAll",
      "outputs": [
        {
          "internalType": "bool",
          "name": "",
          "type": "bool"
        }
      ],
      "stateMutability": "view",
      "type": "function"
    },
    {
      "inputs": [
        {
          "internalType": "address",
          "name": "to",
          "type": "address"
        },
        {
          "internalType": "string",
          "name": "title",
          "type": "string"
        },
        {
          "internalType": "string",
          "name": "description",
          "type": "string"
        },
        {
          "internalType": "string",
          "name": "uri",
          "type": "string"
        },
        {
          "internalType": "string",
          "name": "researchType",
          "type": "string"
        }
      ],
      "name": "mintResearchNFT",
      "outputs": [
        {
          "internalType": "uint256",
          "name": "",
          "type": "uint256"
        }
      ],
      "stateMutability": "nonpayable",
      "type": "function"
    },
    {
      "inputs": [],
      "name": "name",
      "outputs": [
        {
          "internalType": "string",
          "name": "",
          "type": "string"
        }
      ],
      "stateMutability": "view",
      "type": "function"
    },
    {
      "inputs": [],
      "name": "owner",
      "outputs": [
        {
          "internalType": "address",
          "name": "",
          "type": "address"
        }
      ],
      "stateMutability": "view",
      "type": "function"
    },
    {
      "inputs": [
        {
          "internalType": "uint256",
          "name": "tokenId",
          "type": "uint256"
        }
      ],
      "name": "ownerOf",
      "outputs": [
        {
          "internalType": "address",
          "name": "",
          "type": "address"
        }
      ],
      "stateMutability": "view",
      "type": "function"
    },
    {
      "inputs": [],
      "name": "renounceOwnership",
      "outputs": [],
      "stateMutability": "nonpayable",
      "type": "function"
    },
    {
      "inputs": [
        {
          "internalType": "uint256",
          "name": "",
          "type": "uint256"
        }
      ],
      "name": "researchNFTs",
      "outputs": [
        {
          "internalType": "string",
          "name": "title",
          "type": "string"
        },
        {
          "internalType": "string",
          "name": "description",
          "type": "string"
        },
        {
          "internalType": "address",
          "name": "researcher",
          "type": "address"
        },
        {
          "internalType": "uint256",
          "name": "createdAt",
          "type": "uint256"
        },
        {
          "internalType": "string",
          "name": "researchType",
          "type": "string"
        },
        {
          "internalType": "uint256",
          "name": "citationCount",
          "type": "uint256"
        },
        {
          "internalType": "uint256",
          "name": "impactScore",
          "type": "uint256"
        },
        {
          "internalType": "bool",
          "name": "isVerified",
          "type": "bool"
        }
      ],
      "stateMutability": "view",
      "type": "function"
    },
    {
      "inputs": [
        {
          "internalType": "address",
          "name": "",
          "type": "address"
        },
        {
          "internalType": "uint256",
          "name": "",
          "type": "uint256"
        }
      ],
      "name": "researcherNFTs",
      "outputs": [
        {
          "internalType": "uint256",
          "name": "",
          "type": "uint256"
        }
      ],
      "stateMutability": "view",
      "type": "function"
    },
    {
      "inputs": [
        {
          "internalType": "address",
          "name": "from",
          "type": "address"
        },
        {
          "internalType": "address",
          "name": "to",
          "type": "address"
        },
        {
          "internalType": "uint256",
          "name": "tokenId",
          "type": "uint256"
        }
      ],
      "name": "safeTransferFrom",
      "outputs": [],
      "stateMutability": "nonpayable",
      "type": "function"
    },
    {
      "inputs": [
        {
          "internalType": "address",
          "name": "from",
          "type": "address"
        },
        {
          "internalType": "address",
          "name": "to",
          "type": "address"
        },
        {
          "internalType": "uint256",
          "name": "tokenId",
          "type": "uint256"
        },
        {
          "internalType": "bytes",
          "name": "data",
          "type": "bytes"
        }
      ],
      "name": "safeTransferFrom",
      "outputs": [],
      "stateMutability": "nonpayable",
      "type": "function"
    },
    {
      "inputs": [
        {
          "internalType": "address",
          "name": "operator",
          "type": "address"
        },
        {
          "internalType": "bool",
          "name": "approved",
          "type": "bool"
        }
      ],
      "name": "setApprovalForAll",
      "outputs": [],
      "stateMutability": "nonpayable",
      "type": "function"
    },
    {
      "inputs": [
        {
          "internalType": "bytes4",
          "name": "interfaceId",
          "type": "bytes4"
        }
      ],
      "name": "supportsInterface",
      "outputs": [
        {
          "internalType": "bool",
          "name": "",
          "type": "bool"
        }
      ],
      "stateMutability": "view",
      "type": "function"
    },
    {
      "inputs": [],
      "name": "symbol",
      "outputs": [
        {
          "internalType": "string",
          "name": "",
          "type": "string"
        }
      ],
      "stateMutability": "view",
      "type": "function"
    },
    {
      "inputs": [
        {
          "internalType": "string",
          "name": "",
          "type": "string"
        }
      ],
      "name": "titleToTokenId",
      "outputs": [
        {
          "internalType": "uint256",
          "name": "",
          "type": "uint256"
        }
      ],
      "stateMutability": "view",
      "type": "function"
    },
    {
      "inputs": [
        {
          "internalType": "uint256",
          "name": "tokenId",
          "type": "uint256"
        }
      ],
      "name": "tokenURI",
      "outputs": [
        {
          "internalType": "string",
          "name": "",
          "type": "string"
        }
      ],
      "stateMutability": "view",
      "type": "function"
    },
    {
      "inputs": [
        {
          "internalType": "address",
          "name": "from",
          "type": "address"
        },
        {
          "internalType": "address",
          "name": "to",
          "type": "address"
        },
        {
          "internalType": "uint256",
          "name": "tokenId",
          "type": "uint256"
        }
      ],
      "name": "transferFrom",
      "outputs": [],
      "stateMutability": "nonpayable",
      "type": "function"
    },
    {
      "inputs": [
        {
          "internalType": "address",
          "name": "newOwner",
          "type": "address"
        }
      ],
      "name": "transferOwnership",
      "outputs": [],
      "stateMutability": "nonpayable",
      "type": "function"
    },
    {
      "inputs": [
        {
          "internalType": "uint256",
          "name": "tokenId",
          "type": "uint256"
        },
        {
          "internalType": "bool",
          "name": "verified",
          "type": "bool"
        }
      ],
      "name": "verifyResearch",
      "outputs": [],
      "stateMutability": "nonpayable",
      "type": "function"
    }
  ],
  "bytecode": "0x608034620003a9576001600160401b0390604081810183811183821017620003935781526012825260209271111954d8da4814995cd9585c98da0813919560721b848401528151908282018281108282111762000393578352600491828152634453434960e01b868201528451908282116200037e576000968754926001978885811c9516801562000373575b8386101462000360578190601f958681116200030d575b508390868311600114620002a9578b926200029d575b5050600019600383901b1c191690881b1788555b81519384116200028a5786548781811c911680156200027f575b828210146200026c57908184869594931162000215575b5080928411600114620001ad57508792620001a1575b5050600019600383901b1c191690841b1783555b33156200018c575060078054336001600160a01b03198216811790925591519390916001600160a01b0316907f8be0079c531659141344cd1fd0a4f28419497f9722a3daafe3b4186f6b6457e09080a380600855600955611dcf9081620003af8239f35b836024925191631e4fbdf760e01b8352820152fd5b01519050388062000114565b9190879450601f198416858a52838a20938a905b828210620001fb5750508411620001e1575b505050811b01835562000128565b015160001960f88460031b161c19169055388080620001d3565b8484015186558a97909501949384019390810190620001c1565b90919293508789528189208480870160051c82019284881062000262575b9187968b92969594930160051c01915b82811062000253575050620000fe565b8b81558796508a910162000243565b9250819262000233565b634e487b7160e01b895260228652602489fd5b90607f1690620000e7565b634e487b7160e01b885260418552602488fd5b015190503880620000b9565b8b8052848c208b94509190601f1984168d5b87828210620002f65750508411620002dc575b505050811b018855620000cd565b015160001960f88460031b161c19169055388080620002ce565b8385015186558e97909501949384019301620002bb565b9091508a8052838b208680850160051c82019286861062000356575b918c91869594930160051c01915b82811062000347575050620000a3565b8d81558594508c910162000337565b9250819262000329565b634e487b7160e01b8a526022875260248afd5b94607f16946200008c565b604184634e487b7160e01b6000525260246000fd5b634e487b7160e01b600052604160045260246000fd5b600080fdfe608080604052600436101561001357600080fd5b60003560e01c90816301ffc9a7146117225750806306fdde031461167f578063081812fc14611641578063095ea7b31461155a57806320a2b3a01461149457806323b872dd1461147d5780632bc6c4e3146113c95780632ef706ab1461137157806330bdb3511461134657806342842e0e146113185780634f7a3a75146108c5578063507d34a51461083a5780636352211e1461080a57806370a08231146107b1578063715018a6146107545780638da5cb5b1461072b57806395d89b411461064c5780639a60f5be146104e35780639e6b3f4214610487578063a22cb465146103dc578063b88d4fde1461036f578063c87b56dd14610312578063e985e9c5146102bc578063f2fde38b1461022e5763f9202f001461013257600080fd5b346102295760208060031936011261022957600435906101646001600160a01b0361015c84611be7565b161515611d7f565b81600052600a8152600560406000200161017e8154611d70565b905581600052600a8152604060002090600582015491600a830292808404600a1490151715610213577fbf72494abeb41ebcbebb2336bea955f18098ff14bc9264d4ab666168b67af0b382847f2e2699c09f8992c0d6290f13906bc2ee1123da7fcb3a7524e04359385709476695600688950155604051908152a282600052600a8152600560406000200154604051908152a2005b634e487b7160e01b600052601160045260246000fd5b600080fd5b34610229576020366003190112610229576102476117ef565b61024f611a35565b6001600160a01b039081169081156102a357600754826bffffffffffffffffffffffff60a01b821617600755167f8be0079c531659141344cd1fd0a4f28419497f9722a3daafe3b4186f6b6457e0600080a3005b604051631e4fbdf760e01b815260006004820152602490fd5b34610229576040366003190112610229576102d56117ef565b6102dd611805565b9060018060a01b03809116600052600560205260406000209116600052602052602060ff604060002054166040519015158152f35b346102295760203660031901126102295760043561032f81611be7565b50600052600660205261036b61034860406000206118ad565b600060405161035681611871565b526040519182916020835260208301906117ca565b0390f35b34610229576080366003190112610229576103886117ef565b610390611805565b90604435606435926001600160401b0384116102295736602385011215610229576103c86103da9436906024816004013591016119d1565b926103d4838383611a61565b33611c22565b005b34610229576040366003190112610229576103f56117ef565b6103fd611a26565b6001600160a01b0390911690811561046e5733600052600560205260406000208260005260205261043e8160406000209060ff801983541691151516179055565b60405190151581527f17307eab39ab6107e8899845ad3d59bd9653f200f220920489ca2b5937696c3160203392a3005b604051630b61174360e31b815260048101839052602490fd5b34610229576020366003190112610229576004356001600160401b038111610229576104d060206104bd81933690600401611a08565b81604051938285809451938492016117a7565b8101600c81520301902054604051908152f35b346102295760208060031936011261022957610602600435916040519061050982611855565b600060e0606093848152848482015282604082015282858201528460808201528260a08201528260c0820152015260018060a01b039361054c8561015c83611be7565b600052600a81526040600020936040519461056686611855565b61056f816118ad565b8652610634610580600183016118ad565b9684810197885283600284015416906040810191825260038401548782019081526105ad600486016118ad565b906080830191825260058601549860a08401998a5260ff600760068901549860c08701998a520154169760e0850198151589526106176040519d8e9d8e978d895251610100809e8a01526101208901906117ca565b9051601f1997604089828503019101526117ca565b955116908b01525160808a015251908883030160a08901526117ca565b935160c08601525160e0850152511515908301520390f35b3461022957600036600319011261022957604051600060018054906106708261181b565b8085529181811690811561070457506001146106ab575b61036b846106978186038261188c565b6040519182916020835260208301906117ca565b600081815292507fb10e2d527612073b26eecdfd717e6a320cf44b4afac2b0732d9fcbe2b7fa0cf65b8284106106ec57505050810160200161069782610687565b805460208587018101919091529093019281016106d4565b60ff191660208087019190915292151560051b850190920192506106979150839050610687565b34610229576000366003190112610229576007546040516001600160a01b039091168152602090f35b346102295760003660031901126102295761076d611a35565b600780546001600160a01b031981169091556000906001600160a01b03167f8be0079c531659141344cd1fd0a4f28419497f9722a3daafe3b4186f6b6457e08280a3005b34610229576020366003190112610229576001600160a01b036107d26117ef565b1680156107f15760005260036020526020604060002054604051908152f35b6040516322718ad960e21b815260006004820152602490fd5b34610229576020366003190112610229576020610828600435611be7565b6040516001600160a01b039091168152f35b34610229576040366003190112610229576004357f4727b85a09e6ca94a7e26b46423373a951492773e32fbefde21a3ca6448303516020610879611a26565b610881611a35565b6108956001600160a01b0361015c86611be7565b83600052600a82526108ba8160076040600020019060ff801983541691151516179055565b6040519015158152a2005b346102295760a0366003190112610229576108de6117ef565b6024356001600160401b038111610229576108fd903690600401611a08565b906044356001600160401b0381116102295761091d903690600401611a08565b6064356001600160401b0381116102295761093c903690600401611a08565b916084356001600160401b0381116102295761095c903690600401611a08565b916002600854146113065760026008558451156112c95760405160208187516109888183858c016117a7565b8101600c8152030190205461127457600954936109a485611d70565b6009556040516109b381611871565b600081526001600160a01b0384161561125b576000868152600260205260409020546001600160a01b031680611224575b6001600160a01b0385166000818152600360209081526040808320805460010190558a83526002909152812080546001600160a01b0319168317905588919083907fddf252ad1be2c89b69c2b068fc378daa952ba7f163c4a11628f55a4df523b3ef9080a461120b57833b6110c0575b508460005260066020526040600020908051906001600160401b038211610d81578190610a81845461181b565b601f8111611070575b50602090601f831160011461100457600092610ff9575b50508160011b916000199060031b1c19161790555b7ff8e1a15aba9398e019f0b49df1a4fde98ee17ae345cb5f6b5e2c27f5033e8ce76020604051868152a160405190610aed82611855565b858252602082015260018060a01b0382166040820152426060820152826080820152600060a0820152600060c0820152600060e082015283600052600a60205260406000209080518051906001600160401b038211610d81578190610b52855461181b565b601f8111610fa9575b50602090601f8311600114610f3d57600092610f32575b50508160011b916000199060031b1c19161782555b60208101518051906001600160401b038211610d81578190610bac600186015461181b565b601f8111610edf575b50602090601f8311600114610e6d57600092610e62575b50508160011b916000199060031b1c19161760018301555b6002820160018060a01b036040830151166bffffffffffffffffffffffff60a01b8254161790556060810151600383015560808101518051906001600160401b038211610d8157610c38600485015461181b565b601f8111610e1b575b50602090601f8311600114610da257928260079360e093610ca89796600092610d97575b50508160011b916000199060031b1c19161760048501555b60a0810151600585015560c081015160068501550151151591019060ff801983541691151516179055565b826040516020818751610cbe8183858c016117a7565b8101600c8152030190205560018060a01b038116600052600b60205260406000209081549168010000000000000000831015610d8157602095610d717f0c1def36ef14836e9b195f50c1fbc0b8035e8c6c472625326c1add6bb08ccd7693610d3086610d599560018b99018155611988565b81549060031b9088821b91600019901b19161790556040519384936040855260408501906117ca565b8381038a8501526001600160a01b03909116966117ca565b0390a36001600855604051908152f35b634e487b7160e01b600052604160045260246000fd5b015190508b80610c65565b906004850160005260206000209160005b601f1985168110610e0357508360e093610ca8979693600193600797601f19811610610dea575b505050811b016004850155610c7d565b015160001960f88460031b161c191690558b8080610dda565b91926020600181928685015181550194019201610db3565b600485016000526020600020601f840160051c810160208510610e5b575b601f830160051c82018110610e4f575050610c41565b60008155600101610e39565b5080610e39565b015190508880610bcc565b9250600185016000526020600020906000935b601f1984168510610ec4576001945083601f19811610610eab575b505050811b016001830155610be4565b015160001960f88460031b161c19169055888080610e9b565b81810151835560209485019460019093019290910190610e80565b909150600185016000526020600020601f840160051c810160208510610f2b575b90849392915b601f830160051c82018110610f1c575050610bb5565b60008155859450600101610f06565b5080610f00565b015190508880610b72565b9250846000526020600020906000935b601f1984168510610f8e576001945083601f19811610610f75575b505050811b018255610b87565b015160001960f88460031b161c19169055888080610f68565b81810151835560209485019460019093019290910190610f4d565b909150846000526020600020601f840160051c810160208510610ff2575b90849392915b601f830160051c82018110610fe3575050610b5b565b60008155859450600101610fcd565b5080610fc7565b015190508880610aa1565b9250836000526020600020906000935b601f1984168510611055576001945083601f1981161061103c575b505050811b019055610ab6565b015160001960f88460031b161c1916905588808061102f565b81810151835560209485019460019093019290910190611014565b909150836000526020600020601f840160051c8101602085106110b9575b90849392915b601f830160051c820181106110aa575050610a8a565b60008155859450600101611094565b508061108e565b602061110091604098979695985180938192630a85bd0160e11b8352336004840152600060248401528960448401526080606484015260848301906117ca565b038160006001600160a01b038c165af1600091816111c6575b5061118157863d15611179573d90611130826119b6565b9161113e604051938461188c565b82523d6000602084013e5b8151918261117257604051633250574960e11b81526001600160a01b0383166004820152602490fd5b6020915001fd5b606090611149565b949593949293926001600160e01b03191663757a42ff60e11b016111a55786610a54565b604051633250574960e11b81526001600160a01b0384166004820152602490fd5b9091506020813d602011611203575b816111e26020938361188c565b8101031261022957516001600160e01b031981168103610229579088611119565b3d91506111d5565b6040516339e3563760e11b815260006004820152602490fd5b600087815260046020526040902080546001600160a01b0319169055806000526003602052604060002060001981540190556109e4565b604051633250574960e11b815260006004820152602490fd5b60405162461bcd60e51b815260206004820152602760248201527f526573656172636820776974682074686973207469746c6520616c72656164796044820152662065786973747360c81b6064820152608490fd5b60405162461bcd60e51b81526020600482015260156024820152745469746c652063616e6e6f7420626520656d70747960581b6044820152606490fd5b604051633ee5aeb560e01b8152600490fd5b34610229576103da61132936611953565b906040519261133784611871565b600084526103d4838383611a61565b3461022957600036600319011261022957600954600019810190811161021357602090604051908152f35b346102295760403660031901126102295761138a6117ef565b6001600160a01b03166000908152600b6020526040902080546024359190821015610229576020916113bb91611988565b90546040519160031b1c8152f35b3461022957602080600319360112610229576001600160a01b036113eb6117ef565b16600052600b8152604060002060405190818382549182815201908192600052846000209060005b868282106114695786866114298288038361188c565b604051928392818401908285525180915260408401929160005b82811061145257505050500390f35b835185528695509381019392810192600101611443565b835485529093019260019283019201611413565b34610229576103da61148e36611953565b91611a61565b3461022957602036600319011261022957600435600052600a60205261151e60406000206114c1816118ad565b906114ce600182016118ad565b600282015460038301549290611544906001600160a01b03166114f3600484016118ad565b60058401549561152c60ff6007600688015497015416966040519a8b9a610100808d528c01906117ca565b908a820360208c01526117ca565b926040890152606088015286820360808801526117ca565b9260a085015260c0840152151560e08301520390f35b34610229576040366003190112610229576115736117ef565b60243561157f81611be7565b3315158061162e575b80611601575b6115e9576001600160a01b039283169282918491167f8c5be1e5ebec7d5bd14f71427d1e84f3dd0314c0f7b2291e5b200ac8c7c3b925600080a4600090815260046020526040902080546001600160a01b0319169091179055005b60405163a9fbf51f60e01b8152336004820152602490fd5b5060018060a01b038116600052600560205260406000203360005260205260ff604060002054161561158e565b506001600160a01b038116331415611588565b346102295760203660031901126102295760043561165e81611be7565b506000526004602052602060018060a01b0360406000205416604051908152f35b3461022957600036600319011261022957604051600080546116a08161181b565b8084529060019081811690811561070457506001146116c95761036b846106978186038261188c565b600080805292507f290decd9548b62a8d60345a988386fc84ba6bc95484008f6362f93160ef3e5635b82841061170a57505050810160200161069782610687565b805460208587018101919091529093019281016116f2565b34610229576020366003190112610229576004359063ffffffff60e01b821680920361022957602091632483248360e11b8114908115611764575b5015158152f35b6380ac58cd60e01b811491508115611796575b8115611785575b508361175d565b6301ffc9a760e01b1490508361177e565b635b5e139f60e01b81149150611777565b60005b8381106117ba5750506000910152565b81810151838201526020016117aa565b906020916117e3815180928185528580860191016117a7565b601f01601f1916010190565b600435906001600160a01b038216820361022957565b602435906001600160a01b038216820361022957565b90600182811c9216801561184b575b602083101461183557565b634e487b7160e01b600052602260045260246000fd5b91607f169161182a565b61010081019081106001600160401b03821117610d8157604052565b602081019081106001600160401b03821117610d8157604052565b90601f801991011681019081106001600160401b03821117610d8157604052565b90604051918260008254926118c18461181b565b90818452600194858116908160001461193057506001146118ed575b50506118eb9250038361188c565b565b9093915060005260209081600020936000915b8183106119185750506118eb935082010138806118dd565b85548884018501529485019487945091830191611900565b9150506118eb94506020925060ff191682840152151560051b82010138806118dd565b6060906003190112610229576001600160a01b0390600435828116810361022957916024359081168103610229579060443590565b80548210156119a05760005260206000200190600090565b634e487b7160e01b600052603260045260246000fd5b6001600160401b038111610d8157601f01601f191660200190565b9291926119dd826119b6565b916119eb604051938461188c565b829481845281830111610229578281602093846000960137010152565b9080601f8301121561022957816020611a23933591016119d1565b90565b60243590811515820361022957565b6007546001600160a01b03163303611a4957565b60405163118cdaa760e01b8152336004820152602490fd5b6001600160a01b03918216929091831561125b57600092828452826020956002875260409684888820541696879133151580611b51575b509060027fddf252ad1be2c89b69c2b068fc378daa952ba7f163c4a11628f55a4df523b3ef9284611b1e575b858352600381528b8320805460010190558683525289812080546001600160a01b0319168517905580a41692838303611afd5750505050565b6064945051926364283d7b60e01b8452600484015260248301526044820152fd5b600087815260046020526040902080546001600160a01b0319169055848352600381528b83208054600019019055611ac4565b91939450915080611ba6575b15611b6d57859291879138611a98565b878688611b8a576024915190637e27328960e01b82526004820152fd5b604491519063177e802f60e01b82523360048301526024820152fd5b503387148015611bcb575b80611b5d5750858252600481523385898420541614611b5d565b5086825260058152878220338352815260ff8883205416611bb1565b6000818152600260205260409020546001600160a01b0316908115611c0a575090565b60249060405190637e27328960e01b82526004820152fd5b90939192833b611c34575b5050505050565b604051630a85bd0160e11b8082526001600160a01b039384166004830152958316602482015260448101919091526080606482015294921692602092918590611c819060848301906117ca565b039483816000978189895af1869181611d2c575b50611cf6575050503d600014611ced573d611caf816119b6565b90611cbd604051928361188c565b81528093823d92013e5b82519283611ce857604051633250574960e11b815260048101849052602490fd5b019050fd5b60609250611cc7565b919450915063ffffffff60e01b1603611d1457503880808080611c2d565b60249060405190633250574960e11b82526004820152fd5b9091508481813d8311611d69575b611d44818361188c565b81010312611d6557516001600160e01b031981168103611d65579038611c95565b8680fd5b503d611d3a565b60001981146102135760010190565b15611d8657565b60405162461bcd60e51b8152602060048201526014602482015273151bdad95b88191bd95cc81b9bdd08195e1a5cdd60621b6044820152606490fdfea164736f6c6343000814000a",
  "linkReferences": {},
  "deployedLinkReferences": {}
}